{
  "contractName": "Div",
  "abi": [
    {
      "constant": true,
      "inputs": [
        {
          "internalType": "uint256",
          "name": "x",
          "type": "uint256"
        },
        {
          "internalType": "uint256",
          "name": "y",
          "type": "uint256"
        },
        {
          "internalType": "uint256",
          "name": "z",
          "type": "uint256"
        }
      ],
      "name": "mulDiv",
      "outputs": [
        {
          "internalType": "uint256",
          "name": "",
          "type": "uint256"
        }
      ],
      "payable": false,
      "stateMutability": "pure",
      "type": "function"
    },
    {
      "constant": true,
      "inputs": [
        {
          "internalType": "uint256",
          "name": "x",
          "type": "uint256"
        },
        {
          "internalType": "uint256",
          "name": "y",
          "type": "uint256"
        }
      ],
      "name": "fullMul",
      "outputs": [
        {
          "internalType": "uint256",
          "name": "l",
          "type": "uint256"
        },
        {
          "internalType": "uint256",
          "name": "h",
          "type": "uint256"
        }
      ],
      "payable": false,
      "stateMutability": "pure",
      "type": "function"
    },
    {
      "constant": true,
      "inputs": [
        {
          "internalType": "uint256",
          "name": "l",
          "type": "uint256"
        },
        {
          "internalType": "uint256",
          "name": "h",
          "type": "uint256"
        },
        {
          "internalType": "uint256",
          "name": "z",
          "type": "uint256"
        }
      ],
      "name": "fullDiv",
      "outputs": [
        {
          "internalType": "uint256",
          "name": "r",
          "type": "uint256"
        }
      ],
      "payable": false,
      "stateMutability": "pure",
      "type": "function"
    },
    {
      "constant": true,
      "inputs": [
        {
          "internalType": "uint256",
          "name": "x",
          "type": "uint256"
        }
      ],
      "name": "mostSignificantBit",
      "outputs": [
        {
          "internalType": "uint256",
          "name": "r",
          "type": "uint256"
        }
      ],
      "payable": false,
      "stateMutability": "pure",
      "type": "function"
    }
  ],
  "bytecode": "0x610366610026600b82828239805160001a60731461001957fe5b30600052607381538281f3fe73000000000000000000000000000000000000000030146080604052600436106100565760003560e01c8063367f3e8b1461005b57806367a4a3dd14610096578063aa9a0912146100d2578063e6bcbc65146100fb575b600080fd5b6100846004803603606081101561007157600080fd5b5080359060208101359060400135610118565b60408051918252519081900360200190f35b6100b9600480360360408110156100ac57600080fd5b50803590602001356101ef565b6040805192835260208301919091528051918290030190f35b610084600480360360608110156100e857600080fd5b5080359060208101359060400135610264565b6100846004803603602081101561011157600080fd5b503561028c565b600081831061012657600080fd5b60006101318361028c565b905082607f82116101455760009150610156565b607e199091019060001901811c6001015b84156101d85760006101678661028c565b6001019050600081610100039050600083838a901c838a901b018161018857fe5b0490508483111561019c578483031b6101a1565b8285031c5b948501946000806101b2838a6101ef565b91509150808a0399508a8211156101ca5760018a0399505b509098039750610156915050565b8386816101e157fe5b048301925050509392505050565b6fffffffffffffffffffffffffffffffff828116828216818102808416608096871c92830280861696881c94850280871693891c939093019690960180881b91909101976fffffffffffffffffffffffffffffffff199390940292831695871c91871c9290941691909101019190931c010190565b600080600061027386866101ef565b91509150610282828286610118565b9695505050505050565b600080821161029a57600080fd5b600160801b82106102ad57608091821c91015b6801000000000000000082106102c557604091821c91015b64010000000082106102d957602091821c91015b6201000082106102eb57601091821c91015b61010082106102fc57600891821c91015b6010821061030c57600491821c91015b6004821061031c57600291821c91015b6002821061032c57600191821c91015b91905056fea265627a7a72315820cb544e77951b5b01c6bca5b9156066d3acf087207ccdc38a56236f7faf97eaca64736f6c63430005110032",
  "source": "pragma solidity ^0.5.17;\r\n\r\n\r\nlibrary Div {\r\n    \r\nfunction mulDiv (uint x, uint y, uint z)\r\npublic pure returns (uint)\r\n{\r\n  (uint l, uint h) = fullMul (x, y);\r\n  return fullDiv (l, h, z);\r\n}\r\n\r\nfunction fullMul (uint x, uint y)\r\npublic pure returns (uint l, uint h)\r\n{\r\n  uint xl = uint128 (x); uint xh = x >> 128;\r\n  uint yl = uint128 (y); uint yh = y >> 128;\r\n  uint xlyl = xl * yl; uint xlyh = xl * yh;\r\n  uint xhyl = xh * yl; uint xhyh = xh * yh;\r\n\r\n  uint ll = uint128 (xlyl);\r\n  uint lh = (xlyl >> 128) + uint128 (xlyh) + uint128 (xhyl);\r\n  uint hl = uint128 (xhyh) + (xlyh >> 128) + (xhyl >> 128);\r\n  uint hh = (xhyh >> 128);\r\n  l = ll + (lh << 128);\r\n  h = (lh >> 128) + hl + (hh << 128);\r\n}\r\n \r\nfunction fullDiv (uint l, uint h, uint z)\r\npublic pure returns (uint r) {\r\n  require (h < z);\r\n  uint zShift = mostSignificantBit (z);\r\n  uint shiftedZ = z;\r\n  if (zShift <= 127) zShift = 0;\r\n  else\r\n  {\r\n    zShift -= 127;\r\n    shiftedZ = (shiftedZ - 1 >> zShift) + 1;\r\n  }\r\n  while (h > 0)\r\n  {\r\n    uint lShift = mostSignificantBit (h) + 1;\r\n    uint hShift = 256 - lShift;\r\n    uint e = ((h << hShift) + (l >> lShift)) / shiftedZ;\r\n    if (lShift > zShift) e <<= (lShift - zShift);\r\n    else e >>= (zShift - lShift);\r\n    r += e;\r\n    (uint tl, uint th) = fullMul (e, z);\r\n    h -= th;\r\n    if (tl > l) h -= 1;\r\n    l -= tl;\r\n  }\r\n  r += l / z;\r\n}\r\n\r\nfunction mostSignificantBit (uint x) public pure returns (uint r) {\r\n  require (x > 0);\r\n  if (x >= 2**128) { x >>= 128; r += 128; }\r\n  if (x >= 2**64) { x >>= 64; r += 64; }\r\n  if (x >= 2**32) { x >>= 32; r += 32; }\r\n  if (x >= 2**16) { x >>= 16; r += 16; }\r\n  if (x >= 2**8) { x >>= 8; r += 8; }\r\n  if (x >= 2**4) { x >>= 4; r += 4; }\r\n  if (x >= 2**2) { x >>= 2; r += 2; }\r\n  if (x >= 2**1) { x >>= 1; r += 1; }\r\n}\r\n\r\n\r\n}",
  "sourcePath": "C:\\Users\\Samsung\\code\\dnp\\Div.sol",
  "compiler": {
    "name": "solc",
    "version": "0.5.17+commit.d19bba13.Emscripten.clang"
  },
  "schemaVersion": "3.3.3",
  "updatedAt": "2021-05-31T16:54:55.087Z",
  "networkType": "ethereum",
  "devdoc": {
    "methods": {}
  },
  "userdoc": {
    "methods": {}
  }
}