{
	"data": {
		"bytecode": {
			"linkReferences": {},
			"object": "60806040526001805433600160a060020a031991821681179092556002805490911690911790556143bd806100356000396000f3006080604052600436106102d15763ffffffff60e060020a60003504166301ffc9a781146102d6578063025313a21461030c57806306fdde031461033d57806307ecec3e146103c7578063081812fc146103ee578063095ea7b3146104065780631080f2511461042c578063133cbe3a1461044757806318160ddd146104685780631c07cac51461048f5780631cc69ac1146104a45780631d4b11e4146104cb5780631e375901146105475780631e4c77361461056857806323b872dd146105a05780632972b0f0146105ca57806329ffab3b146105ee5780632f745c591461060f578063313ce56714610633578063341f13f21461064857806335e64aaa1461066957806342842e0e14610690578063439fab91146106ba5780634c4bf936146106da5780634dad9003146106f55780634f558e791461072d5780635a3f2672146107455780635c36b186146107665780636087de1b1461077b57806361a822f91461079c5780636352211e146107bd57806365181ad3146107d557806365937ab9146108075780636914db601461082b5780636fb7e5881461084357806370a082311461085e578063721d7d8e1461087f57806372554ff5146108945780637284e416146108f45780637efd91121461090957806384b800041461093a5780638668a4161461094f578063881eeaa514610987578063885363eb146109cc5780638da5cb5b14610a865780638de74aa114610a9b57806395d89b4114610abc5780639d40b85014610ad1578063a22cb46514610ae9578063a8d8812714610b0f578063b0b02c6014610b2a578063b88d4fde14610b4e578063c2cf1cdc14610b87578063ca8a2c0814610b9c578063d4dd159414610bd4578063e387d31a14610bfc578063e985e9c514610c11578063eca4742a146103ee578063ef1db76214610c38578063f2fde38b14610c64578063f5f83a6114610c85578063f9cbec4314610cb4578063fd7a1b0014610cd2575b600080fd5b3480156102e257600080fd5b506102f8600160e060020a031960043516610cf3565b604080519115158252519081900360200190f35b34801561031857600080fd5b50610321610dac565b60408051600160a060020a039092168252519081900360200190f35b34801561034957600080fd5b50610352610dbb565b6040805160208082528351818301528351919283929083019185019080838360005b8381101561038c578181015183820152602001610374565b50505050905090810190601f1680156103b95780820380516001836020036101000a031916815260200191505b509250505060405180910390f35b3480156103d357600080fd5b506102f8600160a060020a0360043581169060243516610e52565b3480156103fa57600080fd5b50610321600435610e72565b34801561041257600080fd5b5061042a600160a060020a0360043516602435610e7d565b005b34801561043857600080fd5b50610321600435602435610f48565b34801561045357600080fd5b5061042a600160a060020a0360043516610f5b565b34801561047457600080fd5b5061047d610feb565b60408051918252519081900360200190f35b34801561049b57600080fd5b5061042a610ffa565b3480156104b057600080fd5b5061042a600435602435600160a060020a036044351661124c565b3480156104d757600080fd5b506104f760246004803582810192908201359181359182019101356112fc565b60408051602080825283518183015283519192839290830191858101910280838360005b8381101561053357818101518382015260200161051b565b505050509050019250505060405180910390f35b34801561055357600080fd5b5061047d600160a060020a0360043516611453565b34801561057457600080fd5b5061042a6024600480358281019290820135918135808301929082013591604435918201910135611465565b3480156105ac57600080fd5b5061042a600160a060020a0360043581169060243516604435611597565b3480156105d657600080fd5b506102f8600160a060020a0360043516602435611641565b3480156105fa57600080fd5b506102f8600160a060020a036004351661164d565b34801561061b57600080fd5b5061047d600160a060020a0360043516602435611662565b34801561063f57600080fd5b5061047d6116d9565b34801561065457600080fd5b5061042a600160a060020a03600435166116de565b34801561067557600080fd5b5061042a600435602435600160a060020a0360443516611860565b34801561069c57600080fd5b5061042a600160a060020a036004358116906024351660443561189a565b3480156106c657600080fd5b5061042a60048035602481019101356118b8565b3480156106e657600080fd5b506103526004356024356119ac565b34801561070157600080fd5b5061042a6024600480358281019290820135918135918201910135600160a060020a03604435166119c0565b34801561073957600080fd5b506102f8600435611ae5565b34801561075157600080fd5b506104f7600160a060020a0360043516611af0565b34801561077257600080fd5b5061042a611b5c565b34801561078757600080fd5b506102f8600160a060020a0360043516611b70565b3480156107a857600080fd5b5061042a600160a060020a0360043516611b85565b3480156107c957600080fd5b50610321600435611ccb565b3480156107e157600080fd5b506107ea611cd6565b60408051600160e060020a03199092168252519081900360200190f35b34801561081357600080fd5b506102f8600160a060020a0360043516602435611d0b565b34801561083757600080fd5b50610352600435611d17565b34801561084f57600080fd5b5061047d600435602435611d22565b34801561086a57600080fd5b5061047d600160a060020a0360043516611d2e565b34801561088b57600080fd5b50610321611d39565b3480156108a057600080fd5b506040805160206004803580820135838102808601850190965280855261042a9536959394602494938501929182918501908490808284375094975050509235600160a060020a03169350611d4892505050565b34801561090057600080fd5b50610352611d7d565b34801561091557600080fd5b50610921600435611dde565b6040805192835260208301919091528051918290030190f35b34801561094657600080fd5b50610321611df4565b34801561095b57600080fd5b5061042a6024600480358281019290820135918135918201910135600160a060020a0360443516611e03565b34801561099357600080fd5b5061047d6024600480358281019290820135918135808301929082013591600160a060020a036044351691606435908101910135611ed7565b3480156109d857600080fd5b506109ed600160a060020a0360043516611f76565b604051808060200180602001838103835285818151815260200191508051906020019060200280838360005b83811015610a31578181015183820152602001610a19565b50505050905001838103825284818151815260200191508051906020019060200280838360005b83811015610a70578181015183820152602001610a58565b5050505090500194505050505060405180910390f35b348015610a9257600080fd5b5061032161208c565b348015610aa757600080fd5b5061042a600160a060020a036004351661209b565b348015610ac857600080fd5b50610352612149565b348015610add57600080fd5b506103216004356121aa565b348015610af557600080fd5b5061042a600160a060020a036004351660243515156121c5565b348015610b1b57600080fd5b506102f86004356024356121d3565b348015610b3657600080fd5b5061042a600435600160a060020a03602435166121df565b348015610b5a57600080fd5b5061042a600160a060020a03600480358216916024803590911691604435916064359081019101356122d6565b348015610b9357600080fd5b5061042a61231c565b348015610ba857600080fd5b5061047d6024600480358281019290820135918135918201910135600160a060020a0360443516612699565b348015610be057600080fd5b5061042a60048035906024803591604435918201910135612718565b348015610c0857600080fd5b50610321612753565b348015610c1d57600080fd5b506102f8600160a060020a0360043581169060243516612762565b348015610c4457600080fd5b5061042a600160a060020a0360043581169060243516604435151561276e565b348015610c7057600080fd5b5061042a600160a060020a03600435166128d8565b348015610c9157600080fd5b5061042a6024600480358281019290820135918135918201910135604435612974565b348015610cc057600080fd5b5061042a600435602435604435612b91565b348015610cde57600080fd5b5061042a600160a060020a0360043516612cda565b6000600160e060020a03198083161415610d0f57506000610da7565b600160e060020a031982167f01ffc9a7000000000000000000000000000000000000000000000000000000001480610d705750600160e060020a031982167f7c0633c600000000000000000000000000000000000000000000000000000000145b80610da45750600160e060020a031982167f80ac58cd00000000000000000000000000000000000000000000000000000000145b90505b919050565b600154600160a060020a031681565b60038054604080516020601f6002600019610100600188161502019095169490940493840181900481028201810190925282815260609390929091830182828015610e475780601f10610e1c57610100808354040283529160200191610e47565b820191906000526020600020905b815481529060010190602001808311610e2a57829003601f168201915b505050505090505b90565b601260209081526000928352604080842090915290825290205460ff1681565b6000610da482612e5a565b6000610e8882612e75565b905033600160a060020a0382161480610ea65750610ea63382612e90565b1515610eb157600080fd5b600160a060020a038381169082161415610eca57600080fd5b82600160a060020a0316610edd83612e5a565b600160a060020a031614610f43576000828152600c60205260408082208054600160a060020a031916600160a060020a0387811691821790925591518593918516917f8c5be1e5ebec7d5bd14f71427d1e84f3dd0314c0f7b2291e5b200ac8c7c3b92591a45b505050565b6000610f548383612ebe565b9392505050565b600154600160a060020a0316331480610f795750610f793382612e90565b1515610fcf576040805160e560020a62461bcd02815260206004820152601160248201527f556e617574686f72697a65642075736572000000000000000000000000000000604482015290519081900360640190fd5b600160a060020a03166000908152600d60205260409020429055565b6000610ff5612ed2565b905090565b3360009081526014602052604081205460ff161515611089576040805160e560020a62461bcd02815260206004820152602b60248201527f556e72656769737465722042616c616e63653a3a5468652075736572206e6f7460448201527f2072656769737465726564000000000000000000000000000000000000000000606482015290519081900360840190fd5b336000818152601460209081526040808320805460ff1916905560135481517f70a0823100000000000000000000000000000000000000000000000000000000815260048101959095529051600160a060020a03909116936370a082319360248083019493928390030190829087803b15801561110557600080fd5b505af1158015611119573d6000803e3d6000fd5b505050506040513d602081101561112f57600080fd5b5051601354604080517fd3ce77fe000000000000000000000000000000000000000000000000000000008152336004820152602481018490529051929350600160a060020a039091169163d3ce77fe916044808201926020929091908290030181600087803b1580156111a157600080fd5b505af11580156111b5573d6000803e3d6000fd5b505050506040513d60208110156111cb57600080fd5b50511515611249576040805160e560020a62461bcd02815260206004820152602c60248201527f556e72656769737465722042616c616e63653a3a436f756c64206e6f7420646560448201527f7374726f7920746f6b656e730000000000000000000000000000000000000000606482015290519081900360840190fd5b50565b600154600160a060020a031633148061127457503360009081526011602052604090205460ff165b15156112de576040805160e560020a62461bcd02815260206004820152603a602482015260008051602061433283398151915260448201527f20627920616e20617574686f72697a6564206465706c6f796572000000000000606482015290519081900360840190fd5b6112f16112eb8484612ed8565b82612f92565b610f43600082612ffb565b606080600080861161135a576040805160e560020a62461bcd02815260206004820152602960248201526000805160206143528339815191526044820152600080516020614372833981519152606482015290519081900360840190fd5b8584146113b3576040805160e560020a62461bcd02815260206004820152602b60248201526000805160206142f28339815191526044820152600080516020614312833981519152606482015290519081900360840190fd5b6040805187815260208089028201019091528680156113dc578160200160208202803883390190505b509150600090505b858110156114495761141c8787838181106113fb57fe5b90506020020135868684818110151561141057fe5b90506020020135612ebe565b828281518110151561142a57fe5b600160a060020a039092166020928302909101909101526001016113e4565b5095945050505050565b600d6020526000908152604090205481565b60008086116114c0576040805160e560020a62461bcd02815260206004820152602960248201526000805160206143528339815191526044820152600080516020614372833981519152606482015290519081900360840190fd5b858414611519576040805160e560020a62461bcd02815260206004820152602b60248201526000805160206142f28339815191526044820152600080516020614312833981519152606482015290519081900360840190fd5b5060005b8581101561158e5761158687878381811061153457fe5b90506020020135868684818110151561154957fe5b9050602002013585858080601f01602080910402602001604051908101604052809392919081815260200183838082843750613172945050505050565b60010161151d565b50505050505050565b601054600160a060020a0383811691161415611623576040805160e560020a62461bcd02815260206004820152602f60248201527f457374617465526567697374727920756e73616665207472616e73666572732060448201527f617265206e6f7420616c6c6f7765640000000000000000000000000000000000606482015290519081900360840190fd5b610f438383836020604051908101604052806000815250600061331f565b6000610f548383613352565b60116020526000908152604090205460ff1681565b600160a060020a038216600090815260076020526040812054821061168657600080fd5b6f8000000000000000000000000000000082106116a257600080fd5b600160a060020a03831660009081526007602052604090208054839081106116c657fe5b9060005260206000200154905092915050565b600090565b600154600160a060020a03163314611742576040805160e560020a62461bcd028152602060048201526033602482015260008051602061433283398151915260448201526000805160206142d2833981519152606482015290519081900360840190fd5b600160a060020a03811615156117a2576040805160e560020a62461bcd02815260206004820152600f60248201527f696e76616c696420616464726573730000000000000000000000000000000000604482015290519081900360640190fd5b600160a060020a03811660009081526011602052604090205460ff1615611813576040805160e560020a62461bcd02815260206004820152601d60248201527f6164647265737320697320616c726561647920617574686f72697a6564000000604482015290519081900360640190fd5b600160a060020a038116600081815260116020526040808220805460ff191660011790555133917f9e237638dcd1b2be1fc623ab6a47409b34dc8a62196448dd2d6b9045b2c3315791a350565b600061186c8484612ed8565b905061189461187a82612e75565b83836020604051908101604052806000815250600161331f565b50505050565b610f438383836020604051908101604052806000815250600161331f565b6040805180820190915260118082527f446563656e7472616c616e64204c414e4400000000000000000000000000000060209092019182526118fc916003916141ff565b506040805180820190915260048082527f4c414e4400000000000000000000000000000000000000000000000000000000602090920191825261193f91816141ff565b506040805160608101825260338082527f436f6e747261637420746861742073746f7265732074686520446563656e7472602083019081527f616c616e64204c414e44207265676973747279000000000000000000000000009290930191909152610f43916005916141ff565b6060610f546119bb8484612ed8565b6133d0565b600080808611611a1c576040805160e560020a62461bcd02815260206004820152602960248201526000805160206143528339815191526044820152600080516020614372833981519152606482015290519081900360840190fd5b858414611a75576040805160e560020a62461bcd02815260206004820152602b60248201526000805160206142f28339815191526044820152600080516020614312833981519152606482015290519081900360840190fd5b600091505b8582101561158e57611ab2878784818110611a9157fe5b905060200201358686858181101515611aa657fe5b90506020020135612ed8565b9050611ada611ac082612e75565b84836020604051908101604052806000815250600161331f565b600190910190611a7a565b6000610da48261364a565b600160a060020a038116600090815260076020908152604091829020805483518184028101840190945280845260609392830182828015611b5057602002820191906000526020600020905b815481526020019060010190808311611b3c575b50505050509050919050565b336000908152600d60205260409020429055565b60146020526000908152604090205460ff1681565b600154600160a060020a03163314611be9576040805160e560020a62461bcd028152602060048201526033602482015260008051602061433283398151915260448201526000805160206142d2833981519152606482015290519081900360840190fd5b600160a060020a0381161515611c6f576040805160e560020a62461bcd02815260206004820152602a60248201527f4e6577206c616e6442616c616e63652073686f756c64206e6f74206265207a6560448201527f726f206164647265737300000000000000000000000000000000000000000000606482015290519081900360840190fd5b601354604051600160a060020a038084169216907f72d675e4d2f5ce2deafcb203f4dacdeee8be536626817bc87833e716ef73942d90600090a360138054600160a060020a031916600160a060020a0392909216919091179055565b6000610da482612e75565b604080517f6765744d657461646174612875696e74323536290000000000000000000000008152905190819003601401902081565b6000610f548383613667565b6060610da4826133d0565b6000610f548383612ed8565b6000610da4826136e6565b600054600160a060020a031681565b60005b8251811015610f4357611d758382815181101515611d6557fe5b90602001906020020151836121df565b600101611d4b565b60058054604080516020601f6002600019610100600188161502019095169490940493840181900481028201810190925282815260609390929091830182828015610e475780601f10610e1c57610100808354040283529160200191610e47565b600080611dea83613701565b915091505b915091565b601354600160a060020a031681565b600154600090600160a060020a0316331480611e2e57503360009081526011602052604090205460ff165b1515611e98576040805160e560020a62461bcd02815260206004820152603a602482015260008051602061433283398151915260448201527f20627920616e20617574686f72697a6564206465706c6f796572000000000000606482015290519081900360840190fd5b5060005b84811015611ecf57611ebc611eb6878784818110611a9157fe5b83612f92565b611ec7600083612ffb565b600101611e9c565b505050505050565b6000611f6a8888808060200260200160405190810160405280939291908181526020018383602002808284375050604080516020808e0282810182019093528d82529095508d94508c93508392508501908490808284375050604080516020601f8c018190048102820181019092528a81528c955093508a925089915081908401838280828437506137c0945050505050565b98975050505050505050565b600160a060020a0381166000908152600760209081526040808320548151818152818402810190930190915260609283928391829181908190868015611fc6578160200160208202803883390190505b50945085604051908082528060200260200182016040528015611ff3578160200160208202803883390190505b509350600090505b8581101561207d57600160a060020a0389166000908152600760205260409020805461203c91908390811061202c57fe5b9060005260206000200154613701565b86519194509250839086908390811061205157fe5b602090810290910101528351829085908390811061206b57fe5b60209081029091010152600101611ffb565b50929791965090945050505050565b600254600160a060020a031681565b600154600160a060020a031633146120ff576040805160e560020a62461bcd028152602060048201526033602482015260008051602061433283398151915260448201526000805160206142d2833981519152606482015290519081900360840190fd5b60108054600160a060020a031916600160a060020a0383169081179091556040517f5b3ad80e09ce4c88735037542891c02fdc63b85e96a579d9260a403153c2775590600090a250565b60048054604080516020601f6002600019610100600188161502019095169490940493840181900481028201810190925282815260609390929091830182828015610e475780601f10610e1c57610100808354040283529160200191610e47565b600f60205260009081526040902054600160a060020a031681565b6121cf8282613a93565b5050565b6000610f548383613b21565b8160006121eb82612e75565b90506121f73383613352565b806122255750600160a060020a038116600090815260126020908152604080832033845290915290205460ff165b151561227b576040805160e560020a62461bcd02815260206004820152601160248201527f756e617574686f72697a65642075736572000000000000000000000000000000604482015290519081900360640190fd5b6000848152600f60205260408082208054600160a060020a031916600160a060020a0387169081179091559051909186917f9d9dd80a56a16f715df6eb40b771e24ff8cbea6eed9de28473ce0f28fe5602a99190a350505050565b61231585858585858080601f016020809104026020016040519081016040528093929190818152602001838380828437506001945061331f9350505050565b5050505050565b33600090815260146020526040812054819060ff16156123ac576040805160e560020a62461bcd02815260206004820152603060248201527f52656769737465722042616c616e63653a3a546865207573657220697320616c60448201527f7265616479207265676973746572656400000000000000000000000000000000606482015290519081900360840190fd5b601354604080517f70a082310000000000000000000000000000000000000000000000000000000081523360048201529051600160a060020a03909216916370a08231916024808201926020929091908290030181600087803b15801561241257600080fd5b505af1158015612426573d6000803e3d6000fd5b505050506040513d602081101561243c57600080fd5b50519150600082111561255e57601354604080517fd3ce77fe000000000000000000000000000000000000000000000000000000008152336004820152602481018590529051600160a060020a039092169163d3ce77fe916044808201926020929091908290030181600087803b1580156124b657600080fd5b505af11580156124ca573d6000803e3d6000fd5b505050506040513d60208110156124e057600080fd5b5051151561255e576040805160e560020a62461bcd02815260206004820152602a60248201527f52656769737465722042616c616e63653a3a436f756c64206e6f74206465737460448201527f726f7920746f6b656e7300000000000000000000000000000000000000000000606482015290519081900360840190fd5b336000818152601460205260409020805460ff19166001179055612581906136e6565b601354604080517f827f32c0000000000000000000000000000000000000000000000000000000008152336004820152602481018490529051929350600160a060020a039091169163827f32c0916044808201926020929091908290030181600087803b1580156125f157600080fd5b505af1158015612605573d6000803e3d6000fd5b505050506040513d602081101561261b57600080fd5b505115156121cf576040805160e560020a62461bcd02815260206004820152602b60248201527f52656769737465722042616c616e63653a3a436f756c64206e6f742067656e6560448201527f7261746520746f6b656e73000000000000000000000000000000000000000000606482015290519081900360840190fd5b600061270e8686808060200260200160405190810160405280939291908181526020018383602002808284375050604080516020808c0282810182019093528b82529095508b94508a9350839250850190849080828437505060408051602081019091526000815289945092506137c0915050565b9695505050505050565b611894848484848080601f01602080910402602001604051908101604052809392919081815260200183838082843750613172945050505050565b601054600160a060020a031681565b6000610f548383612e90565b600160a060020a0382163314156127f5576040805160e560020a62461bcd02815260206004820152602b60248201527f546865206f70657261746f722073686f756c6420626520646966666572656e7460448201527f2066726f6d206f776e6572000000000000000000000000000000000000000000606482015290519081900360840190fd5b600160a060020a03831633148061281157506128118333612e90565b1515612867576040805160e560020a62461bcd02815260206004820152601160248201527f556e617574686f72697a65642075736572000000000000000000000000000000604482015290519081900360640190fd5b600160a060020a03838116600081815260126020908152604080832094871680845294825291829020805460ff191686151590811790915582519081529151339493927fd79fbfe1644c022b9150727d871532bfcc3e27ffee86fc596a062770ac97b04292908290030190a4505050565b600254600160a060020a031633146128ec57fe5b600254600160a060020a0382811691161415612952576040805160e560020a62461bcd02815260206004820152601b60248201527f43616e6e6f74207472616e7366657220746f20796f757273656c660000000000604482015290519081900360640190fd5b60028054600160a060020a031916600160a060020a0392909216919091179055565b6000808086116129d0576040805160e560020a62461bcd02815260206004820152602960248201526000805160206143528339815191526044820152600080516020614372833981519152606482015290519081900360840190fd5b858414612a29576040805160e560020a62461bcd02815260206004820152602b60248201526000805160206142f28339815191526044820152600080516020614312833981519152606482015290519081900360840190fd5b601054604080517f6352211e0000000000000000000000000000000000000000000000000000000081526004810186905290513392600160a060020a031691636352211e9160248083019260209291908290030181600087803b158015612a8f57600080fd5b505af1158015612aa3573d6000803e3d6000fd5b505050506040513d6020811015612ab957600080fd5b5051600160a060020a031614612b3f576040805160e560020a62461bcd02815260206004820152602f60248201527f596f75206d757374206f776e207468652045737461746520796f752077616e7460448201527f20746f207472616e7366657220746f0000000000000000000000000000000000606482015290519081900360840190fd5b600091505b8582101561158e57612b5b878784818110611a9157fe5b9050612b86612b6982612e75565b601054600160a060020a031683612b7f87613b35565b600161331f565b600190910190612b44565b601054604080517f6352211e0000000000000000000000000000000000000000000000000000000081526004810184905290516000923392600160a060020a0390911691636352211e9160248082019260209290919082900301818887803b158015612bfc57600080fd5b505af1158015612c10573d6000803e3d6000fd5b505050506040513d6020811015612c2657600080fd5b5051600160a060020a031614612cac576040805160e560020a62461bcd02815260206004820152602f60248201527f596f75206d757374206f776e207468652045737461746520796f752077616e7460448201527f20746f207472616e7366657220746f0000000000000000000000000000000000606482015290519081900360840190fd5b612cb68484612ed8565b9050611894612cc482612e75565b601054600160a060020a031683612b7f86613b35565b600154600160a060020a03163314612d3e576040805160e560020a62461bcd028152602060048201526033602482015260008051602061433283398151915260448201526000805160206142d2833981519152606482015290519081900360840190fd5b600160a060020a0381161515612d9e576040805160e560020a62461bcd02815260206004820152600f60248201527f696e76616c696420616464726573730000000000000000000000000000000000604482015290519081900360640190fd5b600160a060020a03811660009081526011602052604090205460ff161515612e10576040805160e560020a62461bcd02815260206004820152601c60248201527f6164647265737320697320616c726561647920666f7262696464656e00000000604482015290519081900360640190fd5b600160a060020a038116600081815260116020526040808220805460ff191690555133917f7883da318e7694f396f400092b07b701a4eccb02aee0d28266adc659cca044da91a350565b6000908152600c6020526040902054600160a060020a031690565b600090815260086020526040902054600160a060020a031690565b600160a060020a039182166000908152600b6020908152604080832093909416825291909152205460ff1690565b6000610f54612ecd8484612ed8565b612e75565b60065490565b600082620f423f19128015612eef5750620f424083125b8015612efe575081620f423f19125b8015612f0c5750620f424082125b1515612f88576040805160e560020a62461bcd02815260206004820152602760248201527f54686520636f6f7264696e617465732073686f756c6420626520696e7369646560448201527f20626f756e647300000000000000000000000000000000000000000000000000606482015290519081900360840190fd5b610f548383613b60565b600082815260086020526040902054600160a060020a031615612fb457600080fd5b612fbe8183613ba1565b8181600160a060020a031660007fddf252ad1be2c89b69c2b068fc378daa952ba7f163c4a11628f55a4df523b3ef60405160405180910390a45050565b600160a060020a03821660009081526014602052604090205460ff16156130b857601354604080517fd3ce77fe000000000000000000000000000000000000000000000000000000008152600160a060020a038581166004830152600160248301529151919092169163d3ce77fe9160448083019260209291908290030181600087803b15801561308b57600080fd5b505af115801561309f573d6000803e3d6000fd5b505050506040513d60208110156130b557600080fd5b50505b600160a060020a03811660009081526014602052604090205460ff16156121cf57601354604080517f827f32c0000000000000000000000000000000000000000000000000000000008152600160a060020a038481166004830152600160248301529151919092169163827f32c09160448083019260209291908290030181600087803b15801561314857600080fd5b505af115801561315c573d6000803e3d6000fd5b505050506040513d602081101561189457600080fd5b60008061317f8585612ed8565b61318881612e75565b600160a060020a031633600160a060020a031614806131ac57506131ac3382613352565b806131bc57506131bc3382613667565b1515613238576040805160e560020a62461bcd02815260206004820152602660248201527f6d73672e73656e646572206973206e6f7420617574686f72697a656420746f2060448201527f7570646174650000000000000000000000000000000000000000000000000000606482015290519081900360840190fd5b6132428686612ed8565b600081815260086020526040902054909350600160a060020a031691506132698385613c2b565b33600160a060020a031682600160a060020a0316847f47c705b9219229ad762fca605f08fb024a3415d0ae78af5d319820c72e510414876040518080602001828103825283818151815260200191508051906020019080838360005b838110156132dd5781810151838201526020016132c5565b50505050905090810190601f16801561330a5780820380516001836020036101000a031916815260200191505b509250505060405180910390a4505050505050565b6000838152600f602052604090208054600160a060020a03191690556133458585612ffb565b6123158585858585613c4a565b600080600160a060020a038416151561336a57600080fd5b61337383612e75565b905080600160a060020a031684600160a060020a0316141561339857600191506133c9565b6133a28185612e90565b806133c6575083600160a060020a03166133bb84612e5a565b600160a060020a0316145b91505b5092915050565b606060006133dd83612e75565b90506133e881613c6d565b80156134025750601054600160a060020a03828116911614155b156135a957604080517f6765744d657461646174612875696e7432353629000000000000000000000000815281519081900360140181207f01ffc9a7000000000000000000000000000000000000000000000000000000008252600160e060020a03191660048201529051600160a060020a038316916301ffc9a79160248083019260209291908290030181600087803b15801561349f57600080fd5b505af11580156134b3573d6000803e3d6000fd5b505050506040513d60208110156134c957600080fd5b5051156135a95780600160a060020a031663a574cea4846040518263ffffffff1660e060020a02815260040180828152602001915050600060405180830381600087803b15801561351957600080fd5b505af115801561352d573d6000803e3d6000fd5b505050506040513d6000823e601f3d908101601f19168201604052602081101561355657600080fd5b81019080805164010000000081111561356e57600080fd5b8201602081018481111561358157600080fd5b815164010000000081118282018710171561359b57600080fd5b509095506136449350505050565b6000838152600a602090815260409182902080548351601f60026000196101006001861615020190931692909204918201849004840281018401909452808452909183018282801561363c5780601f106136115761010080835404028352916020019161363c565b820191906000526020600020905b81548152906001019060200180831161361f57829003601f168201915b505050505091505b50919050565b600090815260086020526040902054600160a060020a0316151590565b60008061367383612e75565b905083600160a060020a031681600160a060020a031614806136ae57506000838152600f6020526040902054600160a060020a038581169116145b806133c65750600160a060020a0380821660009081526012602090815260408083209388168352929052205460ff1691505092915050565b600160a060020a031660009081526007602052604090205490565b60008061370d83613c75565b9092509050620f423f19821380156137275750620f424082125b8015613736575080620f423f19125b80156137445750620f424081125b1515611def576040805160e560020a62461bcd02815260206004820152602760248201527f54686520636f6f7264696e617465732073686f756c6420626520696e7369646560448201527f20626f756e647300000000000000000000000000000000000000000000000000606482015290519081900360840190fd5b600080606060008060008951111515613825576040805160e560020a62461bcd02815260206004820152602960248201526000805160206143528339815191526044820152600080516020614372833981519152606482015290519081900360840190fd5b8751895114613880576040805160e560020a62461bcd02815260206004820152602b60248201526000805160206142f28339815191526044820152600080516020614312833981519152606482015290519081900360840190fd5b601054600160a060020a03161515613908576040805160e560020a62461bcd02815260206004820152602160248201527f546865204573746174652072656769737472792073686f756c6420626520736560448201527f7400000000000000000000000000000000000000000000000000000000000000606482015290519081900360840190fd5b601054604080517fd0def521000000000000000000000000000000000000000000000000000000008152600160a060020a038a811660048301908152602483019384528a5160448401528a51919094169363d0def521938c938c93606490910190602085019080838360005b8381101561398c578181015183820152602001613974565b50505050905090810190601f1680156139b95780820380516001836020036101000a031916815260200191505b509350505050602060405180830381600087803b1580156139d957600080fd5b505af11580156139ed573d6000803e3d6000fd5b505050506040513d6020811015613a0357600080fd5b50519350613a1084613b35565b9250600091505b8851821015613a8657613a588983815181101515613a3157fe5b906020019060200201518984815181101515613a4957fe5b90602001906020020151612ed8565b9050613a7b613a6682612e75565b601054600160a060020a03168386600161331f565b600190910190613a17565b5091979650505050505050565b8015613abc57613aa33383612e90565b15613aad57600080fd5b613ab78233613ccb565b613adb565b613ac63383612e90565b1515613ad157600080fd5b613adb8233613d00565b6040805182151581529051600160a060020a0384169133917f17307eab39ab6107e8899845ad3d59bd9653f200f220920489ca2b5937696c319181900360200190a35050565b6000610f54613b308484612ed8565b61364a565b6040805160208082528183019092526060918082016104008038833950505060208101929092525090565b70010000000000000000000000000000000082026fffffffffffffffffffffffffffffffff19166fffffffffffffffffffffffffffffffff82161792915050565b60008181526008602052604081208054600160a060020a031916600160a060020a038516179055613bd1836136e6565b600160a060020a0384166000908152600760209081526040808320805460018181018355918552838520018790558684526009909252909120829055600654919250613c23919063ffffffff613d3216565b600655505050565b6000828152600a602090815260409091208251610f43928401906141ff565b82613c553382613352565b1515613c6057600080fd5b611ecf8686868686613d45565b6000903b1190565b600080613ca77001000000000000000000000000000000006fffffffffffffffffffffffffffffffff19851604613f9b565b9150613cc46fffffffffffffffffffffffffffffffff8416613f9b565b9050915091565b600160a060020a039081166000908152600b60209081526040808320949093168252929092529020805460ff19166001179055565b600160a060020a039081166000908152600b60209081526040808320949093168252929092529020805460ff19169055565b81810182811015613d3f57fe5b92915050565b600084600160a060020a0381161515613d5d57600080fd5b848680600160a060020a0316613d7283612e75565b600160a060020a03161415613d8657600080fd5b888781600160a060020a0316613d9b82612e75565b600160a060020a031614613dae57600080fd5b600089815260086020526040902054600160a060020a03169550613dd2868a613fd3565b613ddc868a61406c565b613de68a8a613ba1565b888a600160a060020a031687600160a060020a03167fddf252ad1be2c89b69c2b068fc378daa952ba7f163c4a11628f55a4df523b3ef60405160405180910390a4868015613e385750613e388a613c6d565b15613f8e5763150b7a0260e060020a027bffffffffffffffffffffffffffffffffffffffffffffffffffffffff19168a600160a060020a031663150b7a0233898d8d6040518563ffffffff1660e060020a0281526004018085600160a060020a0316600160a060020a0316815260200184600160a060020a0316600160a060020a0316815260200183815260200180602001828103825283818151815260200191508051906020019080838360005b83811015613eff578181015183820152602001613ee7565b50505050905090810190601f168015613f2c5780820380516001836020036101000a031916815260200191505b5095505050505050602060405180830381600087803b158015613f4e57600080fd5b505af1158015613f62573d6000803e3d6000fd5b505050506040513d6020811015613f7857600080fd5b5051600160e060020a03191614613f8e57600080fd5b5050505050505050505050565b60006f80000000000000000000000000000000821615613fcf57506fffffffffffffffffffffffffffffffff198117610da7565b5090565b81600160a060020a0316613fe682612e75565b600160a060020a031614801561401257506000818152600c6020526040902054600160a060020a031615155b156121cf576000818152600c60205260408082208054600160a060020a031916905551829190600160a060020a038516907f8c5be1e5ebec7d5bd14f71427d1e84f3dd0314c0f7b2291e5b200ac8c7c3b925908390a45050565b6000818152600960205260408120549080614097600161408b876136e6565b9063ffffffff6141ed16565b600160a060020a0386166000908152600760205260409020805491935090839081106140bf57fe5b60009182526020808320909101548683526008825260408084208054600160a060020a0319169055600160a060020a038916845260079092529120805491925082918590811061410b57fe5b6000918252602080832090910192909255600160a060020a038716815260079091526040812080548490811061413d57fe5b6000918252602080832090910192909255600160a060020a0387168152600790915260409020805490614174906000198301614279565b50600160a060020a03851660009081526007602052604090205415156141b557600160a060020a03851660009081526007602052604081206141b59161429d565b60008481526009602052604080822082905582825290208390556006546141e390600163ffffffff6141ed16565b6006555050505050565b6000828211156141f957fe5b50900390565b828054600181600116156101000203166002900490600052602060002090601f016020900481019282601f1061424057805160ff191683800117855561426d565b8280016001018555821561426d579182015b8281111561426d578251825591602001919060010190614252565b50613fcf9291506142b7565b815481835581811115610f4357600083815260209020610f439181019083016142b7565b508054600082559060005260206000209081019061124991905b610e4f91905b80821115613fcf57600081556001016142bd5600206279207468652070726f7879206f776e65720000000000000000000000000054686520636f6f7264696e617465732073686f756c642068617665207468652073616d65206c656e677468000000000000000000000000000000000000000000546869732066756e6374696f6e2063616e206f6e6c792062652063616c6c6564596f752073686f756c6420737570706c79206174206c65617374206f6e6520636f6f7264696e6174650000000000000000000000000000000000000000000000a165627a7a72305820331b92d4838a4d37e301801aa7401fed5aceadecb1824c133017eeb7c549c1090029",
			"opcodes": "PUSH1 0x80 PUSH1 0x40 MSTORE PUSH1 0x1 DUP1 SLOAD CALLER PUSH1 0x1 PUSH1 0xA0 PUSH1 0x2 EXP SUB NOT SWAP2 DUP3 AND DUP2 OR SWAP1 SWAP3 SSTORE PUSH1 0x2 DUP1 SLOAD SWAP1 SWAP2 AND SWAP1 SWAP2 OR SWAP1 SSTORE PUSH2 0x43BD DUP1 PUSH2 0x35 PUSH1 0x0 CODECOPY PUSH1 0x0 RETURN STOP PUSH1 0x80 PUSH1 0x40 MSTORE PUSH1 0x4 CALLDATASIZE LT PUSH2 0x2D1 JUMPI PUSH4 0xFFFFFFFF PUSH1 0xE0 PUSH1 0x2 EXP PUSH1 0x0 CALLDATALOAD DIV AND PUSH4 0x1FFC9A7 DUP2 EQ PUSH2 0x2D6 JUMPI DUP1 PUSH4 0x25313A2 EQ PUSH2 0x30C JUMPI DUP1 PUSH4 0x6FDDE03 EQ PUSH2 0x33D JUMPI DUP1 PUSH4 0x7ECEC3E EQ PUSH2 0x3C7 JUMPI DUP1 PUSH4 0x81812FC EQ PUSH2 0x3EE JUMPI DUP1 PUSH4 0x95EA7B3 EQ PUSH2 0x406 JUMPI DUP1 PUSH4 0x1080F251 EQ PUSH2 0x42C JUMPI DUP1 PUSH4 0x133CBE3A EQ PUSH2 0x447 JUMPI DUP1 PUSH4 0x18160DDD EQ PUSH2 0x468 JUMPI DUP1 PUSH4 0x1C07CAC5 EQ PUSH2 0x48F JUMPI DUP1 PUSH4 0x1CC69AC1 EQ PUSH2 0x4A4 JUMPI DUP1 PUSH4 0x1D4B11E4 EQ PUSH2 0x4CB JUMPI DUP1 PUSH4 0x1E375901 EQ PUSH2 0x547 JUMPI DUP1 PUSH4 0x1E4C7736 EQ PUSH2 0x568 JUMPI DUP1 PUSH4 0x23B872DD EQ PUSH2 0x5A0 JUMPI DUP1 PUSH4 0x2972B0F0 EQ PUSH2 0x5CA JUMPI DUP1 PUSH4 0x29FFAB3B EQ PUSH2 0x5EE JUMPI DUP1 PUSH4 0x2F745C59 EQ PUSH2 0x60F JUMPI DUP1 PUSH4 0x313CE567 EQ PUSH2 0x633 JUMPI DUP1 PUSH4 0x341F13F2 EQ PUSH2 0x648 JUMPI DUP1 PUSH4 0x35E64AAA EQ PUSH2 0x669 JUMPI DUP1 PUSH4 0x42842E0E EQ PUSH2 0x690 JUMPI DUP1 PUSH4 0x439FAB91 EQ PUSH2 0x6BA JUMPI DUP1 PUSH4 0x4C4BF936 EQ PUSH2 0x6DA JUMPI DUP1 PUSH4 0x4DAD9003 EQ PUSH2 0x6F5 JUMPI DUP1 PUSH4 0x4F558E79 EQ PUSH2 0x72D JUMPI DUP1 PUSH4 0x5A3F2672 EQ PUSH2 0x745 JUMPI DUP1 PUSH4 0x5C36B186 EQ PUSH2 0x766 JUMPI DUP1 PUSH4 0x6087DE1B EQ PUSH2 0x77B JUMPI DUP1 PUSH4 0x61A822F9 EQ PUSH2 0x79C JUMPI DUP1 PUSH4 0x6352211E EQ PUSH2 0x7BD JUMPI DUP1 PUSH4 0x65181AD3 EQ PUSH2 0x7D5 JUMPI DUP1 PUSH4 0x65937AB9 EQ PUSH2 0x807 JUMPI DUP1 PUSH4 0x6914DB60 EQ PUSH2 0x82B JUMPI DUP1 PUSH4 0x6FB7E588 EQ PUSH2 0x843 JUMPI DUP1 PUSH4 0x70A08231 EQ PUSH2 0x85E JUMPI DUP1 PUSH4 0x721D7D8E EQ PUSH2 0x87F JUMPI DUP1 PUSH4 0x72554FF5 EQ PUSH2 0x894 JUMPI DUP1 PUSH4 0x7284E416 EQ PUSH2 0x8F4 JUMPI DUP1 PUSH4 0x7EFD9112 EQ PUSH2 0x909 JUMPI DUP1 PUSH4 0x84B80004 EQ PUSH2 0x93A JUMPI DUP1 PUSH4 0x8668A416 EQ PUSH2 0x94F JUMPI DUP1 PUSH4 0x881EEAA5 EQ PUSH2 0x987 JUMPI DUP1 PUSH4 0x885363EB EQ PUSH2 0x9CC JUMPI DUP1 PUSH4 0x8DA5CB5B EQ PUSH2 0xA86 JUMPI DUP1 PUSH4 0x8DE74AA1 EQ PUSH2 0xA9B JUMPI DUP1 PUSH4 0x95D89B41 EQ PUSH2 0xABC JUMPI DUP1 PUSH4 0x9D40B850 EQ PUSH2 0xAD1 JUMPI DUP1 PUSH4 0xA22CB465 EQ PUSH2 0xAE9 JUMPI DUP1 PUSH4 0xA8D88127 EQ PUSH2 0xB0F JUMPI DUP1 PUSH4 0xB0B02C60 EQ PUSH2 0xB2A JUMPI DUP1 PUSH4 0xB88D4FDE EQ PUSH2 0xB4E JUMPI DUP1 PUSH4 0xC2CF1CDC EQ PUSH2 0xB87 JUMPI DUP1 PUSH4 0xCA8A2C08 EQ PUSH2 0xB9C JUMPI DUP1 PUSH4 0xD4DD1594 EQ PUSH2 0xBD4 JUMPI DUP1 PUSH4 0xE387D31A EQ PUSH2 0xBFC JUMPI DUP1 PUSH4 0xE985E9C5 EQ PUSH2 0xC11 JUMPI DUP1 PUSH4 0xECA4742A EQ PUSH2 0x3EE JUMPI DUP1 PUSH4 0xEF1DB762 EQ PUSH2 0xC38 JUMPI DUP1 PUSH4 0xF2FDE38B EQ PUSH2 0xC64 JUMPI DUP1 PUSH4 0xF5F83A61 EQ PUSH2 0xC85 JUMPI DUP1 PUSH4 0xF9CBEC43 EQ PUSH2 0xCB4 JUMPI DUP1 PUSH4 0xFD7A1B00 EQ PUSH2 0xCD2 JUMPI JUMPDEST PUSH1 0x0 DUP1 REVERT JUMPDEST CALLVALUE DUP1 ISZERO PUSH2 0x2E2 JUMPI PUSH1 0x0 DUP1 REVERT JUMPDEST POP PUSH2 0x2F8 PUSH1 0x1 PUSH1 0xE0 PUSH1 0x2 EXP SUB NOT PUSH1 0x4 CALLDATALOAD AND PUSH2 0xCF3 JUMP JUMPDEST PUSH1 0x40 DUP1 MLOAD SWAP2 ISZERO ISZERO DUP3 MSTORE MLOAD SWAP1 DUP2 SWAP1 SUB PUSH1 0x20 ADD SWAP1 RETURN JUMPDEST CALLVALUE DUP1 ISZERO PUSH2 0x318 JUMPI PUSH1 0x0 DUP1 REVERT JUMPDEST POP PUSH2 0x321 PUSH2 0xDAC JUMP JUMPDEST PUSH1 0x40 DUP1 MLOAD PUSH1 0x1 PUSH1 0xA0 PUSH1 0x2 EXP SUB SWAP1 SWAP3 AND DUP3 MSTORE MLOAD SWAP1 DUP2 SWAP1 SUB PUSH1 0x20 ADD SWAP1 RETURN JUMPDEST CALLVALUE DUP1 ISZERO PUSH2 0x349 JUMPI PUSH1 0x0 DUP1 REVERT JUMPDEST POP PUSH2 0x352 PUSH2 0xDBB JUMP JUMPDEST PUSH1 0x40 DUP1 MLOAD PUSH1 0x20 DUP1 DUP3 MSTORE DUP4 MLOAD DUP2 DUP4 ADD MSTORE DUP4 MLOAD SWAP2 SWAP3 DUP4 SWAP3 SWAP1 DUP4 ADD SWAP2 DUP6 ADD SWAP1 DUP1 DUP4 DUP4 PUSH1 0x0 JUMPDEST DUP4 DUP2 LT ISZERO PUSH2 0x38C JUMPI DUP2 DUP2 ADD MLOAD DUP4 DUP3 ADD MSTORE PUSH1 0x20 ADD PUSH2 0x374 JUMP JUMPDEST POP POP POP POP SWAP1 POP SWAP1 DUP2 ADD SWAP1 PUSH1 0x1F AND DUP1 ISZERO PUSH2 0x3B9 JUMPI DUP1 DUP3 SUB DUP1 MLOAD PUSH1 0x1 DUP4 PUSH1 0x20 SUB PUSH2 0x100 EXP SUB NOT AND DUP2 MSTORE PUSH1 0x20 ADD SWAP2 POP JUMPDEST POP SWAP3 POP POP POP PUSH1 0x40 MLOAD DUP1 SWAP2 SUB SWAP1 RETURN JUMPDEST CALLVALUE DUP1 ISZERO PUSH2 0x3D3 JUMPI PUSH1 0x0 DUP1 REVERT JUMPDEST POP PUSH2 0x2F8 PUSH1 0x1 PUSH1 0xA0 PUSH1 0x2 EXP SUB PUSH1 0x4 CALLDATALOAD DUP2 AND SWAP1 PUSH1 0x24 CALLDATALOAD AND PUSH2 0xE52 JUMP JUMPDEST CALLVALUE DUP1 ISZERO PUSH2 0x3FA JUMPI PUSH1 0x0 DUP1 REVERT JUMPDEST POP PUSH2 0x321 PUSH1 0x4 CALLDATALOAD PUSH2 0xE72 JUMP JUMPDEST CALLVALUE DUP1 ISZERO PUSH2 0x412 JUMPI PUSH1 0x0 DUP1 REVERT JUMPDEST POP PUSH2 0x42A PUSH1 0x1 PUSH1 0xA0 PUSH1 0x2 EXP SUB PUSH1 0x4 CALLDATALOAD AND PUSH1 0x24 CALLDATALOAD PUSH2 0xE7D JUMP JUMPDEST STOP JUMPDEST CALLVALUE DUP1 ISZERO PUSH2 0x438 JUMPI PUSH1 0x0 DUP1 REVERT JUMPDEST POP PUSH2 0x321 PUSH1 0x4 CALLDATALOAD PUSH1 0x24 CALLDATALOAD PUSH2 0xF48 JUMP JUMPDEST CALLVALUE DUP1 ISZERO PUSH2 0x453 JUMPI PUSH1 0x0 DUP1 REVERT JUMPDEST POP PUSH2 0x42A PUSH1 0x1 PUSH1 0xA0 PUSH1 0x2 EXP SUB PUSH1 0x4 CALLDATALOAD AND PUSH2 0xF5B JUMP JUMPDEST CALLVALUE DUP1 ISZERO PUSH2 0x474 JUMPI PUSH1 0x0 DUP1 REVERT JUMPDEST POP PUSH2 0x47D PUSH2 0xFEB JUMP JUMPDEST PUSH1 0x40 DUP1 MLOAD SWAP2 DUP3 MSTORE MLOAD SWAP1 DUP2 SWAP1 SUB PUSH1 0x20 ADD SWAP1 RETURN JUMPDEST CALLVALUE DUP1 ISZERO PUSH2 0x49B JUMPI PUSH1 0x0 DUP1 REVERT JUMPDEST POP PUSH2 0x42A PUSH2 0xFFA JUMP JUMPDEST CALLVALUE DUP1 ISZERO PUSH2 0x4B0 JUMPI PUSH1 0x0 DUP1 REVERT JUMPDEST POP PUSH2 0x42A PUSH1 0x4 CALLDATALOAD PUSH1 0x24 CALLDATALOAD PUSH1 0x1 PUSH1 0xA0 PUSH1 0x2 EXP SUB PUSH1 0x44 CALLDATALOAD AND PUSH2 0x124C JUMP JUMPDEST CALLVALUE DUP1 ISZERO PUSH2 0x4D7 JUMPI PUSH1 0x0 DUP1 REVERT JUMPDEST POP PUSH2 0x4F7 PUSH1 0x24 PUSH1 0x4 DUP1 CALLDATALOAD DUP3 DUP2 ADD SWAP3 SWAP1 DUP3 ADD CALLDATALOAD SWAP2 DUP2 CALLDATALOAD SWAP2 DUP3 ADD SWAP2 ADD CALLDATALOAD PUSH2 0x12FC JUMP JUMPDEST PUSH1 0x40 DUP1 MLOAD PUSH1 0x20 DUP1 DUP3 MSTORE DUP4 MLOAD DUP2 DUP4 ADD MSTORE DUP4 MLOAD SWAP2 SWAP3 DUP4 SWAP3 SWAP1 DUP4 ADD SWAP2 DUP6 DUP2 ADD SWAP2 MUL DUP1 DUP4 DUP4 PUSH1 0x0 JUMPDEST DUP4 DUP2 LT ISZERO PUSH2 0x533 JUMPI DUP2 DUP2 ADD MLOAD DUP4 DUP3 ADD MSTORE PUSH1 0x20 ADD PUSH2 0x51B JUMP JUMPDEST POP POP POP POP SWAP1 POP ADD SWAP3 POP POP POP PUSH1 0x40 MLOAD DUP1 SWAP2 SUB SWAP1 RETURN JUMPDEST CALLVALUE DUP1 ISZERO PUSH2 0x553 JUMPI PUSH1 0x0 DUP1 REVERT JUMPDEST POP PUSH2 0x47D PUSH1 0x1 PUSH1 0xA0 PUSH1 0x2 EXP SUB PUSH1 0x4 CALLDATALOAD AND PUSH2 0x1453 JUMP JUMPDEST CALLVALUE DUP1 ISZERO PUSH2 0x574 JUMPI PUSH1 0x0 DUP1 REVERT JUMPDEST POP PUSH2 0x42A PUSH1 0x24 PUSH1 0x4 DUP1 CALLDATALOAD DUP3 DUP2 ADD SWAP3 SWAP1 DUP3 ADD CALLDATALOAD SWAP2 DUP2 CALLDATALOAD DUP1 DUP4 ADD SWAP3 SWAP1 DUP3 ADD CALLDATALOAD SWAP2 PUSH1 0x44 CALLDATALOAD SWAP2 DUP3 ADD SWAP2 ADD CALLDATALOAD PUSH2 0x1465 JUMP JUMPDEST CALLVALUE DUP1 ISZERO PUSH2 0x5AC JUMPI PUSH1 0x0 DUP1 REVERT JUMPDEST POP PUSH2 0x42A PUSH1 0x1 PUSH1 0xA0 PUSH1 0x2 EXP SUB PUSH1 0x4 CALLDATALOAD DUP2 AND SWAP1 PUSH1 0x24 CALLDATALOAD AND PUSH1 0x44 CALLDATALOAD PUSH2 0x1597 JUMP JUMPDEST CALLVALUE DUP1 ISZERO PUSH2 0x5D6 JUMPI PUSH1 0x0 DUP1 REVERT JUMPDEST POP PUSH2 0x2F8 PUSH1 0x1 PUSH1 0xA0 PUSH1 0x2 EXP SUB PUSH1 0x4 CALLDATALOAD AND PUSH1 0x24 CALLDATALOAD PUSH2 0x1641 JUMP JUMPDEST CALLVALUE DUP1 ISZERO PUSH2 0x5FA JUMPI PUSH1 0x0 DUP1 REVERT JUMPDEST POP PUSH2 0x2F8 PUSH1 0x1 PUSH1 0xA0 PUSH1 0x2 EXP SUB PUSH1 0x4 CALLDATALOAD AND PUSH2 0x164D JUMP JUMPDEST CALLVALUE DUP1 ISZERO PUSH2 0x61B JUMPI PUSH1 0x0 DUP1 REVERT JUMPDEST POP PUSH2 0x47D PUSH1 0x1 PUSH1 0xA0 PUSH1 0x2 EXP SUB PUSH1 0x4 CALLDATALOAD AND PUSH1 0x24 CALLDATALOAD PUSH2 0x1662 JUMP JUMPDEST CALLVALUE DUP1 ISZERO PUSH2 0x63F JUMPI PUSH1 0x0 DUP1 REVERT JUMPDEST POP PUSH2 0x47D PUSH2 0x16D9 JUMP JUMPDEST CALLVALUE DUP1 ISZERO PUSH2 0x654 JUMPI PUSH1 0x0 DUP1 REVERT JUMPDEST POP PUSH2 0x42A PUSH1 0x1 PUSH1 0xA0 PUSH1 0x2 EXP SUB PUSH1 0x4 CALLDATALOAD AND PUSH2 0x16DE JUMP JUMPDEST CALLVALUE DUP1 ISZERO PUSH2 0x675 JUMPI PUSH1 0x0 DUP1 REVERT JUMPDEST POP PUSH2 0x42A PUSH1 0x4 CALLDATALOAD PUSH1 0x24 CALLDATALOAD PUSH1 0x1 PUSH1 0xA0 PUSH1 0x2 EXP SUB PUSH1 0x44 CALLDATALOAD AND PUSH2 0x1860 JUMP JUMPDEST CALLVALUE DUP1 ISZERO PUSH2 0x69C JUMPI PUSH1 0x0 DUP1 REVERT JUMPDEST POP PUSH2 0x42A PUSH1 0x1 PUSH1 0xA0 PUSH1 0x2 EXP SUB PUSH1 0x4 CALLDATALOAD DUP2 AND SWAP1 PUSH1 0x24 CALLDATALOAD AND PUSH1 0x44 CALLDATALOAD PUSH2 0x189A JUMP JUMPDEST CALLVALUE DUP1 ISZERO PUSH2 0x6C6 JUMPI PUSH1 0x0 DUP1 REVERT JUMPDEST POP PUSH2 0x42A PUSH1 0x4 DUP1 CALLDATALOAD PUSH1 0x24 DUP2 ADD SWAP2 ADD CALLDATALOAD PUSH2 0x18B8 JUMP JUMPDEST CALLVALUE DUP1 ISZERO PUSH2 0x6E6 JUMPI PUSH1 0x0 DUP1 REVERT JUMPDEST POP PUSH2 0x352 PUSH1 0x4 CALLDATALOAD PUSH1 0x24 CALLDATALOAD PUSH2 0x19AC JUMP JUMPDEST CALLVALUE DUP1 ISZERO PUSH2 0x701 JUMPI PUSH1 0x0 DUP1 REVERT JUMPDEST POP PUSH2 0x42A PUSH1 0x24 PUSH1 0x4 DUP1 CALLDATALOAD DUP3 DUP2 ADD SWAP3 SWAP1 DUP3 ADD CALLDATALOAD SWAP2 DUP2 CALLDATALOAD SWAP2 DUP3 ADD SWAP2 ADD CALLDATALOAD PUSH1 0x1 PUSH1 0xA0 PUSH1 0x2 EXP SUB PUSH1 0x44 CALLDATALOAD AND PUSH2 0x19C0 JUMP JUMPDEST CALLVALUE DUP1 ISZERO PUSH2 0x739 JUMPI PUSH1 0x0 DUP1 REVERT JUMPDEST POP PUSH2 0x2F8 PUSH1 0x4 CALLDATALOAD PUSH2 0x1AE5 JUMP JUMPDEST CALLVALUE DUP1 ISZERO PUSH2 0x751 JUMPI PUSH1 0x0 DUP1 REVERT JUMPDEST POP PUSH2 0x4F7 PUSH1 0x1 PUSH1 0xA0 PUSH1 0x2 EXP SUB PUSH1 0x4 CALLDATALOAD AND PUSH2 0x1AF0 JUMP JUMPDEST CALLVALUE DUP1 ISZERO PUSH2 0x772 JUMPI PUSH1 0x0 DUP1 REVERT JUMPDEST POP PUSH2 0x42A PUSH2 0x1B5C JUMP JUMPDEST CALLVALUE DUP1 ISZERO PUSH2 0x787 JUMPI PUSH1 0x0 DUP1 REVERT JUMPDEST POP PUSH2 0x2F8 PUSH1 0x1 PUSH1 0xA0 PUSH1 0x2 EXP SUB PUSH1 0x4 CALLDATALOAD AND PUSH2 0x1B70 JUMP JUMPDEST CALLVALUE DUP1 ISZERO PUSH2 0x7A8 JUMPI PUSH1 0x0 DUP1 REVERT JUMPDEST POP PUSH2 0x42A PUSH1 0x1 PUSH1 0xA0 PUSH1 0x2 EXP SUB PUSH1 0x4 CALLDATALOAD AND PUSH2 0x1B85 JUMP JUMPDEST CALLVALUE DUP1 ISZERO PUSH2 0x7C9 JUMPI PUSH1 0x0 DUP1 REVERT JUMPDEST POP PUSH2 0x321 PUSH1 0x4 CALLDATALOAD PUSH2 0x1CCB JUMP JUMPDEST CALLVALUE DUP1 ISZERO PUSH2 0x7E1 JUMPI PUSH1 0x0 DUP1 REVERT JUMPDEST POP PUSH2 0x7EA PUSH2 0x1CD6 JUMP JUMPDEST PUSH1 0x40 DUP1 MLOAD PUSH1 0x1 PUSH1 0xE0 PUSH1 0x2 EXP SUB NOT SWAP1 SWAP3 AND DUP3 MSTORE MLOAD SWAP1 DUP2 SWAP1 SUB PUSH1 0x20 ADD SWAP1 RETURN JUMPDEST CALLVALUE DUP1 ISZERO PUSH2 0x813 JUMPI PUSH1 0x0 DUP1 REVERT JUMPDEST POP PUSH2 0x2F8 PUSH1 0x1 PUSH1 0xA0 PUSH1 0x2 EXP SUB PUSH1 0x4 CALLDATALOAD AND PUSH1 0x24 CALLDATALOAD PUSH2 0x1D0B JUMP JUMPDEST CALLVALUE DUP1 ISZERO PUSH2 0x837 JUMPI PUSH1 0x0 DUP1 REVERT JUMPDEST POP PUSH2 0x352 PUSH1 0x4 CALLDATALOAD PUSH2 0x1D17 JUMP JUMPDEST CALLVALUE DUP1 ISZERO PUSH2 0x84F JUMPI PUSH1 0x0 DUP1 REVERT JUMPDEST POP PUSH2 0x47D PUSH1 0x4 CALLDATALOAD PUSH1 0x24 CALLDATALOAD PUSH2 0x1D22 JUMP JUMPDEST CALLVALUE DUP1 ISZERO PUSH2 0x86A JUMPI PUSH1 0x0 DUP1 REVERT JUMPDEST POP PUSH2 0x47D PUSH1 0x1 PUSH1 0xA0 PUSH1 0x2 EXP SUB PUSH1 0x4 CALLDATALOAD AND PUSH2 0x1D2E JUMP JUMPDEST CALLVALUE DUP1 ISZERO PUSH2 0x88B JUMPI PUSH1 0x0 DUP1 REVERT JUMPDEST POP PUSH2 0x321 PUSH2 0x1D39 JUMP JUMPDEST CALLVALUE DUP1 ISZERO PUSH2 0x8A0 JUMPI PUSH1 0x0 DUP1 REVERT JUMPDEST POP PUSH1 0x40 DUP1 MLOAD PUSH1 0x20 PUSH1 0x4 DUP1 CALLDATALOAD DUP1 DUP3 ADD CALLDATALOAD DUP4 DUP2 MUL DUP1 DUP7 ADD DUP6 ADD SWAP1 SWAP7 MSTORE DUP1 DUP6 MSTORE PUSH2 0x42A SWAP6 CALLDATASIZE SWAP6 SWAP4 SWAP5 PUSH1 0x24 SWAP5 SWAP4 DUP6 ADD SWAP3 SWAP2 DUP3 SWAP2 DUP6 ADD SWAP1 DUP5 SWAP1 DUP1 DUP3 DUP5 CALLDATACOPY POP SWAP5 SWAP8 POP POP POP SWAP3 CALLDATALOAD PUSH1 0x1 PUSH1 0xA0 PUSH1 0x2 EXP SUB AND SWAP4 POP PUSH2 0x1D48 SWAP3 POP POP POP JUMP JUMPDEST CALLVALUE DUP1 ISZERO PUSH2 0x900 JUMPI PUSH1 0x0 DUP1 REVERT JUMPDEST POP PUSH2 0x352 PUSH2 0x1D7D JUMP JUMPDEST CALLVALUE DUP1 ISZERO PUSH2 0x915 JUMPI PUSH1 0x0 DUP1 REVERT JUMPDEST POP PUSH2 0x921 PUSH1 0x4 CALLDATALOAD PUSH2 0x1DDE JUMP JUMPDEST PUSH1 0x40 DUP1 MLOAD SWAP3 DUP4 MSTORE PUSH1 0x20 DUP4 ADD SWAP2 SWAP1 SWAP2 MSTORE DUP1 MLOAD SWAP2 DUP3 SWAP1 SUB ADD SWAP1 RETURN JUMPDEST CALLVALUE DUP1 ISZERO PUSH2 0x946 JUMPI PUSH1 0x0 DUP1 REVERT JUMPDEST POP PUSH2 0x321 PUSH2 0x1DF4 JUMP JUMPDEST CALLVALUE DUP1 ISZERO PUSH2 0x95B JUMPI PUSH1 0x0 DUP1 REVERT JUMPDEST POP PUSH2 0x42A PUSH1 0x24 PUSH1 0x4 DUP1 CALLDATALOAD DUP3 DUP2 ADD SWAP3 SWAP1 DUP3 ADD CALLDATALOAD SWAP2 DUP2 CALLDATALOAD SWAP2 DUP3 ADD SWAP2 ADD CALLDATALOAD PUSH1 0x1 PUSH1 0xA0 PUSH1 0x2 EXP SUB PUSH1 0x44 CALLDATALOAD AND PUSH2 0x1E03 JUMP JUMPDEST CALLVALUE DUP1 ISZERO PUSH2 0x993 JUMPI PUSH1 0x0 DUP1 REVERT JUMPDEST POP PUSH2 0x47D PUSH1 0x24 PUSH1 0x4 DUP1 CALLDATALOAD DUP3 DUP2 ADD SWAP3 SWAP1 DUP3 ADD CALLDATALOAD SWAP2 DUP2 CALLDATALOAD DUP1 DUP4 ADD SWAP3 SWAP1 DUP3 ADD CALLDATALOAD SWAP2 PUSH1 0x1 PUSH1 0xA0 PUSH1 0x2 EXP SUB PUSH1 0x44 CALLDATALOAD AND SWAP2 PUSH1 0x64 CALLDATALOAD SWAP1 DUP2 ADD SWAP2 ADD CALLDATALOAD PUSH2 0x1ED7 JUMP JUMPDEST CALLVALUE DUP1 ISZERO PUSH2 0x9D8 JUMPI PUSH1 0x0 DUP1 REVERT JUMPDEST POP PUSH2 0x9ED PUSH1 0x1 PUSH1 0xA0 PUSH1 0x2 EXP SUB PUSH1 0x4 CALLDATALOAD AND PUSH2 0x1F76 JUMP JUMPDEST PUSH1 0x40 MLOAD DUP1 DUP1 PUSH1 0x20 ADD DUP1 PUSH1 0x20 ADD DUP4 DUP2 SUB DUP4 MSTORE DUP6 DUP2 DUP2 MLOAD DUP2 MSTORE PUSH1 0x20 ADD SWAP2 POP DUP1 MLOAD SWAP1 PUSH1 0x20 ADD SWAP1 PUSH1 0x20 MUL DUP1 DUP4 DUP4 PUSH1 0x0 JUMPDEST DUP4 DUP2 LT ISZERO PUSH2 0xA31 JUMPI DUP2 DUP2 ADD MLOAD DUP4 DUP3 ADD MSTORE PUSH1 0x20 ADD PUSH2 0xA19 JUMP JUMPDEST POP POP POP POP SWAP1 POP ADD DUP4 DUP2 SUB DUP3 MSTORE DUP5 DUP2 DUP2 MLOAD DUP2 MSTORE PUSH1 0x20 ADD SWAP2 POP DUP1 MLOAD SWAP1 PUSH1 0x20 ADD SWAP1 PUSH1 0x20 MUL DUP1 DUP4 DUP4 PUSH1 0x0 JUMPDEST DUP4 DUP2 LT ISZERO PUSH2 0xA70 JUMPI DUP2 DUP2 ADD MLOAD DUP4 DUP3 ADD MSTORE PUSH1 0x20 ADD PUSH2 0xA58 JUMP JUMPDEST POP POP POP POP SWAP1 POP ADD SWAP5 POP POP POP POP POP PUSH1 0x40 MLOAD DUP1 SWAP2 SUB SWAP1 RETURN JUMPDEST CALLVALUE DUP1 ISZERO PUSH2 0xA92 JUMPI PUSH1 0x0 DUP1 REVERT JUMPDEST POP PUSH2 0x321 PUSH2 0x208C JUMP JUMPDEST CALLVALUE DUP1 ISZERO PUSH2 0xAA7 JUMPI PUSH1 0x0 DUP1 REVERT JUMPDEST POP PUSH2 0x42A PUSH1 0x1 PUSH1 0xA0 PUSH1 0x2 EXP SUB PUSH1 0x4 CALLDATALOAD AND PUSH2 0x209B JUMP JUMPDEST CALLVALUE DUP1 ISZERO PUSH2 0xAC8 JUMPI PUSH1 0x0 DUP1 REVERT JUMPDEST POP PUSH2 0x352 PUSH2 0x2149 JUMP JUMPDEST CALLVALUE DUP1 ISZERO PUSH2 0xADD JUMPI PUSH1 0x0 DUP1 REVERT JUMPDEST POP PUSH2 0x321 PUSH1 0x4 CALLDATALOAD PUSH2 0x21AA JUMP JUMPDEST CALLVALUE DUP1 ISZERO PUSH2 0xAF5 JUMPI PUSH1 0x0 DUP1 REVERT JUMPDEST POP PUSH2 0x42A PUSH1 0x1 PUSH1 0xA0 PUSH1 0x2 EXP SUB PUSH1 0x4 CALLDATALOAD AND PUSH1 0x24 CALLDATALOAD ISZERO ISZERO PUSH2 0x21C5 JUMP JUMPDEST CALLVALUE DUP1 ISZERO PUSH2 0xB1B JUMPI PUSH1 0x0 DUP1 REVERT JUMPDEST POP PUSH2 0x2F8 PUSH1 0x4 CALLDATALOAD PUSH1 0x24 CALLDATALOAD PUSH2 0x21D3 JUMP JUMPDEST CALLVALUE DUP1 ISZERO PUSH2 0xB36 JUMPI PUSH1 0x0 DUP1 REVERT JUMPDEST POP PUSH2 0x42A PUSH1 0x4 CALLDATALOAD PUSH1 0x1 PUSH1 0xA0 PUSH1 0x2 EXP SUB PUSH1 0x24 CALLDATALOAD AND PUSH2 0x21DF JUMP JUMPDEST CALLVALUE DUP1 ISZERO PUSH2 0xB5A JUMPI PUSH1 0x0 DUP1 REVERT JUMPDEST POP PUSH2 0x42A PUSH1 0x1 PUSH1 0xA0 PUSH1 0x2 EXP SUB PUSH1 0x4 DUP1 CALLDATALOAD DUP3 AND SWAP2 PUSH1 0x24 DUP1 CALLDATALOAD SWAP1 SWAP2 AND SWAP2 PUSH1 0x44 CALLDATALOAD SWAP2 PUSH1 0x64 CALLDATALOAD SWAP1 DUP2 ADD SWAP2 ADD CALLDATALOAD PUSH2 0x22D6 JUMP JUMPDEST CALLVALUE DUP1 ISZERO PUSH2 0xB93 JUMPI PUSH1 0x0 DUP1 REVERT JUMPDEST POP PUSH2 0x42A PUSH2 0x231C JUMP JUMPDEST CALLVALUE DUP1 ISZERO PUSH2 0xBA8 JUMPI PUSH1 0x0 DUP1 REVERT JUMPDEST POP PUSH2 0x47D PUSH1 0x24 PUSH1 0x4 DUP1 CALLDATALOAD DUP3 DUP2 ADD SWAP3 SWAP1 DUP3 ADD CALLDATALOAD SWAP2 DUP2 CALLDATALOAD SWAP2 DUP3 ADD SWAP2 ADD CALLDATALOAD PUSH1 0x1 PUSH1 0xA0 PUSH1 0x2 EXP SUB PUSH1 0x44 CALLDATALOAD AND PUSH2 0x2699 JUMP JUMPDEST CALLVALUE DUP1 ISZERO PUSH2 0xBE0 JUMPI PUSH1 0x0 DUP1 REVERT JUMPDEST POP PUSH2 0x42A PUSH1 0x4 DUP1 CALLDATALOAD SWAP1 PUSH1 0x24 DUP1 CALLDATALOAD SWAP2 PUSH1 0x44 CALLDATALOAD SWAP2 DUP3 ADD SWAP2 ADD CALLDATALOAD PUSH2 0x2718 JUMP JUMPDEST CALLVALUE DUP1 ISZERO PUSH2 0xC08 JUMPI PUSH1 0x0 DUP1 REVERT JUMPDEST POP PUSH2 0x321 PUSH2 0x2753 JUMP JUMPDEST CALLVALUE DUP1 ISZERO PUSH2 0xC1D JUMPI PUSH1 0x0 DUP1 REVERT JUMPDEST POP PUSH2 0x2F8 PUSH1 0x1 PUSH1 0xA0 PUSH1 0x2 EXP SUB PUSH1 0x4 CALLDATALOAD DUP2 AND SWAP1 PUSH1 0x24 CALLDATALOAD AND PUSH2 0x2762 JUMP JUMPDEST CALLVALUE DUP1 ISZERO PUSH2 0xC44 JUMPI PUSH1 0x0 DUP1 REVERT JUMPDEST POP PUSH2 0x42A PUSH1 0x1 PUSH1 0xA0 PUSH1 0x2 EXP SUB PUSH1 0x4 CALLDATALOAD DUP2 AND SWAP1 PUSH1 0x24 CALLDATALOAD AND PUSH1 0x44 CALLDATALOAD ISZERO ISZERO PUSH2 0x276E JUMP JUMPDEST CALLVALUE DUP1 ISZERO PUSH2 0xC70 JUMPI PUSH1 0x0 DUP1 REVERT JUMPDEST POP PUSH2 0x42A PUSH1 0x1 PUSH1 0xA0 PUSH1 0x2 EXP SUB PUSH1 0x4 CALLDATALOAD AND PUSH2 0x28D8 JUMP JUMPDEST CALLVALUE DUP1 ISZERO PUSH2 0xC91 JUMPI PUSH1 0x0 DUP1 REVERT JUMPDEST POP PUSH2 0x42A PUSH1 0x24 PUSH1 0x4 DUP1 CALLDATALOAD DUP3 DUP2 ADD SWAP3 SWAP1 DUP3 ADD CALLDATALOAD SWAP2 DUP2 CALLDATALOAD SWAP2 DUP3 ADD SWAP2 ADD CALLDATALOAD PUSH1 0x44 CALLDATALOAD PUSH2 0x2974 JUMP JUMPDEST CALLVALUE DUP1 ISZERO PUSH2 0xCC0 JUMPI PUSH1 0x0 DUP1 REVERT JUMPDEST POP PUSH2 0x42A PUSH1 0x4 CALLDATALOAD PUSH1 0x24 CALLDATALOAD PUSH1 0x44 CALLDATALOAD PUSH2 0x2B91 JUMP JUMPDEST CALLVALUE DUP1 ISZERO PUSH2 0xCDE JUMPI PUSH1 0x0 DUP1 REVERT JUMPDEST POP PUSH2 0x42A PUSH1 0x1 PUSH1 0xA0 PUSH1 0x2 EXP SUB PUSH1 0x4 CALLDATALOAD AND PUSH2 0x2CDA JUMP JUMPDEST PUSH1 0x0 PUSH1 0x1 PUSH1 0xE0 PUSH1 0x2 EXP SUB NOT DUP1 DUP4 AND EQ ISZERO PUSH2 0xD0F JUMPI POP PUSH1 0x0 PUSH2 0xDA7 JUMP JUMPDEST PUSH1 0x1 PUSH1 0xE0 PUSH1 0x2 EXP SUB NOT DUP3 AND PUSH32 0x1FFC9A700000000000000000000000000000000000000000000000000000000 EQ DUP1 PUSH2 0xD70 JUMPI POP PUSH1 0x1 PUSH1 0xE0 PUSH1 0x2 EXP SUB NOT DUP3 AND PUSH32 0x7C0633C600000000000000000000000000000000000000000000000000000000 EQ JUMPDEST DUP1 PUSH2 0xDA4 JUMPI POP PUSH1 0x1 PUSH1 0xE0 PUSH1 0x2 EXP SUB NOT DUP3 AND PUSH32 0x80AC58CD00000000000000000000000000000000000000000000000000000000 EQ JUMPDEST SWAP1 POP JUMPDEST SWAP2 SWAP1 POP JUMP JUMPDEST PUSH1 0x1 SLOAD PUSH1 0x1 PUSH1 0xA0 PUSH1 0x2 EXP SUB AND DUP2 JUMP JUMPDEST PUSH1 0x3 DUP1 SLOAD PUSH1 0x40 DUP1 MLOAD PUSH1 0x20 PUSH1 0x1F PUSH1 0x2 PUSH1 0x0 NOT PUSH2 0x100 PUSH1 0x1 DUP9 AND ISZERO MUL ADD SWAP1 SWAP6 AND SWAP5 SWAP1 SWAP5 DIV SWAP4 DUP5 ADD DUP2 SWAP1 DIV DUP2 MUL DUP3 ADD DUP2 ADD SWAP1 SWAP3 MSTORE DUP3 DUP2 MSTORE PUSH1 0x60 SWAP4 SWAP1 SWAP3 SWAP1 SWAP2 DUP4 ADD DUP3 DUP3 DUP1 ISZERO PUSH2 0xE47 JUMPI DUP1 PUSH1 0x1F LT PUSH2 0xE1C JUMPI PUSH2 0x100 DUP1 DUP4 SLOAD DIV MUL DUP4 MSTORE SWAP2 PUSH1 0x20 ADD SWAP2 PUSH2 0xE47 JUMP JUMPDEST DUP3 ADD SWAP2 SWAP1 PUSH1 0x0 MSTORE PUSH1 0x20 PUSH1 0x0 KECCAK256 SWAP1 JUMPDEST DUP2 SLOAD DUP2 MSTORE SWAP1 PUSH1 0x1 ADD SWAP1 PUSH1 0x20 ADD DUP1 DUP4 GT PUSH2 0xE2A JUMPI DUP3 SWAP1 SUB PUSH1 0x1F AND DUP3 ADD SWAP2 JUMPDEST POP POP POP POP POP SWAP1 POP JUMPDEST SWAP1 JUMP JUMPDEST PUSH1 0x12 PUSH1 0x20 SWAP1 DUP2 MSTORE PUSH1 0x0 SWAP3 DUP4 MSTORE PUSH1 0x40 DUP1 DUP5 KECCAK256 SWAP1 SWAP2 MSTORE SWAP1 DUP3 MSTORE SWAP1 KECCAK256 SLOAD PUSH1 0xFF AND DUP2 JUMP JUMPDEST PUSH1 0x0 PUSH2 0xDA4 DUP3 PUSH2 0x2E5A JUMP JUMPDEST PUSH1 0x0 PUSH2 0xE88 DUP3 PUSH2 0x2E75 JUMP JUMPDEST SWAP1 POP CALLER PUSH1 0x1 PUSH1 0xA0 PUSH1 0x2 EXP SUB DUP3 AND EQ DUP1 PUSH2 0xEA6 JUMPI POP PUSH2 0xEA6 CALLER DUP3 PUSH2 0x2E90 JUMP JUMPDEST ISZERO ISZERO PUSH2 0xEB1 JUMPI PUSH1 0x0 DUP1 REVERT JUMPDEST PUSH1 0x1 PUSH1 0xA0 PUSH1 0x2 EXP SUB DUP4 DUP2 AND SWAP1 DUP3 AND EQ ISZERO PUSH2 0xECA JUMPI PUSH1 0x0 DUP1 REVERT JUMPDEST DUP3 PUSH1 0x1 PUSH1 0xA0 PUSH1 0x2 EXP SUB AND PUSH2 0xEDD DUP4 PUSH2 0x2E5A JUMP JUMPDEST PUSH1 0x1 PUSH1 0xA0 PUSH1 0x2 EXP SUB AND EQ PUSH2 0xF43 JUMPI PUSH1 0x0 DUP3 DUP2 MSTORE PUSH1 0xC PUSH1 0x20 MSTORE PUSH1 0x40 DUP1 DUP3 KECCAK256 DUP1 SLOAD PUSH1 0x1 PUSH1 0xA0 PUSH1 0x2 EXP SUB NOT AND PUSH1 0x1 PUSH1 0xA0 PUSH1 0x2 EXP SUB DUP8 DUP2 AND SWAP2 DUP3 OR SWAP1 SWAP3 SSTORE SWAP2 MLOAD DUP6 SWAP4 SWAP2 DUP6 AND SWAP2 PUSH32 0x8C5BE1E5EBEC7D5BD14F71427D1E84F3DD0314C0F7B2291E5B200AC8C7C3B925 SWAP2 LOG4 JUMPDEST POP POP POP JUMP JUMPDEST PUSH1 0x0 PUSH2 0xF54 DUP4 DUP4 PUSH2 0x2EBE JUMP JUMPDEST SWAP4 SWAP3 POP POP POP JUMP JUMPDEST PUSH1 0x1 SLOAD PUSH1 0x1 PUSH1 0xA0 PUSH1 0x2 EXP SUB AND CALLER EQ DUP1 PUSH2 0xF79 JUMPI POP PUSH2 0xF79 CALLER DUP3 PUSH2 0x2E90 JUMP JUMPDEST ISZERO ISZERO PUSH2 0xFCF JUMPI PUSH1 0x40 DUP1 MLOAD PUSH1 0xE5 PUSH1 0x2 EXP PUSH3 0x461BCD MUL DUP2 MSTORE PUSH1 0x20 PUSH1 0x4 DUP3 ADD MSTORE PUSH1 0x11 PUSH1 0x24 DUP3 ADD MSTORE PUSH32 0x556E617574686F72697A65642075736572000000000000000000000000000000 PUSH1 0x44 DUP3 ADD MSTORE SWAP1 MLOAD SWAP1 DUP2 SWAP1 SUB PUSH1 0x64 ADD SWAP1 REVERT JUMPDEST PUSH1 0x1 PUSH1 0xA0 PUSH1 0x2 EXP SUB AND PUSH1 0x0 SWAP1 DUP2 MSTORE PUSH1 0xD PUSH1 0x20 MSTORE PUSH1 0x40 SWAP1 KECCAK256 TIMESTAMP SWAP1 SSTORE JUMP JUMPDEST PUSH1 0x0 PUSH2 0xFF5 PUSH2 0x2ED2 JUMP JUMPDEST SWAP1 POP SWAP1 JUMP JUMPDEST CALLER PUSH1 0x0 SWAP1 DUP2 MSTORE PUSH1 0x14 PUSH1 0x20 MSTORE PUSH1 0x40 DUP2 KECCAK256 SLOAD PUSH1 0xFF AND ISZERO ISZERO PUSH2 0x1089 JUMPI PUSH1 0x40 DUP1 MLOAD PUSH1 0xE5 PUSH1 0x2 EXP PUSH3 0x461BCD MUL DUP2 MSTORE PUSH1 0x20 PUSH1 0x4 DUP3 ADD MSTORE PUSH1 0x2B PUSH1 0x24 DUP3 ADD MSTORE PUSH32 0x556E72656769737465722042616C616E63653A3A5468652075736572206E6F74 PUSH1 0x44 DUP3 ADD MSTORE PUSH32 0x2072656769737465726564000000000000000000000000000000000000000000 PUSH1 0x64 DUP3 ADD MSTORE SWAP1 MLOAD SWAP1 DUP2 SWAP1 SUB PUSH1 0x84 ADD SWAP1 REVERT JUMPDEST CALLER PUSH1 0x0 DUP2 DUP2 MSTORE PUSH1 0x14 PUSH1 0x20 SWAP1 DUP2 MSTORE PUSH1 0x40 DUP1 DUP4 KECCAK256 DUP1 SLOAD PUSH1 0xFF NOT AND SWAP1 SSTORE PUSH1 0x13 SLOAD DUP2 MLOAD PUSH32 0x70A0823100000000000000000000000000000000000000000000000000000000 DUP2 MSTORE PUSH1 0x4 DUP2 ADD SWAP6 SWAP1 SWAP6 MSTORE SWAP1 MLOAD PUSH1 0x1 PUSH1 0xA0 PUSH1 0x2 EXP SUB SWAP1 SWAP2 AND SWAP4 PUSH4 0x70A08231 SWAP4 PUSH1 0x24 DUP1 DUP4 ADD SWAP5 SWAP4 SWAP3 DUP4 SWAP1 SUB ADD SWAP1 DUP3 SWAP1 DUP8 DUP1 EXTCODESIZE ISZERO DUP1 ISZERO PUSH2 0x1105 JUMPI PUSH1 0x0 DUP1 REVERT JUMPDEST POP GAS CALL ISZERO DUP1 ISZERO PUSH2 0x1119 JUMPI RETURNDATASIZE PUSH1 0x0 DUP1 RETURNDATACOPY RETURNDATASIZE PUSH1 0x0 REVERT JUMPDEST POP POP POP POP PUSH1 0x40 MLOAD RETURNDATASIZE PUSH1 0x20 DUP2 LT ISZERO PUSH2 0x112F JUMPI PUSH1 0x0 DUP1 REVERT JUMPDEST POP MLOAD PUSH1 0x13 SLOAD PUSH1 0x40 DUP1 MLOAD PUSH32 0xD3CE77FE00000000000000000000000000000000000000000000000000000000 DUP2 MSTORE CALLER PUSH1 0x4 DUP3 ADD MSTORE PUSH1 0x24 DUP2 ADD DUP5 SWAP1 MSTORE SWAP1 MLOAD SWAP3 SWAP4 POP PUSH1 0x1 PUSH1 0xA0 PUSH1 0x2 EXP SUB SWAP1 SWAP2 AND SWAP2 PUSH4 0xD3CE77FE SWAP2 PUSH1 0x44 DUP1 DUP3 ADD SWAP3 PUSH1 0x20 SWAP3 SWAP1 SWAP2 SWAP1 DUP3 SWAP1 SUB ADD DUP2 PUSH1 0x0 DUP8 DUP1 EXTCODESIZE ISZERO DUP1 ISZERO PUSH2 0x11A1 JUMPI PUSH1 0x0 DUP1 REVERT JUMPDEST POP GAS CALL ISZERO DUP1 ISZERO PUSH2 0x11B5 JUMPI RETURNDATASIZE PUSH1 0x0 DUP1 RETURNDATACOPY RETURNDATASIZE PUSH1 0x0 REVERT JUMPDEST POP POP POP POP PUSH1 0x40 MLOAD RETURNDATASIZE PUSH1 0x20 DUP2 LT ISZERO PUSH2 0x11CB JUMPI PUSH1 0x0 DUP1 REVERT JUMPDEST POP MLOAD ISZERO ISZERO PUSH2 0x1249 JUMPI PUSH1 0x40 DUP1 MLOAD PUSH1 0xE5 PUSH1 0x2 EXP PUSH3 0x461BCD MUL DUP2 MSTORE PUSH1 0x20 PUSH1 0x4 DUP3 ADD MSTORE PUSH1 0x2C PUSH1 0x24 DUP3 ADD MSTORE PUSH32 0x556E72656769737465722042616C616E63653A3A436F756C64206E6F74206465 PUSH1 0x44 DUP3 ADD MSTORE PUSH32 0x7374726F7920746F6B656E730000000000000000000000000000000000000000 PUSH1 0x64 DUP3 ADD MSTORE SWAP1 MLOAD SWAP1 DUP2 SWAP1 SUB PUSH1 0x84 ADD SWAP1 REVERT JUMPDEST POP JUMP JUMPDEST PUSH1 0x1 SLOAD PUSH1 0x1 PUSH1 0xA0 PUSH1 0x2 EXP SUB AND CALLER EQ DUP1 PUSH2 0x1274 JUMPI POP CALLER PUSH1 0x0 SWAP1 DUP2 MSTORE PUSH1 0x11 PUSH1 0x20 MSTORE PUSH1 0x40 SWAP1 KECCAK256 SLOAD PUSH1 0xFF AND JUMPDEST ISZERO ISZERO PUSH2 0x12DE JUMPI PUSH1 0x40 DUP1 MLOAD PUSH1 0xE5 PUSH1 0x2 EXP PUSH3 0x461BCD MUL DUP2 MSTORE PUSH1 0x20 PUSH1 0x4 DUP3 ADD MSTORE PUSH1 0x3A PUSH1 0x24 DUP3 ADD MSTORE PUSH1 0x0 DUP1 MLOAD PUSH1 0x20 PUSH2 0x4332 DUP4 CODECOPY DUP2 MLOAD SWAP2 MSTORE PUSH1 0x44 DUP3 ADD MSTORE PUSH32 0x20627920616E20617574686F72697A6564206465706C6F796572000000000000 PUSH1 0x64 DUP3 ADD MSTORE SWAP1 MLOAD SWAP1 DUP2 SWAP1 SUB PUSH1 0x84 ADD SWAP1 REVERT JUMPDEST PUSH2 0x12F1 PUSH2 0x12EB DUP5 DUP5 PUSH2 0x2ED8 JUMP JUMPDEST DUP3 PUSH2 0x2F92 JUMP JUMPDEST PUSH2 0xF43 PUSH1 0x0 DUP3 PUSH2 0x2FFB JUMP JUMPDEST PUSH1 0x60 DUP1 PUSH1 0x0 DUP1 DUP7 GT PUSH2 0x135A JUMPI PUSH1 0x40 DUP1 MLOAD PUSH1 0xE5 PUSH1 0x2 EXP PUSH3 0x461BCD MUL DUP2 MSTORE PUSH1 0x20 PUSH1 0x4 DUP3 ADD MSTORE PUSH1 0x29 PUSH1 0x24 DUP3 ADD MSTORE PUSH1 0x0 DUP1 MLOAD PUSH1 0x20 PUSH2 0x4352 DUP4 CODECOPY DUP2 MLOAD SWAP2 MSTORE PUSH1 0x44 DUP3 ADD MSTORE PUSH1 0x0 DUP1 MLOAD PUSH1 0x20 PUSH2 0x4372 DUP4 CODECOPY DUP2 MLOAD SWAP2 MSTORE PUSH1 0x64 DUP3 ADD MSTORE SWAP1 MLOAD SWAP1 DUP2 SWAP1 SUB PUSH1 0x84 ADD SWAP1 REVERT JUMPDEST DUP6 DUP5 EQ PUSH2 0x13B3 JUMPI PUSH1 0x40 DUP1 MLOAD PUSH1 0xE5 PUSH1 0x2 EXP PUSH3 0x461BCD MUL DUP2 MSTORE PUSH1 0x20 PUSH1 0x4 DUP3 ADD MSTORE PUSH1 0x2B PUSH1 0x24 DUP3 ADD MSTORE PUSH1 0x0 DUP1 MLOAD PUSH1 0x20 PUSH2 0x42F2 DUP4 CODECOPY DUP2 MLOAD SWAP2 MSTORE PUSH1 0x44 DUP3 ADD MSTORE PUSH1 0x0 DUP1 MLOAD PUSH1 0x20 PUSH2 0x4312 DUP4 CODECOPY DUP2 MLOAD SWAP2 MSTORE PUSH1 0x64 DUP3 ADD MSTORE SWAP1 MLOAD SWAP1 DUP2 SWAP1 SUB PUSH1 0x84 ADD SWAP1 REVERT JUMPDEST PUSH1 0x40 DUP1 MLOAD DUP8 DUP2 MSTORE PUSH1 0x20 DUP1 DUP10 MUL DUP3 ADD ADD SWAP1 SWAP2 MSTORE DUP7 DUP1 ISZERO PUSH2 0x13DC JUMPI DUP2 PUSH1 0x20 ADD PUSH1 0x20 DUP3 MUL DUP1 CODESIZE DUP4 CODECOPY ADD SWAP1 POP JUMPDEST POP SWAP2 POP PUSH1 0x0 SWAP1 POP JUMPDEST DUP6 DUP2 LT ISZERO PUSH2 0x1449 JUMPI PUSH2 0x141C DUP8 DUP8 DUP4 DUP2 DUP2 LT PUSH2 0x13FB JUMPI INVALID JUMPDEST SWAP1 POP PUSH1 0x20 MUL ADD CALLDATALOAD DUP7 DUP7 DUP5 DUP2 DUP2 LT ISZERO ISZERO PUSH2 0x1410 JUMPI INVALID JUMPDEST SWAP1 POP PUSH1 0x20 MUL ADD CALLDATALOAD PUSH2 0x2EBE JUMP JUMPDEST DUP3 DUP3 DUP2 MLOAD DUP2 LT ISZERO ISZERO PUSH2 0x142A JUMPI INVALID JUMPDEST PUSH1 0x1 PUSH1 0xA0 PUSH1 0x2 EXP SUB SWAP1 SWAP3 AND PUSH1 0x20 SWAP3 DUP4 MUL SWAP1 SWAP2 ADD SWAP1 SWAP2 ADD MSTORE PUSH1 0x1 ADD PUSH2 0x13E4 JUMP JUMPDEST POP SWAP6 SWAP5 POP POP POP POP POP JUMP JUMPDEST PUSH1 0xD PUSH1 0x20 MSTORE PUSH1 0x0 SWAP1 DUP2 MSTORE PUSH1 0x40 SWAP1 KECCAK256 SLOAD DUP2 JUMP JUMPDEST PUSH1 0x0 DUP1 DUP7 GT PUSH2 0x14C0 JUMPI PUSH1 0x40 DUP1 MLOAD PUSH1 0xE5 PUSH1 0x2 EXP PUSH3 0x461BCD MUL DUP2 MSTORE PUSH1 0x20 PUSH1 0x4 DUP3 ADD MSTORE PUSH1 0x29 PUSH1 0x24 DUP3 ADD MSTORE PUSH1 0x0 DUP1 MLOAD PUSH1 0x20 PUSH2 0x4352 DUP4 CODECOPY DUP2 MLOAD SWAP2 MSTORE PUSH1 0x44 DUP3 ADD MSTORE PUSH1 0x0 DUP1 MLOAD PUSH1 0x20 PUSH2 0x4372 DUP4 CODECOPY DUP2 MLOAD SWAP2 MSTORE PUSH1 0x64 DUP3 ADD MSTORE SWAP1 MLOAD SWAP1 DUP2 SWAP1 SUB PUSH1 0x84 ADD SWAP1 REVERT JUMPDEST DUP6 DUP5 EQ PUSH2 0x1519 JUMPI PUSH1 0x40 DUP1 MLOAD PUSH1 0xE5 PUSH1 0x2 EXP PUSH3 0x461BCD MUL DUP2 MSTORE PUSH1 0x20 PUSH1 0x4 DUP3 ADD MSTORE PUSH1 0x2B PUSH1 0x24 DUP3 ADD MSTORE PUSH1 0x0 DUP1 MLOAD PUSH1 0x20 PUSH2 0x42F2 DUP4 CODECOPY DUP2 MLOAD SWAP2 MSTORE PUSH1 0x44 DUP3 ADD MSTORE PUSH1 0x0 DUP1 MLOAD PUSH1 0x20 PUSH2 0x4312 DUP4 CODECOPY DUP2 MLOAD SWAP2 MSTORE PUSH1 0x64 DUP3 ADD MSTORE SWAP1 MLOAD SWAP1 DUP2 SWAP1 SUB PUSH1 0x84 ADD SWAP1 REVERT JUMPDEST POP PUSH1 0x0 JUMPDEST DUP6 DUP2 LT ISZERO PUSH2 0x158E JUMPI PUSH2 0x1586 DUP8 DUP8 DUP4 DUP2 DUP2 LT PUSH2 0x1534 JUMPI INVALID JUMPDEST SWAP1 POP PUSH1 0x20 MUL ADD CALLDATALOAD DUP7 DUP7 DUP5 DUP2 DUP2 LT ISZERO ISZERO PUSH2 0x1549 JUMPI INVALID JUMPDEST SWAP1 POP PUSH1 0x20 MUL ADD CALLDATALOAD DUP6 DUP6 DUP1 DUP1 PUSH1 0x1F ADD PUSH1 0x20 DUP1 SWAP2 DIV MUL PUSH1 0x20 ADD PUSH1 0x40 MLOAD SWAP1 DUP2 ADD PUSH1 0x40 MSTORE DUP1 SWAP4 SWAP3 SWAP2 SWAP1 DUP2 DUP2 MSTORE PUSH1 0x20 ADD DUP4 DUP4 DUP1 DUP3 DUP5 CALLDATACOPY POP PUSH2 0x3172 SWAP5 POP POP POP POP POP JUMP JUMPDEST PUSH1 0x1 ADD PUSH2 0x151D JUMP JUMPDEST POP POP POP POP POP POP POP JUMP JUMPDEST PUSH1 0x10 SLOAD PUSH1 0x1 PUSH1 0xA0 PUSH1 0x2 EXP SUB DUP4 DUP2 AND SWAP2 AND EQ ISZERO PUSH2 0x1623 JUMPI PUSH1 0x40 DUP1 MLOAD PUSH1 0xE5 PUSH1 0x2 EXP PUSH3 0x461BCD MUL DUP2 MSTORE PUSH1 0x20 PUSH1 0x4 DUP3 ADD MSTORE PUSH1 0x2F PUSH1 0x24 DUP3 ADD MSTORE PUSH32 0x457374617465526567697374727920756E73616665207472616E736665727320 PUSH1 0x44 DUP3 ADD MSTORE PUSH32 0x617265206E6F7420616C6C6F7765640000000000000000000000000000000000 PUSH1 0x64 DUP3 ADD MSTORE SWAP1 MLOAD SWAP1 DUP2 SWAP1 SUB PUSH1 0x84 ADD SWAP1 REVERT JUMPDEST PUSH2 0xF43 DUP4 DUP4 DUP4 PUSH1 0x20 PUSH1 0x40 MLOAD SWAP1 DUP2 ADD PUSH1 0x40 MSTORE DUP1 PUSH1 0x0 DUP2 MSTORE POP PUSH1 0x0 PUSH2 0x331F JUMP JUMPDEST PUSH1 0x0 PUSH2 0xF54 DUP4 DUP4 PUSH2 0x3352 JUMP JUMPDEST PUSH1 0x11 PUSH1 0x20 MSTORE PUSH1 0x0 SWAP1 DUP2 MSTORE PUSH1 0x40 SWAP1 KECCAK256 SLOAD PUSH1 0xFF AND DUP2 JUMP JUMPDEST PUSH1 0x1 PUSH1 0xA0 PUSH1 0x2 EXP SUB DUP3 AND PUSH1 0x0 SWAP1 DUP2 MSTORE PUSH1 0x7 PUSH1 0x20 MSTORE PUSH1 0x40 DUP2 KECCAK256 SLOAD DUP3 LT PUSH2 0x1686 JUMPI PUSH1 0x0 DUP1 REVERT JUMPDEST PUSH16 0x80000000000000000000000000000000 DUP3 LT PUSH2 0x16A2 JUMPI PUSH1 0x0 DUP1 REVERT JUMPDEST PUSH1 0x1 PUSH1 0xA0 PUSH1 0x2 EXP SUB DUP4 AND PUSH1 0x0 SWAP1 DUP2 MSTORE PUSH1 0x7 PUSH1 0x20 MSTORE PUSH1 0x40 SWAP1 KECCAK256 DUP1 SLOAD DUP4 SWAP1 DUP2 LT PUSH2 0x16C6 JUMPI INVALID JUMPDEST SWAP1 PUSH1 0x0 MSTORE PUSH1 0x20 PUSH1 0x0 KECCAK256 ADD SLOAD SWAP1 POP SWAP3 SWAP2 POP POP JUMP JUMPDEST PUSH1 0x0 SWAP1 JUMP JUMPDEST PUSH1 0x1 SLOAD PUSH1 0x1 PUSH1 0xA0 PUSH1 0x2 EXP SUB AND CALLER EQ PUSH2 0x1742 JUMPI PUSH1 0x40 DUP1 MLOAD PUSH1 0xE5 PUSH1 0x2 EXP PUSH3 0x461BCD MUL DUP2 MSTORE PUSH1 0x20 PUSH1 0x4 DUP3 ADD MSTORE PUSH1 0x33 PUSH1 0x24 DUP3 ADD MSTORE PUSH1 0x0 DUP1 MLOAD PUSH1 0x20 PUSH2 0x4332 DUP4 CODECOPY DUP2 MLOAD SWAP2 MSTORE PUSH1 0x44 DUP3 ADD MSTORE PUSH1 0x0 DUP1 MLOAD PUSH1 0x20 PUSH2 0x42D2 DUP4 CODECOPY DUP2 MLOAD SWAP2 MSTORE PUSH1 0x64 DUP3 ADD MSTORE SWAP1 MLOAD SWAP1 DUP2 SWAP1 SUB PUSH1 0x84 ADD SWAP1 REVERT JUMPDEST PUSH1 0x1 PUSH1 0xA0 PUSH1 0x2 EXP SUB DUP2 AND ISZERO ISZERO PUSH2 0x17A2 JUMPI PUSH1 0x40 DUP1 MLOAD PUSH1 0xE5 PUSH1 0x2 EXP PUSH3 0x461BCD MUL DUP2 MSTORE PUSH1 0x20 PUSH1 0x4 DUP3 ADD MSTORE PUSH1 0xF PUSH1 0x24 DUP3 ADD MSTORE PUSH32 0x696E76616C696420616464726573730000000000000000000000000000000000 PUSH1 0x44 DUP3 ADD MSTORE SWAP1 MLOAD SWAP1 DUP2 SWAP1 SUB PUSH1 0x64 ADD SWAP1 REVERT JUMPDEST PUSH1 0x1 PUSH1 0xA0 PUSH1 0x2 EXP SUB DUP2 AND PUSH1 0x0 SWAP1 DUP2 MSTORE PUSH1 0x11 PUSH1 0x20 MSTORE PUSH1 0x40 SWAP1 KECCAK256 SLOAD PUSH1 0xFF AND ISZERO PUSH2 0x1813 JUMPI PUSH1 0x40 DUP1 MLOAD PUSH1 0xE5 PUSH1 0x2 EXP PUSH3 0x461BCD MUL DUP2 MSTORE PUSH1 0x20 PUSH1 0x4 DUP3 ADD MSTORE PUSH1 0x1D PUSH1 0x24 DUP3 ADD MSTORE PUSH32 0x6164647265737320697320616C726561647920617574686F72697A6564000000 PUSH1 0x44 DUP3 ADD MSTORE SWAP1 MLOAD SWAP1 DUP2 SWAP1 SUB PUSH1 0x64 ADD SWAP1 REVERT JUMPDEST PUSH1 0x1 PUSH1 0xA0 PUSH1 0x2 EXP SUB DUP2 AND PUSH1 0x0 DUP2 DUP2 MSTORE PUSH1 0x11 PUSH1 0x20 MSTORE PUSH1 0x40 DUP1 DUP3 KECCAK256 DUP1 SLOAD PUSH1 0xFF NOT AND PUSH1 0x1 OR SWAP1 SSTORE MLOAD CALLER SWAP2 PUSH32 0x9E237638DCD1B2BE1FC623AB6A47409B34DC8A62196448DD2D6B9045B2C33157 SWAP2 LOG3 POP JUMP JUMPDEST PUSH1 0x0 PUSH2 0x186C DUP5 DUP5 PUSH2 0x2ED8 JUMP JUMPDEST SWAP1 POP PUSH2 0x1894 PUSH2 0x187A DUP3 PUSH2 0x2E75 JUMP JUMPDEST DUP4 DUP4 PUSH1 0x20 PUSH1 0x40 MLOAD SWAP1 DUP2 ADD PUSH1 0x40 MSTORE DUP1 PUSH1 0x0 DUP2 MSTORE POP PUSH1 0x1 PUSH2 0x331F JUMP JUMPDEST POP POP POP POP JUMP JUMPDEST PUSH2 0xF43 DUP4 DUP4 DUP4 PUSH1 0x20 PUSH1 0x40 MLOAD SWAP1 DUP2 ADD PUSH1 0x40 MSTORE DUP1 PUSH1 0x0 DUP2 MSTORE POP PUSH1 0x1 PUSH2 0x331F JUMP JUMPDEST PUSH1 0x40 DUP1 MLOAD DUP1 DUP3 ADD SWAP1 SWAP2 MSTORE PUSH1 0x11 DUP1 DUP3 MSTORE PUSH32 0x446563656E7472616C616E64204C414E44000000000000000000000000000000 PUSH1 0x20 SWAP1 SWAP3 ADD SWAP2 DUP3 MSTORE PUSH2 0x18FC SWAP2 PUSH1 0x3 SWAP2 PUSH2 0x41FF JUMP JUMPDEST POP PUSH1 0x40 DUP1 MLOAD DUP1 DUP3 ADD SWAP1 SWAP2 MSTORE PUSH1 0x4 DUP1 DUP3 MSTORE PUSH32 0x4C414E4400000000000000000000000000000000000000000000000000000000 PUSH1 0x20 SWAP1 SWAP3 ADD SWAP2 DUP3 MSTORE PUSH2 0x193F SWAP2 DUP2 PUSH2 0x41FF JUMP JUMPDEST POP PUSH1 0x40 DUP1 MLOAD PUSH1 0x60 DUP2 ADD DUP3 MSTORE PUSH1 0x33 DUP1 DUP3 MSTORE PUSH32 0x436F6E747261637420746861742073746F7265732074686520446563656E7472 PUSH1 0x20 DUP4 ADD SWAP1 DUP2 MSTORE PUSH32 0x616C616E64204C414E4420726567697374727900000000000000000000000000 SWAP3 SWAP1 SWAP4 ADD SWAP2 SWAP1 SWAP2 MSTORE PUSH2 0xF43 SWAP2 PUSH1 0x5 SWAP2 PUSH2 0x41FF JUMP JUMPDEST PUSH1 0x60 PUSH2 0xF54 PUSH2 0x19BB DUP5 DUP5 PUSH2 0x2ED8 JUMP JUMPDEST PUSH2 0x33D0 JUMP JUMPDEST PUSH1 0x0 DUP1 DUP1 DUP7 GT PUSH2 0x1A1C JUMPI PUSH1 0x40 DUP1 MLOAD PUSH1 0xE5 PUSH1 0x2 EXP PUSH3 0x461BCD MUL DUP2 MSTORE PUSH1 0x20 PUSH1 0x4 DUP3 ADD MSTORE PUSH1 0x29 PUSH1 0x24 DUP3 ADD MSTORE PUSH1 0x0 DUP1 MLOAD PUSH1 0x20 PUSH2 0x4352 DUP4 CODECOPY DUP2 MLOAD SWAP2 MSTORE PUSH1 0x44 DUP3 ADD MSTORE PUSH1 0x0 DUP1 MLOAD PUSH1 0x20 PUSH2 0x4372 DUP4 CODECOPY DUP2 MLOAD SWAP2 MSTORE PUSH1 0x64 DUP3 ADD MSTORE SWAP1 MLOAD SWAP1 DUP2 SWAP1 SUB PUSH1 0x84 ADD SWAP1 REVERT JUMPDEST DUP6 DUP5 EQ PUSH2 0x1A75 JUMPI PUSH1 0x40 DUP1 MLOAD PUSH1 0xE5 PUSH1 0x2 EXP PUSH3 0x461BCD MUL DUP2 MSTORE PUSH1 0x20 PUSH1 0x4 DUP3 ADD MSTORE PUSH1 0x2B PUSH1 0x24 DUP3 ADD MSTORE PUSH1 0x0 DUP1 MLOAD PUSH1 0x20 PUSH2 0x42F2 DUP4 CODECOPY DUP2 MLOAD SWAP2 MSTORE PUSH1 0x44 DUP3 ADD MSTORE PUSH1 0x0 DUP1 MLOAD PUSH1 0x20 PUSH2 0x4312 DUP4 CODECOPY DUP2 MLOAD SWAP2 MSTORE PUSH1 0x64 DUP3 ADD MSTORE SWAP1 MLOAD SWAP1 DUP2 SWAP1 SUB PUSH1 0x84 ADD SWAP1 REVERT JUMPDEST PUSH1 0x0 SWAP2 POP JUMPDEST DUP6 DUP3 LT ISZERO PUSH2 0x158E JUMPI PUSH2 0x1AB2 DUP8 DUP8 DUP5 DUP2 DUP2 LT PUSH2 0x1A91 JUMPI INVALID JUMPDEST SWAP1 POP PUSH1 0x20 MUL ADD CALLDATALOAD DUP7 DUP7 DUP6 DUP2 DUP2 LT ISZERO ISZERO PUSH2 0x1AA6 JUMPI INVALID JUMPDEST SWAP1 POP PUSH1 0x20 MUL ADD CALLDATALOAD PUSH2 0x2ED8 JUMP JUMPDEST SWAP1 POP PUSH2 0x1ADA PUSH2 0x1AC0 DUP3 PUSH2 0x2E75 JUMP JUMPDEST DUP5 DUP4 PUSH1 0x20 PUSH1 0x40 MLOAD SWAP1 DUP2 ADD PUSH1 0x40 MSTORE DUP1 PUSH1 0x0 DUP2 MSTORE POP PUSH1 0x1 PUSH2 0x331F JUMP JUMPDEST PUSH1 0x1 SWAP1 SWAP2 ADD SWAP1 PUSH2 0x1A7A JUMP JUMPDEST PUSH1 0x0 PUSH2 0xDA4 DUP3 PUSH2 0x364A JUMP JUMPDEST PUSH1 0x1 PUSH1 0xA0 PUSH1 0x2 EXP SUB DUP2 AND PUSH1 0x0 SWAP1 DUP2 MSTORE PUSH1 0x7 PUSH1 0x20 SWAP1 DUP2 MSTORE PUSH1 0x40 SWAP2 DUP3 SWAP1 KECCAK256 DUP1 SLOAD DUP4 MLOAD DUP2 DUP5 MUL DUP2 ADD DUP5 ADD SWAP1 SWAP5 MSTORE DUP1 DUP5 MSTORE PUSH1 0x60 SWAP4 SWAP3 DUP4 ADD DUP3 DUP3 DUP1 ISZERO PUSH2 0x1B50 JUMPI PUSH1 0x20 MUL DUP3 ADD SWAP2 SWAP1 PUSH1 0x0 MSTORE PUSH1 0x20 PUSH1 0x0 KECCAK256 SWAP1 JUMPDEST DUP2 SLOAD DUP2 MSTORE PUSH1 0x20 ADD SWAP1 PUSH1 0x1 ADD SWAP1 DUP1 DUP4 GT PUSH2 0x1B3C JUMPI JUMPDEST POP POP POP POP POP SWAP1 POP SWAP2 SWAP1 POP JUMP JUMPDEST CALLER PUSH1 0x0 SWAP1 DUP2 MSTORE PUSH1 0xD PUSH1 0x20 MSTORE PUSH1 0x40 SWAP1 KECCAK256 TIMESTAMP SWAP1 SSTORE JUMP JUMPDEST PUSH1 0x14 PUSH1 0x20 MSTORE PUSH1 0x0 SWAP1 DUP2 MSTORE PUSH1 0x40 SWAP1 KECCAK256 SLOAD PUSH1 0xFF AND DUP2 JUMP JUMPDEST PUSH1 0x1 SLOAD PUSH1 0x1 PUSH1 0xA0 PUSH1 0x2 EXP SUB AND CALLER EQ PUSH2 0x1BE9 JUMPI PUSH1 0x40 DUP1 MLOAD PUSH1 0xE5 PUSH1 0x2 EXP PUSH3 0x461BCD MUL DUP2 MSTORE PUSH1 0x20 PUSH1 0x4 DUP3 ADD MSTORE PUSH1 0x33 PUSH1 0x24 DUP3 ADD MSTORE PUSH1 0x0 DUP1 MLOAD PUSH1 0x20 PUSH2 0x4332 DUP4 CODECOPY DUP2 MLOAD SWAP2 MSTORE PUSH1 0x44 DUP3 ADD MSTORE PUSH1 0x0 DUP1 MLOAD PUSH1 0x20 PUSH2 0x42D2 DUP4 CODECOPY DUP2 MLOAD SWAP2 MSTORE PUSH1 0x64 DUP3 ADD MSTORE SWAP1 MLOAD SWAP1 DUP2 SWAP1 SUB PUSH1 0x84 ADD SWAP1 REVERT JUMPDEST PUSH1 0x1 PUSH1 0xA0 PUSH1 0x2 EXP SUB DUP2 AND ISZERO ISZERO PUSH2 0x1C6F JUMPI PUSH1 0x40 DUP1 MLOAD PUSH1 0xE5 PUSH1 0x2 EXP PUSH3 0x461BCD MUL DUP2 MSTORE PUSH1 0x20 PUSH1 0x4 DUP3 ADD MSTORE PUSH1 0x2A PUSH1 0x24 DUP3 ADD MSTORE PUSH32 0x4E6577206C616E6442616C616E63652073686F756C64206E6F74206265207A65 PUSH1 0x44 DUP3 ADD MSTORE PUSH32 0x726F206164647265737300000000000000000000000000000000000000000000 PUSH1 0x64 DUP3 ADD MSTORE SWAP1 MLOAD SWAP1 DUP2 SWAP1 SUB PUSH1 0x84 ADD SWAP1 REVERT JUMPDEST PUSH1 0x13 SLOAD PUSH1 0x40 MLOAD PUSH1 0x1 PUSH1 0xA0 PUSH1 0x2 EXP SUB DUP1 DUP5 AND SWAP3 AND SWAP1 PUSH32 0x72D675E4D2F5CE2DEAFCB203F4DACDEEE8BE536626817BC87833E716EF73942D SWAP1 PUSH1 0x0 SWAP1 LOG3 PUSH1 0x13 DUP1 SLOAD PUSH1 0x1 PUSH1 0xA0 PUSH1 0x2 EXP SUB NOT AND PUSH1 0x1 PUSH1 0xA0 PUSH1 0x2 EXP SUB SWAP3 SWAP1 SWAP3 AND SWAP2 SWAP1 SWAP2 OR SWAP1 SSTORE JUMP JUMPDEST PUSH1 0x0 PUSH2 0xDA4 DUP3 PUSH2 0x2E75 JUMP JUMPDEST PUSH1 0x40 DUP1 MLOAD PUSH32 0x6765744D657461646174612875696E7432353629000000000000000000000000 DUP2 MSTORE SWAP1 MLOAD SWAP1 DUP2 SWAP1 SUB PUSH1 0x14 ADD SWAP1 KECCAK256 DUP2 JUMP JUMPDEST PUSH1 0x0 PUSH2 0xF54 DUP4 DUP4 PUSH2 0x3667 JUMP JUMPDEST PUSH1 0x60 PUSH2 0xDA4 DUP3 PUSH2 0x33D0 JUMP JUMPDEST PUSH1 0x0 PUSH2 0xF54 DUP4 DUP4 PUSH2 0x2ED8 JUMP JUMPDEST PUSH1 0x0 PUSH2 0xDA4 DUP3 PUSH2 0x36E6 JUMP JUMPDEST PUSH1 0x0 SLOAD PUSH1 0x1 PUSH1 0xA0 PUSH1 0x2 EXP SUB AND DUP2 JUMP JUMPDEST PUSH1 0x0 JUMPDEST DUP3 MLOAD DUP2 LT ISZERO PUSH2 0xF43 JUMPI PUSH2 0x1D75 DUP4 DUP3 DUP2 MLOAD DUP2 LT ISZERO ISZERO PUSH2 0x1D65 JUMPI INVALID JUMPDEST SWAP1 PUSH1 0x20 ADD SWAP1 PUSH1 0x20 MUL ADD MLOAD DUP4 PUSH2 0x21DF JUMP JUMPDEST PUSH1 0x1 ADD PUSH2 0x1D4B JUMP JUMPDEST PUSH1 0x5 DUP1 SLOAD PUSH1 0x40 DUP1 MLOAD PUSH1 0x20 PUSH1 0x1F PUSH1 0x2 PUSH1 0x0 NOT PUSH2 0x100 PUSH1 0x1 DUP9 AND ISZERO MUL ADD SWAP1 SWAP6 AND SWAP5 SWAP1 SWAP5 DIV SWAP4 DUP5 ADD DUP2 SWAP1 DIV DUP2 MUL DUP3 ADD DUP2 ADD SWAP1 SWAP3 MSTORE DUP3 DUP2 MSTORE PUSH1 0x60 SWAP4 SWAP1 SWAP3 SWAP1 SWAP2 DUP4 ADD DUP3 DUP3 DUP1 ISZERO PUSH2 0xE47 JUMPI DUP1 PUSH1 0x1F LT PUSH2 0xE1C JUMPI PUSH2 0x100 DUP1 DUP4 SLOAD DIV MUL DUP4 MSTORE SWAP2 PUSH1 0x20 ADD SWAP2 PUSH2 0xE47 JUMP JUMPDEST PUSH1 0x0 DUP1 PUSH2 0x1DEA DUP4 PUSH2 0x3701 JUMP JUMPDEST SWAP2 POP SWAP2 POP JUMPDEST SWAP2 POP SWAP2 JUMP JUMPDEST PUSH1 0x13 SLOAD PUSH1 0x1 PUSH1 0xA0 PUSH1 0x2 EXP SUB AND DUP2 JUMP JUMPDEST PUSH1 0x1 SLOAD PUSH1 0x0 SWAP1 PUSH1 0x1 PUSH1 0xA0 PUSH1 0x2 EXP SUB AND CALLER EQ DUP1 PUSH2 0x1E2E JUMPI POP CALLER PUSH1 0x0 SWAP1 DUP2 MSTORE PUSH1 0x11 PUSH1 0x20 MSTORE PUSH1 0x40 SWAP1 KECCAK256 SLOAD PUSH1 0xFF AND JUMPDEST ISZERO ISZERO PUSH2 0x1E98 JUMPI PUSH1 0x40 DUP1 MLOAD PUSH1 0xE5 PUSH1 0x2 EXP PUSH3 0x461BCD MUL DUP2 MSTORE PUSH1 0x20 PUSH1 0x4 DUP3 ADD MSTORE PUSH1 0x3A PUSH1 0x24 DUP3 ADD MSTORE PUSH1 0x0 DUP1 MLOAD PUSH1 0x20 PUSH2 0x4332 DUP4 CODECOPY DUP2 MLOAD SWAP2 MSTORE PUSH1 0x44 DUP3 ADD MSTORE PUSH32 0x20627920616E20617574686F72697A6564206465706C6F796572000000000000 PUSH1 0x64 DUP3 ADD MSTORE SWAP1 MLOAD SWAP1 DUP2 SWAP1 SUB PUSH1 0x84 ADD SWAP1 REVERT JUMPDEST POP PUSH1 0x0 JUMPDEST DUP5 DUP2 LT ISZERO PUSH2 0x1ECF JUMPI PUSH2 0x1EBC PUSH2 0x1EB6 DUP8 DUP8 DUP5 DUP2 DUP2 LT PUSH2 0x1A91 JUMPI INVALID JUMPDEST DUP4 PUSH2 0x2F92 JUMP JUMPDEST PUSH2 0x1EC7 PUSH1 0x0 DUP4 PUSH2 0x2FFB JUMP JUMPDEST PUSH1 0x1 ADD PUSH2 0x1E9C JUMP JUMPDEST POP POP POP POP POP POP JUMP JUMPDEST PUSH1 0x0 PUSH2 0x1F6A DUP9 DUP9 DUP1 DUP1 PUSH1 0x20 MUL PUSH1 0x20 ADD PUSH1 0x40 MLOAD SWAP1 DUP2 ADD PUSH1 0x40 MSTORE DUP1 SWAP4 SWAP3 SWAP2 SWAP1 DUP2 DUP2 MSTORE PUSH1 0x20 ADD DUP4 DUP4 PUSH1 0x20 MUL DUP1 DUP3 DUP5 CALLDATACOPY POP POP PUSH1 0x40 DUP1 MLOAD PUSH1 0x20 DUP1 DUP15 MUL DUP3 DUP2 ADD DUP3 ADD SWAP1 SWAP4 MSTORE DUP14 DUP3 MSTORE SWAP1 SWAP6 POP DUP14 SWAP5 POP DUP13 SWAP4 POP DUP4 SWAP3 POP DUP6 ADD SWAP1 DUP5 SWAP1 DUP1 DUP3 DUP5 CALLDATACOPY POP POP PUSH1 0x40 DUP1 MLOAD PUSH1 0x20 PUSH1 0x1F DUP13 ADD DUP2 SWAP1 DIV DUP2 MUL DUP3 ADD DUP2 ADD SWAP1 SWAP3 MSTORE DUP11 DUP2 MSTORE DUP13 SWAP6 POP SWAP4 POP DUP11 SWAP3 POP DUP10 SWAP2 POP DUP2 SWAP1 DUP5 ADD DUP4 DUP3 DUP1 DUP3 DUP5 CALLDATACOPY POP PUSH2 0x37C0 SWAP5 POP POP POP POP POP JUMP JUMPDEST SWAP9 SWAP8 POP POP POP POP POP POP POP POP JUMP JUMPDEST PUSH1 0x1 PUSH1 0xA0 PUSH1 0x2 EXP SUB DUP2 AND PUSH1 0x0 SWAP1 DUP2 MSTORE PUSH1 0x7 PUSH1 0x20 SWAP1 DUP2 MSTORE PUSH1 0x40 DUP1 DUP4 KECCAK256 SLOAD DUP2 MLOAD DUP2 DUP2 MSTORE DUP2 DUP5 MUL DUP2 ADD SWAP1 SWAP4 ADD SWAP1 SWAP2 MSTORE PUSH1 0x60 SWAP3 DUP4 SWAP3 DUP4 SWAP2 DUP3 SWAP2 DUP2 SWAP1 DUP2 SWAP1 DUP7 DUP1 ISZERO PUSH2 0x1FC6 JUMPI DUP2 PUSH1 0x20 ADD PUSH1 0x20 DUP3 MUL DUP1 CODESIZE DUP4 CODECOPY ADD SWAP1 POP JUMPDEST POP SWAP5 POP DUP6 PUSH1 0x40 MLOAD SWAP1 DUP1 DUP3 MSTORE DUP1 PUSH1 0x20 MUL PUSH1 0x20 ADD DUP3 ADD PUSH1 0x40 MSTORE DUP1 ISZERO PUSH2 0x1FF3 JUMPI DUP2 PUSH1 0x20 ADD PUSH1 0x20 DUP3 MUL DUP1 CODESIZE DUP4 CODECOPY ADD SWAP1 POP JUMPDEST POP SWAP4 POP PUSH1 0x0 SWAP1 POP JUMPDEST DUP6 DUP2 LT ISZERO PUSH2 0x207D JUMPI PUSH1 0x1 PUSH1 0xA0 PUSH1 0x2 EXP SUB DUP10 AND PUSH1 0x0 SWAP1 DUP2 MSTORE PUSH1 0x7 PUSH1 0x20 MSTORE PUSH1 0x40 SWAP1 KECCAK256 DUP1 SLOAD PUSH2 0x203C SWAP2 SWAP1 DUP4 SWAP1 DUP2 LT PUSH2 0x202C JUMPI INVALID JUMPDEST SWAP1 PUSH1 0x0 MSTORE PUSH1 0x20 PUSH1 0x0 KECCAK256 ADD SLOAD PUSH2 0x3701 JUMP JUMPDEST DUP7 MLOAD SWAP2 SWAP5 POP SWAP3 POP DUP4 SWAP1 DUP7 SWAP1 DUP4 SWAP1 DUP2 LT PUSH2 0x2051 JUMPI INVALID JUMPDEST PUSH1 0x20 SWAP1 DUP2 MUL SWAP1 SWAP2 ADD ADD MSTORE DUP4 MLOAD DUP3 SWAP1 DUP6 SWAP1 DUP4 SWAP1 DUP2 LT PUSH2 0x206B JUMPI INVALID JUMPDEST PUSH1 0x20 SWAP1 DUP2 MUL SWAP1 SWAP2 ADD ADD MSTORE PUSH1 0x1 ADD PUSH2 0x1FFB JUMP JUMPDEST POP SWAP3 SWAP8 SWAP2 SWAP7 POP SWAP1 SWAP5 POP POP POP POP POP JUMP JUMPDEST PUSH1 0x2 SLOAD PUSH1 0x1 PUSH1 0xA0 PUSH1 0x2 EXP SUB AND DUP2 JUMP JUMPDEST PUSH1 0x1 SLOAD PUSH1 0x1 PUSH1 0xA0 PUSH1 0x2 EXP SUB AND CALLER EQ PUSH2 0x20FF JUMPI PUSH1 0x40 DUP1 MLOAD PUSH1 0xE5 PUSH1 0x2 EXP PUSH3 0x461BCD MUL DUP2 MSTORE PUSH1 0x20 PUSH1 0x4 DUP3 ADD MSTORE PUSH1 0x33 PUSH1 0x24 DUP3 ADD MSTORE PUSH1 0x0 DUP1 MLOAD PUSH1 0x20 PUSH2 0x4332 DUP4 CODECOPY DUP2 MLOAD SWAP2 MSTORE PUSH1 0x44 DUP3 ADD MSTORE PUSH1 0x0 DUP1 MLOAD PUSH1 0x20 PUSH2 0x42D2 DUP4 CODECOPY DUP2 MLOAD SWAP2 MSTORE PUSH1 0x64 DUP3 ADD MSTORE SWAP1 MLOAD SWAP1 DUP2 SWAP1 SUB PUSH1 0x84 ADD SWAP1 REVERT JUMPDEST PUSH1 0x10 DUP1 SLOAD PUSH1 0x1 PUSH1 0xA0 PUSH1 0x2 EXP SUB NOT AND PUSH1 0x1 PUSH1 0xA0 PUSH1 0x2 EXP SUB DUP4 AND SWAP1 DUP2 OR SWAP1 SWAP2 SSTORE PUSH1 0x40 MLOAD PUSH32 0x5B3AD80E09CE4C88735037542891C02FDC63B85E96A579D9260A403153C27755 SWAP1 PUSH1 0x0 SWAP1 LOG2 POP JUMP JUMPDEST PUSH1 0x4 DUP1 SLOAD PUSH1 0x40 DUP1 MLOAD PUSH1 0x20 PUSH1 0x1F PUSH1 0x2 PUSH1 0x0 NOT PUSH2 0x100 PUSH1 0x1 DUP9 AND ISZERO MUL ADD SWAP1 SWAP6 AND SWAP5 SWAP1 SWAP5 DIV SWAP4 DUP5 ADD DUP2 SWAP1 DIV DUP2 MUL DUP3 ADD DUP2 ADD SWAP1 SWAP3 MSTORE DUP3 DUP2 MSTORE PUSH1 0x60 SWAP4 SWAP1 SWAP3 SWAP1 SWAP2 DUP4 ADD DUP3 DUP3 DUP1 ISZERO PUSH2 0xE47 JUMPI DUP1 PUSH1 0x1F LT PUSH2 0xE1C JUMPI PUSH2 0x100 DUP1 DUP4 SLOAD DIV MUL DUP4 MSTORE SWAP2 PUSH1 0x20 ADD SWAP2 PUSH2 0xE47 JUMP JUMPDEST PUSH1 0xF PUSH1 0x20 MSTORE PUSH1 0x0 SWAP1 DUP2 MSTORE PUSH1 0x40 SWAP1 KECCAK256 SLOAD PUSH1 0x1 PUSH1 0xA0 PUSH1 0x2 EXP SUB AND DUP2 JUMP JUMPDEST PUSH2 0x21CF DUP3 DUP3 PUSH2 0x3A93 JUMP JUMPDEST POP POP JUMP JUMPDEST PUSH1 0x0 PUSH2 0xF54 DUP4 DUP4 PUSH2 0x3B21 JUMP JUMPDEST DUP2 PUSH1 0x0 PUSH2 0x21EB DUP3 PUSH2 0x2E75 JUMP JUMPDEST SWAP1 POP PUSH2 0x21F7 CALLER DUP4 PUSH2 0x3352 JUMP JUMPDEST DUP1 PUSH2 0x2225 JUMPI POP PUSH1 0x1 PUSH1 0xA0 PUSH1 0x2 EXP SUB DUP2 AND PUSH1 0x0 SWAP1 DUP2 MSTORE PUSH1 0x12 PUSH1 0x20 SWAP1 DUP2 MSTORE PUSH1 0x40 DUP1 DUP4 KECCAK256 CALLER DUP5 MSTORE SWAP1 SWAP2 MSTORE SWAP1 KECCAK256 SLOAD PUSH1 0xFF AND JUMPDEST ISZERO ISZERO PUSH2 0x227B JUMPI PUSH1 0x40 DUP1 MLOAD PUSH1 0xE5 PUSH1 0x2 EXP PUSH3 0x461BCD MUL DUP2 MSTORE PUSH1 0x20 PUSH1 0x4 DUP3 ADD MSTORE PUSH1 0x11 PUSH1 0x24 DUP3 ADD MSTORE PUSH32 0x756E617574686F72697A65642075736572000000000000000000000000000000 PUSH1 0x44 DUP3 ADD MSTORE SWAP1 MLOAD SWAP1 DUP2 SWAP1 SUB PUSH1 0x64 ADD SWAP1 REVERT JUMPDEST PUSH1 0x0 DUP5 DUP2 MSTORE PUSH1 0xF PUSH1 0x20 MSTORE PUSH1 0x40 DUP1 DUP3 KECCAK256 DUP1 SLOAD PUSH1 0x1 PUSH1 0xA0 PUSH1 0x2 EXP SUB NOT AND PUSH1 0x1 PUSH1 0xA0 PUSH1 0x2 EXP SUB DUP8 AND SWAP1 DUP2 OR SWAP1 SWAP2 SSTORE SWAP1 MLOAD SWAP1 SWAP2 DUP7 SWAP2 PUSH32 0x9D9DD80A56A16F715DF6EB40B771E24FF8CBEA6EED9DE28473CE0F28FE5602A9 SWAP2 SWAP1 LOG3 POP POP POP POP JUMP JUMPDEST PUSH2 0x2315 DUP6 DUP6 DUP6 DUP6 DUP6 DUP1 DUP1 PUSH1 0x1F ADD PUSH1 0x20 DUP1 SWAP2 DIV MUL PUSH1 0x20 ADD PUSH1 0x40 MLOAD SWAP1 DUP2 ADD PUSH1 0x40 MSTORE DUP1 SWAP4 SWAP3 SWAP2 SWAP1 DUP2 DUP2 MSTORE PUSH1 0x20 ADD DUP4 DUP4 DUP1 DUP3 DUP5 CALLDATACOPY POP PUSH1 0x1 SWAP5 POP PUSH2 0x331F SWAP4 POP POP POP POP JUMP JUMPDEST POP POP POP POP POP JUMP JUMPDEST CALLER PUSH1 0x0 SWAP1 DUP2 MSTORE PUSH1 0x14 PUSH1 0x20 MSTORE PUSH1 0x40 DUP2 KECCAK256 SLOAD DUP2 SWAP1 PUSH1 0xFF AND ISZERO PUSH2 0x23AC JUMPI PUSH1 0x40 DUP1 MLOAD PUSH1 0xE5 PUSH1 0x2 EXP PUSH3 0x461BCD MUL DUP2 MSTORE PUSH1 0x20 PUSH1 0x4 DUP3 ADD MSTORE PUSH1 0x30 PUSH1 0x24 DUP3 ADD MSTORE PUSH32 0x52656769737465722042616C616E63653A3A546865207573657220697320616C PUSH1 0x44 DUP3 ADD MSTORE PUSH32 0x7265616479207265676973746572656400000000000000000000000000000000 PUSH1 0x64 DUP3 ADD MSTORE SWAP1 MLOAD SWAP1 DUP2 SWAP1 SUB PUSH1 0x84 ADD SWAP1 REVERT JUMPDEST PUSH1 0x13 SLOAD PUSH1 0x40 DUP1 MLOAD PUSH32 0x70A0823100000000000000000000000000000000000000000000000000000000 DUP2 MSTORE CALLER PUSH1 0x4 DUP3 ADD MSTORE SWAP1 MLOAD PUSH1 0x1 PUSH1 0xA0 PUSH1 0x2 EXP SUB SWAP1 SWAP3 AND SWAP2 PUSH4 0x70A08231 SWAP2 PUSH1 0x24 DUP1 DUP3 ADD SWAP3 PUSH1 0x20 SWAP3 SWAP1 SWAP2 SWAP1 DUP3 SWAP1 SUB ADD DUP2 PUSH1 0x0 DUP8 DUP1 EXTCODESIZE ISZERO DUP1 ISZERO PUSH2 0x2412 JUMPI PUSH1 0x0 DUP1 REVERT JUMPDEST POP GAS CALL ISZERO DUP1 ISZERO PUSH2 0x2426 JUMPI RETURNDATASIZE PUSH1 0x0 DUP1 RETURNDATACOPY RETURNDATASIZE PUSH1 0x0 REVERT JUMPDEST POP POP POP POP PUSH1 0x40 MLOAD RETURNDATASIZE PUSH1 0x20 DUP2 LT ISZERO PUSH2 0x243C JUMPI PUSH1 0x0 DUP1 REVERT JUMPDEST POP MLOAD SWAP2 POP PUSH1 0x0 DUP3 GT ISZERO PUSH2 0x255E JUMPI PUSH1 0x13 SLOAD PUSH1 0x40 DUP1 MLOAD PUSH32 0xD3CE77FE00000000000000000000000000000000000000000000000000000000 DUP2 MSTORE CALLER PUSH1 0x4 DUP3 ADD MSTORE PUSH1 0x24 DUP2 ADD DUP6 SWAP1 MSTORE SWAP1 MLOAD PUSH1 0x1 PUSH1 0xA0 PUSH1 0x2 EXP SUB SWAP1 SWAP3 AND SWAP2 PUSH4 0xD3CE77FE SWAP2 PUSH1 0x44 DUP1 DUP3 ADD SWAP3 PUSH1 0x20 SWAP3 SWAP1 SWAP2 SWAP1 DUP3 SWAP1 SUB ADD DUP2 PUSH1 0x0 DUP8 DUP1 EXTCODESIZE ISZERO DUP1 ISZERO PUSH2 0x24B6 JUMPI PUSH1 0x0 DUP1 REVERT JUMPDEST POP GAS CALL ISZERO DUP1 ISZERO PUSH2 0x24CA JUMPI RETURNDATASIZE PUSH1 0x0 DUP1 RETURNDATACOPY RETURNDATASIZE PUSH1 0x0 REVERT JUMPDEST POP POP POP POP PUSH1 0x40 MLOAD RETURNDATASIZE PUSH1 0x20 DUP2 LT ISZERO PUSH2 0x24E0 JUMPI PUSH1 0x0 DUP1 REVERT JUMPDEST POP MLOAD ISZERO ISZERO PUSH2 0x255E JUMPI PUSH1 0x40 DUP1 MLOAD PUSH1 0xE5 PUSH1 0x2 EXP PUSH3 0x461BCD MUL DUP2 MSTORE PUSH1 0x20 PUSH1 0x4 DUP3 ADD MSTORE PUSH1 0x2A PUSH1 0x24 DUP3 ADD MSTORE PUSH32 0x52656769737465722042616C616E63653A3A436F756C64206E6F742064657374 PUSH1 0x44 DUP3 ADD MSTORE PUSH32 0x726F7920746F6B656E7300000000000000000000000000000000000000000000 PUSH1 0x64 DUP3 ADD MSTORE SWAP1 MLOAD SWAP1 DUP2 SWAP1 SUB PUSH1 0x84 ADD SWAP1 REVERT JUMPDEST CALLER PUSH1 0x0 DUP2 DUP2 MSTORE PUSH1 0x14 PUSH1 0x20 MSTORE PUSH1 0x40 SWAP1 KECCAK256 DUP1 SLOAD PUSH1 0xFF NOT AND PUSH1 0x1 OR SWAP1 SSTORE PUSH2 0x2581 SWAP1 PUSH2 0x36E6 JUMP JUMPDEST PUSH1 0x13 SLOAD PUSH1 0x40 DUP1 MLOAD PUSH32 0x827F32C000000000000000000000000000000000000000000000000000000000 DUP2 MSTORE CALLER PUSH1 0x4 DUP3 ADD MSTORE PUSH1 0x24 DUP2 ADD DUP5 SWAP1 MSTORE SWAP1 MLOAD SWAP3 SWAP4 POP PUSH1 0x1 PUSH1 0xA0 PUSH1 0x2 EXP SUB SWAP1 SWAP2 AND SWAP2 PUSH4 0x827F32C0 SWAP2 PUSH1 0x44 DUP1 DUP3 ADD SWAP3 PUSH1 0x20 SWAP3 SWAP1 SWAP2 SWAP1 DUP3 SWAP1 SUB ADD DUP2 PUSH1 0x0 DUP8 DUP1 EXTCODESIZE ISZERO DUP1 ISZERO PUSH2 0x25F1 JUMPI PUSH1 0x0 DUP1 REVERT JUMPDEST POP GAS CALL ISZERO DUP1 ISZERO PUSH2 0x2605 JUMPI RETURNDATASIZE PUSH1 0x0 DUP1 RETURNDATACOPY RETURNDATASIZE PUSH1 0x0 REVERT JUMPDEST POP POP POP POP PUSH1 0x40 MLOAD RETURNDATASIZE PUSH1 0x20 DUP2 LT ISZERO PUSH2 0x261B JUMPI PUSH1 0x0 DUP1 REVERT JUMPDEST POP MLOAD ISZERO ISZERO PUSH2 0x21CF JUMPI PUSH1 0x40 DUP1 MLOAD PUSH1 0xE5 PUSH1 0x2 EXP PUSH3 0x461BCD MUL DUP2 MSTORE PUSH1 0x20 PUSH1 0x4 DUP3 ADD MSTORE PUSH1 0x2B PUSH1 0x24 DUP3 ADD MSTORE PUSH32 0x52656769737465722042616C616E63653A3A436F756C64206E6F742067656E65 PUSH1 0x44 DUP3 ADD MSTORE PUSH32 0x7261746520746F6B656E73000000000000000000000000000000000000000000 PUSH1 0x64 DUP3 ADD MSTORE SWAP1 MLOAD SWAP1 DUP2 SWAP1 SUB PUSH1 0x84 ADD SWAP1 REVERT JUMPDEST PUSH1 0x0 PUSH2 0x270E DUP7 DUP7 DUP1 DUP1 PUSH1 0x20 MUL PUSH1 0x20 ADD PUSH1 0x40 MLOAD SWAP1 DUP2 ADD PUSH1 0x40 MSTORE DUP1 SWAP4 SWAP3 SWAP2 SWAP1 DUP2 DUP2 MSTORE PUSH1 0x20 ADD DUP4 DUP4 PUSH1 0x20 MUL DUP1 DUP3 DUP5 CALLDATACOPY POP POP PUSH1 0x40 DUP1 MLOAD PUSH1 0x20 DUP1 DUP13 MUL DUP3 DUP2 ADD DUP3 ADD SWAP1 SWAP4 MSTORE DUP12 DUP3 MSTORE SWAP1 SWAP6 POP DUP12 SWAP5 POP DUP11 SWAP4 POP DUP4 SWAP3 POP DUP6 ADD SWAP1 DUP5 SWAP1 DUP1 DUP3 DUP5 CALLDATACOPY POP POP PUSH1 0x40 DUP1 MLOAD PUSH1 0x20 DUP2 ADD SWAP1 SWAP2 MSTORE PUSH1 0x0 DUP2 MSTORE DUP10 SWAP5 POP SWAP3 POP PUSH2 0x37C0 SWAP2 POP POP JUMP JUMPDEST SWAP7 SWAP6 POP POP POP POP POP POP JUMP JUMPDEST PUSH2 0x1894 DUP5 DUP5 DUP5 DUP5 DUP1 DUP1 PUSH1 0x1F ADD PUSH1 0x20 DUP1 SWAP2 DIV MUL PUSH1 0x20 ADD PUSH1 0x40 MLOAD SWAP1 DUP2 ADD PUSH1 0x40 MSTORE DUP1 SWAP4 SWAP3 SWAP2 SWAP1 DUP2 DUP2 MSTORE PUSH1 0x20 ADD DUP4 DUP4 DUP1 DUP3 DUP5 CALLDATACOPY POP PUSH2 0x3172 SWAP5 POP POP POP POP POP JUMP JUMPDEST PUSH1 0x10 SLOAD PUSH1 0x1 PUSH1 0xA0 PUSH1 0x2 EXP SUB AND DUP2 JUMP JUMPDEST PUSH1 0x0 PUSH2 0xF54 DUP4 DUP4 PUSH2 0x2E90 JUMP JUMPDEST PUSH1 0x1 PUSH1 0xA0 PUSH1 0x2 EXP SUB DUP3 AND CALLER EQ ISZERO PUSH2 0x27F5 JUMPI PUSH1 0x40 DUP1 MLOAD PUSH1 0xE5 PUSH1 0x2 EXP PUSH3 0x461BCD MUL DUP2 MSTORE PUSH1 0x20 PUSH1 0x4 DUP3 ADD MSTORE PUSH1 0x2B PUSH1 0x24 DUP3 ADD MSTORE PUSH32 0x546865206F70657261746F722073686F756C6420626520646966666572656E74 PUSH1 0x44 DUP3 ADD MSTORE PUSH32 0x2066726F6D206F776E6572000000000000000000000000000000000000000000 PUSH1 0x64 DUP3 ADD MSTORE SWAP1 MLOAD SWAP1 DUP2 SWAP1 SUB PUSH1 0x84 ADD SWAP1 REVERT JUMPDEST PUSH1 0x1 PUSH1 0xA0 PUSH1 0x2 EXP SUB DUP4 AND CALLER EQ DUP1 PUSH2 0x2811 JUMPI POP PUSH2 0x2811 DUP4 CALLER PUSH2 0x2E90 JUMP JUMPDEST ISZERO ISZERO PUSH2 0x2867 JUMPI PUSH1 0x40 DUP1 MLOAD PUSH1 0xE5 PUSH1 0x2 EXP PUSH3 0x461BCD MUL DUP2 MSTORE PUSH1 0x20 PUSH1 0x4 DUP3 ADD MSTORE PUSH1 0x11 PUSH1 0x24 DUP3 ADD MSTORE PUSH32 0x556E617574686F72697A65642075736572000000000000000000000000000000 PUSH1 0x44 DUP3 ADD MSTORE SWAP1 MLOAD SWAP1 DUP2 SWAP1 SUB PUSH1 0x64 ADD SWAP1 REVERT JUMPDEST PUSH1 0x1 PUSH1 0xA0 PUSH1 0x2 EXP SUB DUP4 DUP2 AND PUSH1 0x0 DUP2 DUP2 MSTORE PUSH1 0x12 PUSH1 0x20 SWAP1 DUP2 MSTORE PUSH1 0x40 DUP1 DUP4 KECCAK256 SWAP5 DUP8 AND DUP1 DUP5 MSTORE SWAP5 DUP3 MSTORE SWAP2 DUP3 SWAP1 KECCAK256 DUP1 SLOAD PUSH1 0xFF NOT AND DUP7 ISZERO ISZERO SWAP1 DUP2 OR SWAP1 SWAP2 SSTORE DUP3 MLOAD SWAP1 DUP2 MSTORE SWAP2 MLOAD CALLER SWAP5 SWAP4 SWAP3 PUSH32 0xD79FBFE1644C022B9150727D871532BFCC3E27FFEE86FC596A062770AC97B042 SWAP3 SWAP1 DUP3 SWAP1 SUB ADD SWAP1 LOG4 POP POP POP JUMP JUMPDEST PUSH1 0x2 SLOAD PUSH1 0x1 PUSH1 0xA0 PUSH1 0x2 EXP SUB AND CALLER EQ PUSH2 0x28EC JUMPI INVALID JUMPDEST PUSH1 0x2 SLOAD PUSH1 0x1 PUSH1 0xA0 PUSH1 0x2 EXP SUB DUP3 DUP2 AND SWAP2 AND EQ ISZERO PUSH2 0x2952 JUMPI PUSH1 0x40 DUP1 MLOAD PUSH1 0xE5 PUSH1 0x2 EXP PUSH3 0x461BCD MUL DUP2 MSTORE PUSH1 0x20 PUSH1 0x4 DUP3 ADD MSTORE PUSH1 0x1B PUSH1 0x24 DUP3 ADD MSTORE PUSH32 0x43616E6E6F74207472616E7366657220746F20796F757273656C660000000000 PUSH1 0x44 DUP3 ADD MSTORE SWAP1 MLOAD SWAP1 DUP2 SWAP1 SUB PUSH1 0x64 ADD SWAP1 REVERT JUMPDEST PUSH1 0x2 DUP1 SLOAD PUSH1 0x1 PUSH1 0xA0 PUSH1 0x2 EXP SUB NOT AND PUSH1 0x1 PUSH1 0xA0 PUSH1 0x2 EXP SUB SWAP3 SWAP1 SWAP3 AND SWAP2 SWAP1 SWAP2 OR SWAP1 SSTORE JUMP JUMPDEST PUSH1 0x0 DUP1 DUP1 DUP7 GT PUSH2 0x29D0 JUMPI PUSH1 0x40 DUP1 MLOAD PUSH1 0xE5 PUSH1 0x2 EXP PUSH3 0x461BCD MUL DUP2 MSTORE PUSH1 0x20 PUSH1 0x4 DUP3 ADD MSTORE PUSH1 0x29 PUSH1 0x24 DUP3 ADD MSTORE PUSH1 0x0 DUP1 MLOAD PUSH1 0x20 PUSH2 0x4352 DUP4 CODECOPY DUP2 MLOAD SWAP2 MSTORE PUSH1 0x44 DUP3 ADD MSTORE PUSH1 0x0 DUP1 MLOAD PUSH1 0x20 PUSH2 0x4372 DUP4 CODECOPY DUP2 MLOAD SWAP2 MSTORE PUSH1 0x64 DUP3 ADD MSTORE SWAP1 MLOAD SWAP1 DUP2 SWAP1 SUB PUSH1 0x84 ADD SWAP1 REVERT JUMPDEST DUP6 DUP5 EQ PUSH2 0x2A29 JUMPI PUSH1 0x40 DUP1 MLOAD PUSH1 0xE5 PUSH1 0x2 EXP PUSH3 0x461BCD MUL DUP2 MSTORE PUSH1 0x20 PUSH1 0x4 DUP3 ADD MSTORE PUSH1 0x2B PUSH1 0x24 DUP3 ADD MSTORE PUSH1 0x0 DUP1 MLOAD PUSH1 0x20 PUSH2 0x42F2 DUP4 CODECOPY DUP2 MLOAD SWAP2 MSTORE PUSH1 0x44 DUP3 ADD MSTORE PUSH1 0x0 DUP1 MLOAD PUSH1 0x20 PUSH2 0x4312 DUP4 CODECOPY DUP2 MLOAD SWAP2 MSTORE PUSH1 0x64 DUP3 ADD MSTORE SWAP1 MLOAD SWAP1 DUP2 SWAP1 SUB PUSH1 0x84 ADD SWAP1 REVERT JUMPDEST PUSH1 0x10 SLOAD PUSH1 0x40 DUP1 MLOAD PUSH32 0x6352211E00000000000000000000000000000000000000000000000000000000 DUP2 MSTORE PUSH1 0x4 DUP2 ADD DUP7 SWAP1 MSTORE SWAP1 MLOAD CALLER SWAP3 PUSH1 0x1 PUSH1 0xA0 PUSH1 0x2 EXP SUB AND SWAP2 PUSH4 0x6352211E SWAP2 PUSH1 0x24 DUP1 DUP4 ADD SWAP3 PUSH1 0x20 SWAP3 SWAP2 SWAP1 DUP3 SWAP1 SUB ADD DUP2 PUSH1 0x0 DUP8 DUP1 EXTCODESIZE ISZERO DUP1 ISZERO PUSH2 0x2A8F JUMPI PUSH1 0x0 DUP1 REVERT JUMPDEST POP GAS CALL ISZERO DUP1 ISZERO PUSH2 0x2AA3 JUMPI RETURNDATASIZE PUSH1 0x0 DUP1 RETURNDATACOPY RETURNDATASIZE PUSH1 0x0 REVERT JUMPDEST POP POP POP POP PUSH1 0x40 MLOAD RETURNDATASIZE PUSH1 0x20 DUP2 LT ISZERO PUSH2 0x2AB9 JUMPI PUSH1 0x0 DUP1 REVERT JUMPDEST POP MLOAD PUSH1 0x1 PUSH1 0xA0 PUSH1 0x2 EXP SUB AND EQ PUSH2 0x2B3F JUMPI PUSH1 0x40 DUP1 MLOAD PUSH1 0xE5 PUSH1 0x2 EXP PUSH3 0x461BCD MUL DUP2 MSTORE PUSH1 0x20 PUSH1 0x4 DUP3 ADD MSTORE PUSH1 0x2F PUSH1 0x24 DUP3 ADD MSTORE PUSH32 0x596F75206D757374206F776E207468652045737461746520796F752077616E74 PUSH1 0x44 DUP3 ADD MSTORE PUSH32 0x20746F207472616E7366657220746F0000000000000000000000000000000000 PUSH1 0x64 DUP3 ADD MSTORE SWAP1 MLOAD SWAP1 DUP2 SWAP1 SUB PUSH1 0x84 ADD SWAP1 REVERT JUMPDEST PUSH1 0x0 SWAP2 POP JUMPDEST DUP6 DUP3 LT ISZERO PUSH2 0x158E JUMPI PUSH2 0x2B5B DUP8 DUP8 DUP5 DUP2 DUP2 LT PUSH2 0x1A91 JUMPI INVALID JUMPDEST SWAP1 POP PUSH2 0x2B86 PUSH2 0x2B69 DUP3 PUSH2 0x2E75 JUMP JUMPDEST PUSH1 0x10 SLOAD PUSH1 0x1 PUSH1 0xA0 PUSH1 0x2 EXP SUB AND DUP4 PUSH2 0x2B7F DUP8 PUSH2 0x3B35 JUMP JUMPDEST PUSH1 0x1 PUSH2 0x331F JUMP JUMPDEST PUSH1 0x1 SWAP1 SWAP2 ADD SWAP1 PUSH2 0x2B44 JUMP JUMPDEST PUSH1 0x10 SLOAD PUSH1 0x40 DUP1 MLOAD PUSH32 0x6352211E00000000000000000000000000000000000000000000000000000000 DUP2 MSTORE PUSH1 0x4 DUP2 ADD DUP5 SWAP1 MSTORE SWAP1 MLOAD PUSH1 0x0 SWAP3 CALLER SWAP3 PUSH1 0x1 PUSH1 0xA0 PUSH1 0x2 EXP SUB SWAP1 SWAP2 AND SWAP2 PUSH4 0x6352211E SWAP2 PUSH1 0x24 DUP1 DUP3 ADD SWAP3 PUSH1 0x20 SWAP3 SWAP1 SWAP2 SWAP1 DUP3 SWAP1 SUB ADD DUP2 DUP9 DUP8 DUP1 EXTCODESIZE ISZERO DUP1 ISZERO PUSH2 0x2BFC JUMPI PUSH1 0x0 DUP1 REVERT JUMPDEST POP GAS CALL ISZERO DUP1 ISZERO PUSH2 0x2C10 JUMPI RETURNDATASIZE PUSH1 0x0 DUP1 RETURNDATACOPY RETURNDATASIZE PUSH1 0x0 REVERT JUMPDEST POP POP POP POP PUSH1 0x40 MLOAD RETURNDATASIZE PUSH1 0x20 DUP2 LT ISZERO PUSH2 0x2C26 JUMPI PUSH1 0x0 DUP1 REVERT JUMPDEST POP MLOAD PUSH1 0x1 PUSH1 0xA0 PUSH1 0x2 EXP SUB AND EQ PUSH2 0x2CAC JUMPI PUSH1 0x40 DUP1 MLOAD PUSH1 0xE5 PUSH1 0x2 EXP PUSH3 0x461BCD MUL DUP2 MSTORE PUSH1 0x20 PUSH1 0x4 DUP3 ADD MSTORE PUSH1 0x2F PUSH1 0x24 DUP3 ADD MSTORE PUSH32 0x596F75206D757374206F776E207468652045737461746520796F752077616E74 PUSH1 0x44 DUP3 ADD MSTORE PUSH32 0x20746F207472616E7366657220746F0000000000000000000000000000000000 PUSH1 0x64 DUP3 ADD MSTORE SWAP1 MLOAD SWAP1 DUP2 SWAP1 SUB PUSH1 0x84 ADD SWAP1 REVERT JUMPDEST PUSH2 0x2CB6 DUP5 DUP5 PUSH2 0x2ED8 JUMP JUMPDEST SWAP1 POP PUSH2 0x1894 PUSH2 0x2CC4 DUP3 PUSH2 0x2E75 JUMP JUMPDEST PUSH1 0x10 SLOAD PUSH1 0x1 PUSH1 0xA0 PUSH1 0x2 EXP SUB AND DUP4 PUSH2 0x2B7F DUP7 PUSH2 0x3B35 JUMP JUMPDEST PUSH1 0x1 SLOAD PUSH1 0x1 PUSH1 0xA0 PUSH1 0x2 EXP SUB AND CALLER EQ PUSH2 0x2D3E JUMPI PUSH1 0x40 DUP1 MLOAD PUSH1 0xE5 PUSH1 0x2 EXP PUSH3 0x461BCD MUL DUP2 MSTORE PUSH1 0x20 PUSH1 0x4 DUP3 ADD MSTORE PUSH1 0x33 PUSH1 0x24 DUP3 ADD MSTORE PUSH1 0x0 DUP1 MLOAD PUSH1 0x20 PUSH2 0x4332 DUP4 CODECOPY DUP2 MLOAD SWAP2 MSTORE PUSH1 0x44 DUP3 ADD MSTORE PUSH1 0x0 DUP1 MLOAD PUSH1 0x20 PUSH2 0x42D2 DUP4 CODECOPY DUP2 MLOAD SWAP2 MSTORE PUSH1 0x64 DUP3 ADD MSTORE SWAP1 MLOAD SWAP1 DUP2 SWAP1 SUB PUSH1 0x84 ADD SWAP1 REVERT JUMPDEST PUSH1 0x1 PUSH1 0xA0 PUSH1 0x2 EXP SUB DUP2 AND ISZERO ISZERO PUSH2 0x2D9E JUMPI PUSH1 0x40 DUP1 MLOAD PUSH1 0xE5 PUSH1 0x2 EXP PUSH3 0x461BCD MUL DUP2 MSTORE PUSH1 0x20 PUSH1 0x4 DUP3 ADD MSTORE PUSH1 0xF PUSH1 0x24 DUP3 ADD MSTORE PUSH32 0x696E76616C696420616464726573730000000000000000000000000000000000 PUSH1 0x44 DUP3 ADD MSTORE SWAP1 MLOAD SWAP1 DUP2 SWAP1 SUB PUSH1 0x64 ADD SWAP1 REVERT JUMPDEST PUSH1 0x1 PUSH1 0xA0 PUSH1 0x2 EXP SUB DUP2 AND PUSH1 0x0 SWAP1 DUP2 MSTORE PUSH1 0x11 PUSH1 0x20 MSTORE PUSH1 0x40 SWAP1 KECCAK256 SLOAD PUSH1 0xFF AND ISZERO ISZERO PUSH2 0x2E10 JUMPI PUSH1 0x40 DUP1 MLOAD PUSH1 0xE5 PUSH1 0x2 EXP PUSH3 0x461BCD MUL DUP2 MSTORE PUSH1 0x20 PUSH1 0x4 DUP3 ADD MSTORE PUSH1 0x1C PUSH1 0x24 DUP3 ADD MSTORE PUSH32 0x6164647265737320697320616C726561647920666F7262696464656E00000000 PUSH1 0x44 DUP3 ADD MSTORE SWAP1 MLOAD SWAP1 DUP2 SWAP1 SUB PUSH1 0x64 ADD SWAP1 REVERT JUMPDEST PUSH1 0x1 PUSH1 0xA0 PUSH1 0x2 EXP SUB DUP2 AND PUSH1 0x0 DUP2 DUP2 MSTORE PUSH1 0x11 PUSH1 0x20 MSTORE PUSH1 0x40 DUP1 DUP3 KECCAK256 DUP1 SLOAD PUSH1 0xFF NOT AND SWAP1 SSTORE MLOAD CALLER SWAP2 PUSH32 0x7883DA318E7694F396F400092B07B701A4ECCB02AEE0D28266ADC659CCA044DA SWAP2 LOG3 POP JUMP JUMPDEST PUSH1 0x0 SWAP1 DUP2 MSTORE PUSH1 0xC PUSH1 0x20 MSTORE PUSH1 0x40 SWAP1 KECCAK256 SLOAD PUSH1 0x1 PUSH1 0xA0 PUSH1 0x2 EXP SUB AND SWAP1 JUMP JUMPDEST PUSH1 0x0 SWAP1 DUP2 MSTORE PUSH1 0x8 PUSH1 0x20 MSTORE PUSH1 0x40 SWAP1 KECCAK256 SLOAD PUSH1 0x1 PUSH1 0xA0 PUSH1 0x2 EXP SUB AND SWAP1 JUMP JUMPDEST PUSH1 0x1 PUSH1 0xA0 PUSH1 0x2 EXP SUB SWAP2 DUP3 AND PUSH1 0x0 SWAP1 DUP2 MSTORE PUSH1 0xB PUSH1 0x20 SWAP1 DUP2 MSTORE PUSH1 0x40 DUP1 DUP4 KECCAK256 SWAP4 SWAP1 SWAP5 AND DUP3 MSTORE SWAP2 SWAP1 SWAP2 MSTORE KECCAK256 SLOAD PUSH1 0xFF AND SWAP1 JUMP JUMPDEST PUSH1 0x0 PUSH2 0xF54 PUSH2 0x2ECD DUP5 DUP5 PUSH2 0x2ED8 JUMP JUMPDEST PUSH2 0x2E75 JUMP JUMPDEST PUSH1 0x6 SLOAD SWAP1 JUMP JUMPDEST PUSH1 0x0 DUP3 PUSH3 0xF423F NOT SLT DUP1 ISZERO PUSH2 0x2EEF JUMPI POP PUSH3 0xF4240 DUP4 SLT JUMPDEST DUP1 ISZERO PUSH2 0x2EFE JUMPI POP DUP2 PUSH3 0xF423F NOT SLT JUMPDEST DUP1 ISZERO PUSH2 0x2F0C JUMPI POP PUSH3 0xF4240 DUP3 SLT JUMPDEST ISZERO ISZERO PUSH2 0x2F88 JUMPI PUSH1 0x40 DUP1 MLOAD PUSH1 0xE5 PUSH1 0x2 EXP PUSH3 0x461BCD MUL DUP2 MSTORE PUSH1 0x20 PUSH1 0x4 DUP3 ADD MSTORE PUSH1 0x27 PUSH1 0x24 DUP3 ADD MSTORE PUSH32 0x54686520636F6F7264696E617465732073686F756C6420626520696E73696465 PUSH1 0x44 DUP3 ADD MSTORE PUSH32 0x20626F756E647300000000000000000000000000000000000000000000000000 PUSH1 0x64 DUP3 ADD MSTORE SWAP1 MLOAD SWAP1 DUP2 SWAP1 SUB PUSH1 0x84 ADD SWAP1 REVERT JUMPDEST PUSH2 0xF54 DUP4 DUP4 PUSH2 0x3B60 JUMP JUMPDEST PUSH1 0x0 DUP3 DUP2 MSTORE PUSH1 0x8 PUSH1 0x20 MSTORE PUSH1 0x40 SWAP1 KECCAK256 SLOAD PUSH1 0x1 PUSH1 0xA0 PUSH1 0x2 EXP SUB AND ISZERO PUSH2 0x2FB4 JUMPI PUSH1 0x0 DUP1 REVERT JUMPDEST PUSH2 0x2FBE DUP2 DUP4 PUSH2 0x3BA1 JUMP JUMPDEST DUP2 DUP2 PUSH1 0x1 PUSH1 0xA0 PUSH1 0x2 EXP SUB AND PUSH1 0x0 PUSH32 0xDDF252AD1BE2C89B69C2B068FC378DAA952BA7F163C4A11628F55A4DF523B3EF PUSH1 0x40 MLOAD PUSH1 0x40 MLOAD DUP1 SWAP2 SUB SWAP1 LOG4 POP POP JUMP JUMPDEST PUSH1 0x1 PUSH1 0xA0 PUSH1 0x2 EXP SUB DUP3 AND PUSH1 0x0 SWAP1 DUP2 MSTORE PUSH1 0x14 PUSH1 0x20 MSTORE PUSH1 0x40 SWAP1 KECCAK256 SLOAD PUSH1 0xFF AND ISZERO PUSH2 0x30B8 JUMPI PUSH1 0x13 SLOAD PUSH1 0x40 DUP1 MLOAD PUSH32 0xD3CE77FE00000000000000000000000000000000000000000000000000000000 DUP2 MSTORE PUSH1 0x1 PUSH1 0xA0 PUSH1 0x2 EXP SUB DUP6 DUP2 AND PUSH1 0x4 DUP4 ADD MSTORE PUSH1 0x1 PUSH1 0x24 DUP4 ADD MSTORE SWAP2 MLOAD SWAP2 SWAP1 SWAP3 AND SWAP2 PUSH4 0xD3CE77FE SWAP2 PUSH1 0x44 DUP1 DUP4 ADD SWAP3 PUSH1 0x20 SWAP3 SWAP2 SWAP1 DUP3 SWAP1 SUB ADD DUP2 PUSH1 0x0 DUP8 DUP1 EXTCODESIZE ISZERO DUP1 ISZERO PUSH2 0x308B JUMPI PUSH1 0x0 DUP1 REVERT JUMPDEST POP GAS CALL ISZERO DUP1 ISZERO PUSH2 0x309F JUMPI RETURNDATASIZE PUSH1 0x0 DUP1 RETURNDATACOPY RETURNDATASIZE PUSH1 0x0 REVERT JUMPDEST POP POP POP POP PUSH1 0x40 MLOAD RETURNDATASIZE PUSH1 0x20 DUP2 LT ISZERO PUSH2 0x30B5 JUMPI PUSH1 0x0 DUP1 REVERT JUMPDEST POP POP JUMPDEST PUSH1 0x1 PUSH1 0xA0 PUSH1 0x2 EXP SUB DUP2 AND PUSH1 0x0 SWAP1 DUP2 MSTORE PUSH1 0x14 PUSH1 0x20 MSTORE PUSH1 0x40 SWAP1 KECCAK256 SLOAD PUSH1 0xFF AND ISZERO PUSH2 0x21CF JUMPI PUSH1 0x13 SLOAD PUSH1 0x40 DUP1 MLOAD PUSH32 0x827F32C000000000000000000000000000000000000000000000000000000000 DUP2 MSTORE PUSH1 0x1 PUSH1 0xA0 PUSH1 0x2 EXP SUB DUP5 DUP2 AND PUSH1 0x4 DUP4 ADD MSTORE PUSH1 0x1 PUSH1 0x24 DUP4 ADD MSTORE SWAP2 MLOAD SWAP2 SWAP1 SWAP3 AND SWAP2 PUSH4 0x827F32C0 SWAP2 PUSH1 0x44 DUP1 DUP4 ADD SWAP3 PUSH1 0x20 SWAP3 SWAP2 SWAP1 DUP3 SWAP1 SUB ADD DUP2 PUSH1 0x0 DUP8 DUP1 EXTCODESIZE ISZERO DUP1 ISZERO PUSH2 0x3148 JUMPI PUSH1 0x0 DUP1 REVERT JUMPDEST POP GAS CALL ISZERO DUP1 ISZERO PUSH2 0x315C JUMPI RETURNDATASIZE PUSH1 0x0 DUP1 RETURNDATACOPY RETURNDATASIZE PUSH1 0x0 REVERT JUMPDEST POP POP POP POP PUSH1 0x40 MLOAD RETURNDATASIZE PUSH1 0x20 DUP2 LT ISZERO PUSH2 0x1894 JUMPI PUSH1 0x0 DUP1 REVERT JUMPDEST PUSH1 0x0 DUP1 PUSH2 0x317F DUP6 DUP6 PUSH2 0x2ED8 JUMP JUMPDEST PUSH2 0x3188 DUP2 PUSH2 0x2E75 JUMP JUMPDEST PUSH1 0x1 PUSH1 0xA0 PUSH1 0x2 EXP SUB AND CALLER PUSH1 0x1 PUSH1 0xA0 PUSH1 0x2 EXP SUB AND EQ DUP1 PUSH2 0x31AC JUMPI POP PUSH2 0x31AC CALLER DUP3 PUSH2 0x3352 JUMP JUMPDEST DUP1 PUSH2 0x31BC JUMPI POP PUSH2 0x31BC CALLER DUP3 PUSH2 0x3667 JUMP JUMPDEST ISZERO ISZERO PUSH2 0x3238 JUMPI PUSH1 0x40 DUP1 MLOAD PUSH1 0xE5 PUSH1 0x2 EXP PUSH3 0x461BCD MUL DUP2 MSTORE PUSH1 0x20 PUSH1 0x4 DUP3 ADD MSTORE PUSH1 0x26 PUSH1 0x24 DUP3 ADD MSTORE PUSH32 0x6D73672E73656E646572206973206E6F7420617574686F72697A656420746F20 PUSH1 0x44 DUP3 ADD MSTORE PUSH32 0x7570646174650000000000000000000000000000000000000000000000000000 PUSH1 0x64 DUP3 ADD MSTORE SWAP1 MLOAD SWAP1 DUP2 SWAP1 SUB PUSH1 0x84 ADD SWAP1 REVERT JUMPDEST PUSH2 0x3242 DUP7 DUP7 PUSH2 0x2ED8 JUMP JUMPDEST PUSH1 0x0 DUP2 DUP2 MSTORE PUSH1 0x8 PUSH1 0x20 MSTORE PUSH1 0x40 SWAP1 KECCAK256 SLOAD SWAP1 SWAP4 POP PUSH1 0x1 PUSH1 0xA0 PUSH1 0x2 EXP SUB AND SWAP2 POP PUSH2 0x3269 DUP4 DUP6 PUSH2 0x3C2B JUMP JUMPDEST CALLER PUSH1 0x1 PUSH1 0xA0 PUSH1 0x2 EXP SUB AND DUP3 PUSH1 0x1 PUSH1 0xA0 PUSH1 0x2 EXP SUB AND DUP5 PUSH32 0x47C705B9219229AD762FCA605F08FB024A3415D0AE78AF5D319820C72E510414 DUP8 PUSH1 0x40 MLOAD DUP1 DUP1 PUSH1 0x20 ADD DUP3 DUP2 SUB DUP3 MSTORE DUP4 DUP2 DUP2 MLOAD DUP2 MSTORE PUSH1 0x20 ADD SWAP2 POP DUP1 MLOAD SWAP1 PUSH1 0x20 ADD SWAP1 DUP1 DUP4 DUP4 PUSH1 0x0 JUMPDEST DUP4 DUP2 LT ISZERO PUSH2 0x32DD JUMPI DUP2 DUP2 ADD MLOAD DUP4 DUP3 ADD MSTORE PUSH1 0x20 ADD PUSH2 0x32C5 JUMP JUMPDEST POP POP POP POP SWAP1 POP SWAP1 DUP2 ADD SWAP1 PUSH1 0x1F AND DUP1 ISZERO PUSH2 0x330A JUMPI DUP1 DUP3 SUB DUP1 MLOAD PUSH1 0x1 DUP4 PUSH1 0x20 SUB PUSH2 0x100 EXP SUB NOT AND DUP2 MSTORE PUSH1 0x20 ADD SWAP2 POP JUMPDEST POP SWAP3 POP POP POP PUSH1 0x40 MLOAD DUP1 SWAP2 SUB SWAP1 LOG4 POP POP POP POP POP POP JUMP JUMPDEST PUSH1 0x0 DUP4 DUP2 MSTORE PUSH1 0xF PUSH1 0x20 MSTORE PUSH1 0x40 SWAP1 KECCAK256 DUP1 SLOAD PUSH1 0x1 PUSH1 0xA0 PUSH1 0x2 EXP SUB NOT AND SWAP1 SSTORE PUSH2 0x3345 DUP6 DUP6 PUSH2 0x2FFB JUMP JUMPDEST PUSH2 0x2315 DUP6 DUP6 DUP6 DUP6 DUP6 PUSH2 0x3C4A JUMP JUMPDEST PUSH1 0x0 DUP1 PUSH1 0x1 PUSH1 0xA0 PUSH1 0x2 EXP SUB DUP5 AND ISZERO ISZERO PUSH2 0x336A JUMPI PUSH1 0x0 DUP1 REVERT JUMPDEST PUSH2 0x3373 DUP4 PUSH2 0x2E75 JUMP JUMPDEST SWAP1 POP DUP1 PUSH1 0x1 PUSH1 0xA0 PUSH1 0x2 EXP SUB AND DUP5 PUSH1 0x1 PUSH1 0xA0 PUSH1 0x2 EXP SUB AND EQ ISZERO PUSH2 0x3398 JUMPI PUSH1 0x1 SWAP2 POP PUSH2 0x33C9 JUMP JUMPDEST PUSH2 0x33A2 DUP2 DUP6 PUSH2 0x2E90 JUMP JUMPDEST DUP1 PUSH2 0x33C6 JUMPI POP DUP4 PUSH1 0x1 PUSH1 0xA0 PUSH1 0x2 EXP SUB AND PUSH2 0x33BB DUP5 PUSH2 0x2E5A JUMP JUMPDEST PUSH1 0x1 PUSH1 0xA0 PUSH1 0x2 EXP SUB AND EQ JUMPDEST SWAP2 POP JUMPDEST POP SWAP3 SWAP2 POP POP JUMP JUMPDEST PUSH1 0x60 PUSH1 0x0 PUSH2 0x33DD DUP4 PUSH2 0x2E75 JUMP JUMPDEST SWAP1 POP PUSH2 0x33E8 DUP2 PUSH2 0x3C6D JUMP JUMPDEST DUP1 ISZERO PUSH2 0x3402 JUMPI POP PUSH1 0x10 SLOAD PUSH1 0x1 PUSH1 0xA0 PUSH1 0x2 EXP SUB DUP3 DUP2 AND SWAP2 AND EQ ISZERO JUMPDEST ISZERO PUSH2 0x35A9 JUMPI PUSH1 0x40 DUP1 MLOAD PUSH32 0x6765744D657461646174612875696E7432353629000000000000000000000000 DUP2 MSTORE DUP2 MLOAD SWAP1 DUP2 SWAP1 SUB PUSH1 0x14 ADD DUP2 KECCAK256 PUSH32 0x1FFC9A700000000000000000000000000000000000000000000000000000000 DUP3 MSTORE PUSH1 0x1 PUSH1 0xE0 PUSH1 0x2 EXP SUB NOT AND PUSH1 0x4 DUP3 ADD MSTORE SWAP1 MLOAD PUSH1 0x1 PUSH1 0xA0 PUSH1 0x2 EXP SUB DUP4 AND SWAP2 PUSH4 0x1FFC9A7 SWAP2 PUSH1 0x24 DUP1 DUP4 ADD SWAP3 PUSH1 0x20 SWAP3 SWAP2 SWAP1 DUP3 SWAP1 SUB ADD DUP2 PUSH1 0x0 DUP8 DUP1 EXTCODESIZE ISZERO DUP1 ISZERO PUSH2 0x349F JUMPI PUSH1 0x0 DUP1 REVERT JUMPDEST POP GAS CALL ISZERO DUP1 ISZERO PUSH2 0x34B3 JUMPI RETURNDATASIZE PUSH1 0x0 DUP1 RETURNDATACOPY RETURNDATASIZE PUSH1 0x0 REVERT JUMPDEST POP POP POP POP PUSH1 0x40 MLOAD RETURNDATASIZE PUSH1 0x20 DUP2 LT ISZERO PUSH2 0x34C9 JUMPI PUSH1 0x0 DUP1 REVERT JUMPDEST POP MLOAD ISZERO PUSH2 0x35A9 JUMPI DUP1 PUSH1 0x1 PUSH1 0xA0 PUSH1 0x2 EXP SUB AND PUSH4 0xA574CEA4 DUP5 PUSH1 0x40 MLOAD DUP3 PUSH4 0xFFFFFFFF AND PUSH1 0xE0 PUSH1 0x2 EXP MUL DUP2 MSTORE PUSH1 0x4 ADD DUP1 DUP3 DUP2 MSTORE PUSH1 0x20 ADD SWAP2 POP POP PUSH1 0x0 PUSH1 0x40 MLOAD DUP1 DUP4 SUB DUP2 PUSH1 0x0 DUP8 DUP1 EXTCODESIZE ISZERO DUP1 ISZERO PUSH2 0x3519 JUMPI PUSH1 0x0 DUP1 REVERT JUMPDEST POP GAS CALL ISZERO DUP1 ISZERO PUSH2 0x352D JUMPI RETURNDATASIZE PUSH1 0x0 DUP1 RETURNDATACOPY RETURNDATASIZE PUSH1 0x0 REVERT JUMPDEST POP POP POP POP PUSH1 0x40 MLOAD RETURNDATASIZE PUSH1 0x0 DUP3 RETURNDATACOPY PUSH1 0x1F RETURNDATASIZE SWAP1 DUP2 ADD PUSH1 0x1F NOT AND DUP3 ADD PUSH1 0x40 MSTORE PUSH1 0x20 DUP2 LT ISZERO PUSH2 0x3556 JUMPI PUSH1 0x0 DUP1 REVERT JUMPDEST DUP2 ADD SWAP1 DUP1 DUP1 MLOAD PUSH5 0x100000000 DUP2 GT ISZERO PUSH2 0x356E JUMPI PUSH1 0x0 DUP1 REVERT JUMPDEST DUP3 ADD PUSH1 0x20 DUP2 ADD DUP5 DUP2 GT ISZERO PUSH2 0x3581 JUMPI PUSH1 0x0 DUP1 REVERT JUMPDEST DUP2 MLOAD PUSH5 0x100000000 DUP2 GT DUP3 DUP3 ADD DUP8 LT OR ISZERO PUSH2 0x359B JUMPI PUSH1 0x0 DUP1 REVERT JUMPDEST POP SWAP1 SWAP6 POP PUSH2 0x3644 SWAP4 POP POP POP POP JUMP JUMPDEST PUSH1 0x0 DUP4 DUP2 MSTORE PUSH1 0xA PUSH1 0x20 SWAP1 DUP2 MSTORE PUSH1 0x40 SWAP2 DUP3 SWAP1 KECCAK256 DUP1 SLOAD DUP4 MLOAD PUSH1 0x1F PUSH1 0x2 PUSH1 0x0 NOT PUSH2 0x100 PUSH1 0x1 DUP7 AND ISZERO MUL ADD SWAP1 SWAP4 AND SWAP3 SWAP1 SWAP3 DIV SWAP2 DUP3 ADD DUP5 SWAP1 DIV DUP5 MUL DUP2 ADD DUP5 ADD SWAP1 SWAP5 MSTORE DUP1 DUP5 MSTORE SWAP1 SWAP2 DUP4 ADD DUP3 DUP3 DUP1 ISZERO PUSH2 0x363C JUMPI DUP1 PUSH1 0x1F LT PUSH2 0x3611 JUMPI PUSH2 0x100 DUP1 DUP4 SLOAD DIV MUL DUP4 MSTORE SWAP2 PUSH1 0x20 ADD SWAP2 PUSH2 0x363C JUMP JUMPDEST DUP3 ADD SWAP2 SWAP1 PUSH1 0x0 MSTORE PUSH1 0x20 PUSH1 0x0 KECCAK256 SWAP1 JUMPDEST DUP2 SLOAD DUP2 MSTORE SWAP1 PUSH1 0x1 ADD SWAP1 PUSH1 0x20 ADD DUP1 DUP4 GT PUSH2 0x361F JUMPI DUP3 SWAP1 SUB PUSH1 0x1F AND DUP3 ADD SWAP2 JUMPDEST POP POP POP POP POP SWAP2 POP JUMPDEST POP SWAP2 SWAP1 POP JUMP JUMPDEST PUSH1 0x0 SWAP1 DUP2 MSTORE PUSH1 0x8 PUSH1 0x20 MSTORE PUSH1 0x40 SWAP1 KECCAK256 SLOAD PUSH1 0x1 PUSH1 0xA0 PUSH1 0x2 EXP SUB AND ISZERO ISZERO SWAP1 JUMP JUMPDEST PUSH1 0x0 DUP1 PUSH2 0x3673 DUP4 PUSH2 0x2E75 JUMP JUMPDEST SWAP1 POP DUP4 PUSH1 0x1 PUSH1 0xA0 PUSH1 0x2 EXP SUB AND DUP2 PUSH1 0x1 PUSH1 0xA0 PUSH1 0x2 EXP SUB AND EQ DUP1 PUSH2 0x36AE JUMPI POP PUSH1 0x0 DUP4 DUP2 MSTORE PUSH1 0xF PUSH1 0x20 MSTORE PUSH1 0x40 SWAP1 KECCAK256 SLOAD PUSH1 0x1 PUSH1 0xA0 PUSH1 0x2 EXP SUB DUP6 DUP2 AND SWAP2 AND EQ JUMPDEST DUP1 PUSH2 0x33C6 JUMPI POP PUSH1 0x1 PUSH1 0xA0 PUSH1 0x2 EXP SUB DUP1 DUP3 AND PUSH1 0x0 SWAP1 DUP2 MSTORE PUSH1 0x12 PUSH1 0x20 SWAP1 DUP2 MSTORE PUSH1 0x40 DUP1 DUP4 KECCAK256 SWAP4 DUP9 AND DUP4 MSTORE SWAP3 SWAP1 MSTORE KECCAK256 SLOAD PUSH1 0xFF AND SWAP2 POP POP SWAP3 SWAP2 POP POP JUMP JUMPDEST PUSH1 0x1 PUSH1 0xA0 PUSH1 0x2 EXP SUB AND PUSH1 0x0 SWAP1 DUP2 MSTORE PUSH1 0x7 PUSH1 0x20 MSTORE PUSH1 0x40 SWAP1 KECCAK256 SLOAD SWAP1 JUMP JUMPDEST PUSH1 0x0 DUP1 PUSH2 0x370D DUP4 PUSH2 0x3C75 JUMP JUMPDEST SWAP1 SWAP3 POP SWAP1 POP PUSH3 0xF423F NOT DUP3 SGT DUP1 ISZERO PUSH2 0x3727 JUMPI POP PUSH3 0xF4240 DUP3 SLT JUMPDEST DUP1 ISZERO PUSH2 0x3736 JUMPI POP DUP1 PUSH3 0xF423F NOT SLT JUMPDEST DUP1 ISZERO PUSH2 0x3744 JUMPI POP PUSH3 0xF4240 DUP2 SLT JUMPDEST ISZERO ISZERO PUSH2 0x1DEF JUMPI PUSH1 0x40 DUP1 MLOAD PUSH1 0xE5 PUSH1 0x2 EXP PUSH3 0x461BCD MUL DUP2 MSTORE PUSH1 0x20 PUSH1 0x4 DUP3 ADD MSTORE PUSH1 0x27 PUSH1 0x24 DUP3 ADD MSTORE PUSH32 0x54686520636F6F7264696E617465732073686F756C6420626520696E73696465 PUSH1 0x44 DUP3 ADD MSTORE PUSH32 0x20626F756E647300000000000000000000000000000000000000000000000000 PUSH1 0x64 DUP3 ADD MSTORE SWAP1 MLOAD SWAP1 DUP2 SWAP1 SUB PUSH1 0x84 ADD SWAP1 REVERT JUMPDEST PUSH1 0x0 DUP1 PUSH1 0x60 PUSH1 0x0 DUP1 PUSH1 0x0 DUP10 MLOAD GT ISZERO ISZERO PUSH2 0x3825 JUMPI PUSH1 0x40 DUP1 MLOAD PUSH1 0xE5 PUSH1 0x2 EXP PUSH3 0x461BCD MUL DUP2 MSTORE PUSH1 0x20 PUSH1 0x4 DUP3 ADD MSTORE PUSH1 0x29 PUSH1 0x24 DUP3 ADD MSTORE PUSH1 0x0 DUP1 MLOAD PUSH1 0x20 PUSH2 0x4352 DUP4 CODECOPY DUP2 MLOAD SWAP2 MSTORE PUSH1 0x44 DUP3 ADD MSTORE PUSH1 0x0 DUP1 MLOAD PUSH1 0x20 PUSH2 0x4372 DUP4 CODECOPY DUP2 MLOAD SWAP2 MSTORE PUSH1 0x64 DUP3 ADD MSTORE SWAP1 MLOAD SWAP1 DUP2 SWAP1 SUB PUSH1 0x84 ADD SWAP1 REVERT JUMPDEST DUP8 MLOAD DUP10 MLOAD EQ PUSH2 0x3880 JUMPI PUSH1 0x40 DUP1 MLOAD PUSH1 0xE5 PUSH1 0x2 EXP PUSH3 0x461BCD MUL DUP2 MSTORE PUSH1 0x20 PUSH1 0x4 DUP3 ADD MSTORE PUSH1 0x2B PUSH1 0x24 DUP3 ADD MSTORE PUSH1 0x0 DUP1 MLOAD PUSH1 0x20 PUSH2 0x42F2 DUP4 CODECOPY DUP2 MLOAD SWAP2 MSTORE PUSH1 0x44 DUP3 ADD MSTORE PUSH1 0x0 DUP1 MLOAD PUSH1 0x20 PUSH2 0x4312 DUP4 CODECOPY DUP2 MLOAD SWAP2 MSTORE PUSH1 0x64 DUP3 ADD MSTORE SWAP1 MLOAD SWAP1 DUP2 SWAP1 SUB PUSH1 0x84 ADD SWAP1 REVERT JUMPDEST PUSH1 0x10 SLOAD PUSH1 0x1 PUSH1 0xA0 PUSH1 0x2 EXP SUB AND ISZERO ISZERO PUSH2 0x3908 JUMPI PUSH1 0x40 DUP1 MLOAD PUSH1 0xE5 PUSH1 0x2 EXP PUSH3 0x461BCD MUL DUP2 MSTORE PUSH1 0x20 PUSH1 0x4 DUP3 ADD MSTORE PUSH1 0x21 PUSH1 0x24 DUP3 ADD MSTORE PUSH32 0x546865204573746174652072656769737472792073686F756C64206265207365 PUSH1 0x44 DUP3 ADD MSTORE PUSH32 0x7400000000000000000000000000000000000000000000000000000000000000 PUSH1 0x64 DUP3 ADD MSTORE SWAP1 MLOAD SWAP1 DUP2 SWAP1 SUB PUSH1 0x84 ADD SWAP1 REVERT JUMPDEST PUSH1 0x10 SLOAD PUSH1 0x40 DUP1 MLOAD PUSH32 0xD0DEF52100000000000000000000000000000000000000000000000000000000 DUP2 MSTORE PUSH1 0x1 PUSH1 0xA0 PUSH1 0x2 EXP SUB DUP11 DUP2 AND PUSH1 0x4 DUP4 ADD SWAP1 DUP2 MSTORE PUSH1 0x24 DUP4 ADD SWAP4 DUP5 MSTORE DUP11 MLOAD PUSH1 0x44 DUP5 ADD MSTORE DUP11 MLOAD SWAP2 SWAP1 SWAP5 AND SWAP4 PUSH4 0xD0DEF521 SWAP4 DUP13 SWAP4 DUP13 SWAP4 PUSH1 0x64 SWAP1 SWAP2 ADD SWAP1 PUSH1 0x20 DUP6 ADD SWAP1 DUP1 DUP4 DUP4 PUSH1 0x0 JUMPDEST DUP4 DUP2 LT ISZERO PUSH2 0x398C JUMPI DUP2 DUP2 ADD MLOAD DUP4 DUP3 ADD MSTORE PUSH1 0x20 ADD PUSH2 0x3974 JUMP JUMPDEST POP POP POP POP SWAP1 POP SWAP1 DUP2 ADD SWAP1 PUSH1 0x1F AND DUP1 ISZERO PUSH2 0x39B9 JUMPI DUP1 DUP3 SUB DUP1 MLOAD PUSH1 0x1 DUP4 PUSH1 0x20 SUB PUSH2 0x100 EXP SUB NOT AND DUP2 MSTORE PUSH1 0x20 ADD SWAP2 POP JUMPDEST POP SWAP4 POP POP POP POP PUSH1 0x20 PUSH1 0x40 MLOAD DUP1 DUP4 SUB DUP2 PUSH1 0x0 DUP8 DUP1 EXTCODESIZE ISZERO DUP1 ISZERO PUSH2 0x39D9 JUMPI PUSH1 0x0 DUP1 REVERT JUMPDEST POP GAS CALL ISZERO DUP1 ISZERO PUSH2 0x39ED JUMPI RETURNDATASIZE PUSH1 0x0 DUP1 RETURNDATACOPY RETURNDATASIZE PUSH1 0x0 REVERT JUMPDEST POP POP POP POP PUSH1 0x40 MLOAD RETURNDATASIZE PUSH1 0x20 DUP2 LT ISZERO PUSH2 0x3A03 JUMPI PUSH1 0x0 DUP1 REVERT JUMPDEST POP MLOAD SWAP4 POP PUSH2 0x3A10 DUP5 PUSH2 0x3B35 JUMP JUMPDEST SWAP3 POP PUSH1 0x0 SWAP2 POP JUMPDEST DUP9 MLOAD DUP3 LT ISZERO PUSH2 0x3A86 JUMPI PUSH2 0x3A58 DUP10 DUP4 DUP2 MLOAD DUP2 LT ISZERO ISZERO PUSH2 0x3A31 JUMPI INVALID JUMPDEST SWAP1 PUSH1 0x20 ADD SWAP1 PUSH1 0x20 MUL ADD MLOAD DUP10 DUP5 DUP2 MLOAD DUP2 LT ISZERO ISZERO PUSH2 0x3A49 JUMPI INVALID JUMPDEST SWAP1 PUSH1 0x20 ADD SWAP1 PUSH1 0x20 MUL ADD MLOAD PUSH2 0x2ED8 JUMP JUMPDEST SWAP1 POP PUSH2 0x3A7B PUSH2 0x3A66 DUP3 PUSH2 0x2E75 JUMP JUMPDEST PUSH1 0x10 SLOAD PUSH1 0x1 PUSH1 0xA0 PUSH1 0x2 EXP SUB AND DUP4 DUP7 PUSH1 0x1 PUSH2 0x331F JUMP JUMPDEST PUSH1 0x1 SWAP1 SWAP2 ADD SWAP1 PUSH2 0x3A17 JUMP JUMPDEST POP SWAP2 SWAP8 SWAP7 POP POP POP POP POP POP POP JUMP JUMPDEST DUP1 ISZERO PUSH2 0x3ABC JUMPI PUSH2 0x3AA3 CALLER DUP4 PUSH2 0x2E90 JUMP JUMPDEST ISZERO PUSH2 0x3AAD JUMPI PUSH1 0x0 DUP1 REVERT JUMPDEST PUSH2 0x3AB7 DUP3 CALLER PUSH2 0x3CCB JUMP JUMPDEST PUSH2 0x3ADB JUMP JUMPDEST PUSH2 0x3AC6 CALLER DUP4 PUSH2 0x2E90 JUMP JUMPDEST ISZERO ISZERO PUSH2 0x3AD1 JUMPI PUSH1 0x0 DUP1 REVERT JUMPDEST PUSH2 0x3ADB DUP3 CALLER PUSH2 0x3D00 JUMP JUMPDEST PUSH1 0x40 DUP1 MLOAD DUP3 ISZERO ISZERO DUP2 MSTORE SWAP1 MLOAD PUSH1 0x1 PUSH1 0xA0 PUSH1 0x2 EXP SUB DUP5 AND SWAP2 CALLER SWAP2 PUSH32 0x17307EAB39AB6107E8899845AD3D59BD9653F200F220920489CA2B5937696C31 SWAP2 DUP2 SWAP1 SUB PUSH1 0x20 ADD SWAP1 LOG3 POP POP JUMP JUMPDEST PUSH1 0x0 PUSH2 0xF54 PUSH2 0x3B30 DUP5 DUP5 PUSH2 0x2ED8 JUMP JUMPDEST PUSH2 0x364A JUMP JUMPDEST PUSH1 0x40 DUP1 MLOAD PUSH1 0x20 DUP1 DUP3 MSTORE DUP2 DUP4 ADD SWAP1 SWAP3 MSTORE PUSH1 0x60 SWAP2 DUP1 DUP3 ADD PUSH2 0x400 DUP1 CODESIZE DUP4 CODECOPY POP POP POP PUSH1 0x20 DUP2 ADD SWAP3 SWAP1 SWAP3 MSTORE POP SWAP1 JUMP JUMPDEST PUSH17 0x100000000000000000000000000000000 DUP3 MUL PUSH16 0xFFFFFFFFFFFFFFFFFFFFFFFFFFFFFFFF NOT AND PUSH16 0xFFFFFFFFFFFFFFFFFFFFFFFFFFFFFFFF DUP3 AND OR SWAP3 SWAP2 POP POP JUMP JUMPDEST PUSH1 0x0 DUP2 DUP2 MSTORE PUSH1 0x8 PUSH1 0x20 MSTORE PUSH1 0x40 DUP2 KECCAK256 DUP1 SLOAD PUSH1 0x1 PUSH1 0xA0 PUSH1 0x2 EXP SUB NOT AND PUSH1 0x1 PUSH1 0xA0 PUSH1 0x2 EXP SUB DUP6 AND OR SWAP1 SSTORE PUSH2 0x3BD1 DUP4 PUSH2 0x36E6 JUMP JUMPDEST PUSH1 0x1 PUSH1 0xA0 PUSH1 0x2 EXP SUB DUP5 AND PUSH1 0x0 SWAP1 DUP2 MSTORE PUSH1 0x7 PUSH1 0x20 SWAP1 DUP2 MSTORE PUSH1 0x40 DUP1 DUP4 KECCAK256 DUP1 SLOAD PUSH1 0x1 DUP2 DUP2 ADD DUP4 SSTORE SWAP2 DUP6 MSTORE DUP4 DUP6 KECCAK256 ADD DUP8 SWAP1 SSTORE DUP7 DUP5 MSTORE PUSH1 0x9 SWAP1 SWAP3 MSTORE SWAP1 SWAP2 KECCAK256 DUP3 SWAP1 SSTORE PUSH1 0x6 SLOAD SWAP2 SWAP3 POP PUSH2 0x3C23 SWAP2 SWAP1 PUSH4 0xFFFFFFFF PUSH2 0x3D32 AND JUMP JUMPDEST PUSH1 0x6 SSTORE POP POP POP JUMP JUMPDEST PUSH1 0x0 DUP3 DUP2 MSTORE PUSH1 0xA PUSH1 0x20 SWAP1 DUP2 MSTORE PUSH1 0x40 SWAP1 SWAP2 KECCAK256 DUP3 MLOAD PUSH2 0xF43 SWAP3 DUP5 ADD SWAP1 PUSH2 0x41FF JUMP JUMPDEST DUP3 PUSH2 0x3C55 CALLER DUP3 PUSH2 0x3352 JUMP JUMPDEST ISZERO ISZERO PUSH2 0x3C60 JUMPI PUSH1 0x0 DUP1 REVERT JUMPDEST PUSH2 0x1ECF DUP7 DUP7 DUP7 DUP7 DUP7 PUSH2 0x3D45 JUMP JUMPDEST PUSH1 0x0 SWAP1 EXTCODESIZE GT SWAP1 JUMP JUMPDEST PUSH1 0x0 DUP1 PUSH2 0x3CA7 PUSH17 0x100000000000000000000000000000000 PUSH16 0xFFFFFFFFFFFFFFFFFFFFFFFFFFFFFFFF NOT DUP6 AND DIV PUSH2 0x3F9B JUMP JUMPDEST SWAP2 POP PUSH2 0x3CC4 PUSH16 0xFFFFFFFFFFFFFFFFFFFFFFFFFFFFFFFF DUP5 AND PUSH2 0x3F9B JUMP JUMPDEST SWAP1 POP SWAP2 POP SWAP2 JUMP JUMPDEST PUSH1 0x1 PUSH1 0xA0 PUSH1 0x2 EXP SUB SWAP1 DUP2 AND PUSH1 0x0 SWAP1 DUP2 MSTORE PUSH1 0xB PUSH1 0x20 SWAP1 DUP2 MSTORE PUSH1 0x40 DUP1 DUP4 KECCAK256 SWAP5 SWAP1 SWAP4 AND DUP3 MSTORE SWAP3 SWAP1 SWAP3 MSTORE SWAP1 KECCAK256 DUP1 SLOAD PUSH1 0xFF NOT AND PUSH1 0x1 OR SWAP1 SSTORE JUMP JUMPDEST PUSH1 0x1 PUSH1 0xA0 PUSH1 0x2 EXP SUB SWAP1 DUP2 AND PUSH1 0x0 SWAP1 DUP2 MSTORE PUSH1 0xB PUSH1 0x20 SWAP1 DUP2 MSTORE PUSH1 0x40 DUP1 DUP4 KECCAK256 SWAP5 SWAP1 SWAP4 AND DUP3 MSTORE SWAP3 SWAP1 SWAP3 MSTORE SWAP1 KECCAK256 DUP1 SLOAD PUSH1 0xFF NOT AND SWAP1 SSTORE JUMP JUMPDEST DUP2 DUP2 ADD DUP3 DUP2 LT ISZERO PUSH2 0x3D3F JUMPI INVALID JUMPDEST SWAP3 SWAP2 POP POP JUMP JUMPDEST PUSH1 0x0 DUP5 PUSH1 0x1 PUSH1 0xA0 PUSH1 0x2 EXP SUB DUP2 AND ISZERO ISZERO PUSH2 0x3D5D JUMPI PUSH1 0x0 DUP1 REVERT JUMPDEST DUP5 DUP7 DUP1 PUSH1 0x1 PUSH1 0xA0 PUSH1 0x2 EXP SUB AND PUSH2 0x3D72 DUP4 PUSH2 0x2E75 JUMP JUMPDEST PUSH1 0x1 PUSH1 0xA0 PUSH1 0x2 EXP SUB AND EQ ISZERO PUSH2 0x3D86 JUMPI PUSH1 0x0 DUP1 REVERT JUMPDEST DUP9 DUP8 DUP2 PUSH1 0x1 PUSH1 0xA0 PUSH1 0x2 EXP SUB AND PUSH2 0x3D9B DUP3 PUSH2 0x2E75 JUMP JUMPDEST PUSH1 0x1 PUSH1 0xA0 PUSH1 0x2 EXP SUB AND EQ PUSH2 0x3DAE JUMPI PUSH1 0x0 DUP1 REVERT JUMPDEST PUSH1 0x0 DUP10 DUP2 MSTORE PUSH1 0x8 PUSH1 0x20 MSTORE PUSH1 0x40 SWAP1 KECCAK256 SLOAD PUSH1 0x1 PUSH1 0xA0 PUSH1 0x2 EXP SUB AND SWAP6 POP PUSH2 0x3DD2 DUP7 DUP11 PUSH2 0x3FD3 JUMP JUMPDEST PUSH2 0x3DDC DUP7 DUP11 PUSH2 0x406C JUMP JUMPDEST PUSH2 0x3DE6 DUP11 DUP11 PUSH2 0x3BA1 JUMP JUMPDEST DUP9 DUP11 PUSH1 0x1 PUSH1 0xA0 PUSH1 0x2 EXP SUB AND DUP8 PUSH1 0x1 PUSH1 0xA0 PUSH1 0x2 EXP SUB AND PUSH32 0xDDF252AD1BE2C89B69C2B068FC378DAA952BA7F163C4A11628F55A4DF523B3EF PUSH1 0x40 MLOAD PUSH1 0x40 MLOAD DUP1 SWAP2 SUB SWAP1 LOG4 DUP7 DUP1 ISZERO PUSH2 0x3E38 JUMPI POP PUSH2 0x3E38 DUP11 PUSH2 0x3C6D JUMP JUMPDEST ISZERO PUSH2 0x3F8E JUMPI PUSH4 0x150B7A02 PUSH1 0xE0 PUSH1 0x2 EXP MUL PUSH28 0xFFFFFFFFFFFFFFFFFFFFFFFFFFFFFFFFFFFFFFFFFFFFFFFFFFFFFFFF NOT AND DUP11 PUSH1 0x1 PUSH1 0xA0 PUSH1 0x2 EXP SUB AND PUSH4 0x150B7A02 CALLER DUP10 DUP14 DUP14 PUSH1 0x40 MLOAD DUP6 PUSH4 0xFFFFFFFF AND PUSH1 0xE0 PUSH1 0x2 EXP MUL DUP2 MSTORE PUSH1 0x4 ADD DUP1 DUP6 PUSH1 0x1 PUSH1 0xA0 PUSH1 0x2 EXP SUB AND PUSH1 0x1 PUSH1 0xA0 PUSH1 0x2 EXP SUB AND DUP2 MSTORE PUSH1 0x20 ADD DUP5 PUSH1 0x1 PUSH1 0xA0 PUSH1 0x2 EXP SUB AND PUSH1 0x1 PUSH1 0xA0 PUSH1 0x2 EXP SUB AND DUP2 MSTORE PUSH1 0x20 ADD DUP4 DUP2 MSTORE PUSH1 0x20 ADD DUP1 PUSH1 0x20 ADD DUP3 DUP2 SUB DUP3 MSTORE DUP4 DUP2 DUP2 MLOAD DUP2 MSTORE PUSH1 0x20 ADD SWAP2 POP DUP1 MLOAD SWAP1 PUSH1 0x20 ADD SWAP1 DUP1 DUP4 DUP4 PUSH1 0x0 JUMPDEST DUP4 DUP2 LT ISZERO PUSH2 0x3EFF JUMPI DUP2 DUP2 ADD MLOAD DUP4 DUP3 ADD MSTORE PUSH1 0x20 ADD PUSH2 0x3EE7 JUMP JUMPDEST POP POP POP POP SWAP1 POP SWAP1 DUP2 ADD SWAP1 PUSH1 0x1F AND DUP1 ISZERO PUSH2 0x3F2C JUMPI DUP1 DUP3 SUB DUP1 MLOAD PUSH1 0x1 DUP4 PUSH1 0x20 SUB PUSH2 0x100 EXP SUB NOT AND DUP2 MSTORE PUSH1 0x20 ADD SWAP2 POP JUMPDEST POP SWAP6 POP POP POP POP POP POP PUSH1 0x20 PUSH1 0x40 MLOAD DUP1 DUP4 SUB DUP2 PUSH1 0x0 DUP8 DUP1 EXTCODESIZE ISZERO DUP1 ISZERO PUSH2 0x3F4E JUMPI PUSH1 0x0 DUP1 REVERT JUMPDEST POP GAS CALL ISZERO DUP1 ISZERO PUSH2 0x3F62 JUMPI RETURNDATASIZE PUSH1 0x0 DUP1 RETURNDATACOPY RETURNDATASIZE PUSH1 0x0 REVERT JUMPDEST POP POP POP POP PUSH1 0x40 MLOAD RETURNDATASIZE PUSH1 0x20 DUP2 LT ISZERO PUSH2 0x3F78 JUMPI PUSH1 0x0 DUP1 REVERT JUMPDEST POP MLOAD PUSH1 0x1 PUSH1 0xE0 PUSH1 0x2 EXP SUB NOT AND EQ PUSH2 0x3F8E JUMPI PUSH1 0x0 DUP1 REVERT JUMPDEST POP POP POP POP POP POP POP POP POP POP POP JUMP JUMPDEST PUSH1 0x0 PUSH16 0x80000000000000000000000000000000 DUP3 AND ISZERO PUSH2 0x3FCF JUMPI POP PUSH16 0xFFFFFFFFFFFFFFFFFFFFFFFFFFFFFFFF NOT DUP2 OR PUSH2 0xDA7 JUMP JUMPDEST POP SWAP1 JUMP JUMPDEST DUP2 PUSH1 0x1 PUSH1 0xA0 PUSH1 0x2 EXP SUB AND PUSH2 0x3FE6 DUP3 PUSH2 0x2E75 JUMP JUMPDEST PUSH1 0x1 PUSH1 0xA0 PUSH1 0x2 EXP SUB AND EQ DUP1 ISZERO PUSH2 0x4012 JUMPI POP PUSH1 0x0 DUP2 DUP2 MSTORE PUSH1 0xC PUSH1 0x20 MSTORE PUSH1 0x40 SWAP1 KECCAK256 SLOAD PUSH1 0x1 PUSH1 0xA0 PUSH1 0x2 EXP SUB AND ISZERO ISZERO JUMPDEST ISZERO PUSH2 0x21CF JUMPI PUSH1 0x0 DUP2 DUP2 MSTORE PUSH1 0xC PUSH1 0x20 MSTORE PUSH1 0x40 DUP1 DUP3 KECCAK256 DUP1 SLOAD PUSH1 0x1 PUSH1 0xA0 PUSH1 0x2 EXP SUB NOT AND SWAP1 SSTORE MLOAD DUP3 SWAP2 SWAP1 PUSH1 0x1 PUSH1 0xA0 PUSH1 0x2 EXP SUB DUP6 AND SWAP1 PUSH32 0x8C5BE1E5EBEC7D5BD14F71427D1E84F3DD0314C0F7B2291E5B200AC8C7C3B925 SWAP1 DUP4 SWAP1 LOG4 POP POP JUMP JUMPDEST PUSH1 0x0 DUP2 DUP2 MSTORE PUSH1 0x9 PUSH1 0x20 MSTORE PUSH1 0x40 DUP2 KECCAK256 SLOAD SWAP1 DUP1 PUSH2 0x4097 PUSH1 0x1 PUSH2 0x408B DUP8 PUSH2 0x36E6 JUMP JUMPDEST SWAP1 PUSH4 0xFFFFFFFF PUSH2 0x41ED AND JUMP JUMPDEST PUSH1 0x1 PUSH1 0xA0 PUSH1 0x2 EXP SUB DUP7 AND PUSH1 0x0 SWAP1 DUP2 MSTORE PUSH1 0x7 PUSH1 0x20 MSTORE PUSH1 0x40 SWAP1 KECCAK256 DUP1 SLOAD SWAP2 SWAP4 POP SWAP1 DUP4 SWAP1 DUP2 LT PUSH2 0x40BF JUMPI INVALID JUMPDEST PUSH1 0x0 SWAP2 DUP3 MSTORE PUSH1 0x20 DUP1 DUP4 KECCAK256 SWAP1 SWAP2 ADD SLOAD DUP7 DUP4 MSTORE PUSH1 0x8 DUP3 MSTORE PUSH1 0x40 DUP1 DUP5 KECCAK256 DUP1 SLOAD PUSH1 0x1 PUSH1 0xA0 PUSH1 0x2 EXP SUB NOT AND SWAP1 SSTORE PUSH1 0x1 PUSH1 0xA0 PUSH1 0x2 EXP SUB DUP10 AND DUP5 MSTORE PUSH1 0x7 SWAP1 SWAP3 MSTORE SWAP2 KECCAK256 DUP1 SLOAD SWAP2 SWAP3 POP DUP3 SWAP2 DUP6 SWAP1 DUP2 LT PUSH2 0x410B JUMPI INVALID JUMPDEST PUSH1 0x0 SWAP2 DUP3 MSTORE PUSH1 0x20 DUP1 DUP4 KECCAK256 SWAP1 SWAP2 ADD SWAP3 SWAP1 SWAP3 SSTORE PUSH1 0x1 PUSH1 0xA0 PUSH1 0x2 EXP SUB DUP8 AND DUP2 MSTORE PUSH1 0x7 SWAP1 SWAP2 MSTORE PUSH1 0x40 DUP2 KECCAK256 DUP1 SLOAD DUP5 SWAP1 DUP2 LT PUSH2 0x413D JUMPI INVALID JUMPDEST PUSH1 0x0 SWAP2 DUP3 MSTORE PUSH1 0x20 DUP1 DUP4 KECCAK256 SWAP1 SWAP2 ADD SWAP3 SWAP1 SWAP3 SSTORE PUSH1 0x1 PUSH1 0xA0 PUSH1 0x2 EXP SUB DUP8 AND DUP2 MSTORE PUSH1 0x7 SWAP1 SWAP2 MSTORE PUSH1 0x40 SWAP1 KECCAK256 DUP1 SLOAD SWAP1 PUSH2 0x4174 SWAP1 PUSH1 0x0 NOT DUP4 ADD PUSH2 0x4279 JUMP JUMPDEST POP PUSH1 0x1 PUSH1 0xA0 PUSH1 0x2 EXP SUB DUP6 AND PUSH1 0x0 SWAP1 DUP2 MSTORE PUSH1 0x7 PUSH1 0x20 MSTORE PUSH1 0x40 SWAP1 KECCAK256 SLOAD ISZERO ISZERO PUSH2 0x41B5 JUMPI PUSH1 0x1 PUSH1 0xA0 PUSH1 0x2 EXP SUB DUP6 AND PUSH1 0x0 SWAP1 DUP2 MSTORE PUSH1 0x7 PUSH1 0x20 MSTORE PUSH1 0x40 DUP2 KECCAK256 PUSH2 0x41B5 SWAP2 PUSH2 0x429D JUMP JUMPDEST PUSH1 0x0 DUP5 DUP2 MSTORE PUSH1 0x9 PUSH1 0x20 MSTORE PUSH1 0x40 DUP1 DUP3 KECCAK256 DUP3 SWAP1 SSTORE DUP3 DUP3 MSTORE SWAP1 KECCAK256 DUP4 SWAP1 SSTORE PUSH1 0x6 SLOAD PUSH2 0x41E3 SWAP1 PUSH1 0x1 PUSH4 0xFFFFFFFF PUSH2 0x41ED AND JUMP JUMPDEST PUSH1 0x6 SSTORE POP POP POP POP POP JUMP JUMPDEST PUSH1 0x0 DUP3 DUP3 GT ISZERO PUSH2 0x41F9 JUMPI INVALID JUMPDEST POP SWAP1 SUB SWAP1 JUMP JUMPDEST DUP3 DUP1 SLOAD PUSH1 0x1 DUP2 PUSH1 0x1 AND ISZERO PUSH2 0x100 MUL SUB AND PUSH1 0x2 SWAP1 DIV SWAP1 PUSH1 0x0 MSTORE PUSH1 0x20 PUSH1 0x0 KECCAK256 SWAP1 PUSH1 0x1F ADD PUSH1 0x20 SWAP1 DIV DUP2 ADD SWAP3 DUP3 PUSH1 0x1F LT PUSH2 0x4240 JUMPI DUP1 MLOAD PUSH1 0xFF NOT AND DUP4 DUP1 ADD OR DUP6 SSTORE PUSH2 0x426D JUMP JUMPDEST DUP3 DUP1 ADD PUSH1 0x1 ADD DUP6 SSTORE DUP3 ISZERO PUSH2 0x426D JUMPI SWAP2 DUP3 ADD JUMPDEST DUP3 DUP2 GT ISZERO PUSH2 0x426D JUMPI DUP3 MLOAD DUP3 SSTORE SWAP2 PUSH1 0x20 ADD SWAP2 SWAP1 PUSH1 0x1 ADD SWAP1 PUSH2 0x4252 JUMP JUMPDEST POP PUSH2 0x3FCF SWAP3 SWAP2 POP PUSH2 0x42B7 JUMP JUMPDEST DUP2 SLOAD DUP2 DUP4 SSTORE DUP2 DUP2 GT ISZERO PUSH2 0xF43 JUMPI PUSH1 0x0 DUP4 DUP2 MSTORE PUSH1 0x20 SWAP1 KECCAK256 PUSH2 0xF43 SWAP2 DUP2 ADD SWAP1 DUP4 ADD PUSH2 0x42B7 JUMP JUMPDEST POP DUP1 SLOAD PUSH1 0x0 DUP3 SSTORE SWAP1 PUSH1 0x0 MSTORE PUSH1 0x20 PUSH1 0x0 KECCAK256 SWAP1 DUP2 ADD SWAP1 PUSH2 0x1249 SWAP2 SWAP1 JUMPDEST PUSH2 0xE4F SWAP2 SWAP1 JUMPDEST DUP1 DUP3 GT ISZERO PUSH2 0x3FCF JUMPI PUSH1 0x0 DUP2 SSTORE PUSH1 0x1 ADD PUSH2 0x42BD JUMP STOP KECCAK256 PUSH3 0x792074 PUSH9 0x652070726F7879206F PUSH24 0x6E65720000000000000000000000000054686520636F6F72 PUSH5 0x696E617465 PUSH20 0x2073686F756C642068617665207468652073616D PUSH6 0x206C656E6774 PUSH9 0x0 STOP STOP STOP STOP STOP STOP STOP STOP STOP STOP STOP STOP SLOAD PUSH9 0x69732066756E637469 PUSH16 0x6E2063616E206F6E6C79206265206361 PUSH13 0x6C6564596F752073686F756C64 KECCAK256 PUSH20 0x7570706C79206174206C65617374206F6E652063 PUSH16 0x6F7264696E6174650000000000000000 STOP STOP STOP STOP STOP STOP STOP STOP STOP STOP STOP STOP STOP STOP STOP LOG1 PUSH6 0x627A7A723058 KECCAK256 CALLER SHL SWAP3 0xd4 DUP4 DUP11 0x4d CALLDATACOPY 0xe3 ADD DUP1 BYTE 0xa7 BLOCKHASH 0x1f 0xed GAS 0xce 0xad 0xec 0xb1 DUP3 0x4c SGT ADDRESS OR 0xee 0xb7 0xc5 0x49 0xc1 MULMOD STOP 0x29 "
		},
		"gasEstimates": {
			"creation": {
				"codeDepositCost": "3468200",
				"executionCost": "44383",
				"totalCost": "3512583"
			},
			"external": {
				"GET_METADATA()": "1088",
				"approve(address,uint256)": "24376",
				"assignMultipleParcels(int256[],int256[],address)": "infinite",
				"assignNewParcel(int256,int256,address)": "infinite",
				"authorizeDeploy(address)": "infinite",
				"authorizedDeploy(address)": "958",
				"balanceOf(address)": "1483",
				"createEstate(int256[],int256[],address)": "infinite",
				"createEstateWithMetadata(int256[],int256[],address,string)": "infinite",
				"currentContract()": "1392",
				"decimals()": "643",
				"decodeTokenId(uint256)": "infinite",
				"description()": "infinite",
				"encodeTokenId(int256,int256)": "infinite",
				"estateRegistry()": "1810",
				"exists(int256,int256)": "infinite",
				"exists(uint256)": "1200",
				"forbidDeploy(address)": "infinite",
				"getApproved(uint256)": "804",
				"getApprovedAddress(uint256)": "1970",
				"initialize(bytes)": "infinite",
				"isApprovedForAll(address,address)": "2060",
				"isAuthorized(address,uint256)": "2405",
				"isUpdateAuthorized(address,uint256)": "2471",
				"landBalance()": "1480",
				"landData(int256,int256)": "infinite",
				"landOf(address)": "infinite",
				"latestPing(address)": "858",
				"name()": "infinite",
				"owner()": "1568",
				"ownerOf(uint256)": "1376",
				"ownerOfLand(int256,int256)": "infinite",
				"ownerOfLandMany(int256[],int256[])": "infinite",
				"ping()": "20863",
				"proxyOwner()": "622",
				"registerBalance()": "infinite",
				"registeredBalance(address)": "1222",
				"safeTransferFrom(address,address,uint256)": "infinite",
				"safeTransferFrom(address,address,uint256,bytes)": "infinite",
				"setApprovalForAll(address,bool)": "24269",
				"setEstateRegistry(address)": "infinite",
				"setLandBalanceToken(address)": "infinite",
				"setLatestToNow(address)": "21367",
				"setManyUpdateOperator(uint256[],address)": "infinite",
				"setUpdateManager(address,address,bool)": "24939",
				"setUpdateOperator(uint256,address)": "infinite",
				"supportsInterface(bytes4)": "751",
				"symbol()": "infinite",
				"tokenMetadata(uint256)": "infinite",
				"tokenOfOwnerByIndex(address,uint256)": "1737",
				"tokensOf(address)": "infinite",
				"totalSupply()": "658",
				"transferFrom(address,address,uint256)": "infinite",
				"transferLand(int256,int256,address)": "infinite",
				"transferLandToEstate(int256,int256,uint256)": "infinite",
				"transferManyLand(int256[],int256[],address)": "infinite",
				"transferManyLandToEstate(int256[],int256[],uint256)": "infinite",
				"transferOwnership(address)": "22562",
				"unregisterBalance()": "infinite",
				"updateLandData(int256,int256,string)": "infinite",
				"updateManager(address,address)": "759",
				"updateManyLandData(int256[],int256[],string)": "infinite",
				"updateOperator(uint256)": "1706"
			},
			"internal": {
				"_createEstate(int256[] memory,int256[] memory,address,string memory)": "infinite",
				"_decodeTokenId(uint256)": "infinite",
				"_doTransferFrom(address,address,uint256,bytes memory,bool)": "infinite",
				"_encodeTokenId(int256,int256)": "infinite",
				"_exists(int256,int256)": "infinite",
				"_isContract(address)": "721",
				"_isUpdateAuthorized(address,uint256)": "1403",
				"_ownerOfLand(int256,int256)": "infinite",
				"_tokenMetadata(uint256)": "infinite",
				"_unsafeDecodeTokenId(uint256)": "infinite",
				"_unsafeEncodeTokenId(int256,int256)": "51",
				"_updateLandBalance(address,address)": "infinite",
				"_updateLandData(int256,int256,string memory)": "infinite",
				"expandNegative128BitCast(uint256)": "71",
				"toBytes(uint256)": "infinite"
			}
		},
		"methodIdentifiers": {
			"GET_METADATA()": "65181ad3",
			"approve(address,uint256)": "095ea7b3",
			"assignMultipleParcels(int256[],int256[],address)": "8668a416",
			"assignNewParcel(int256,int256,address)": "1cc69ac1",
			"authorizeDeploy(address)": "341f13f2",
			"authorizedDeploy(address)": "29ffab3b",
			"balanceOf(address)": "70a08231",
			"createEstate(int256[],int256[],address)": "ca8a2c08",
			"createEstateWithMetadata(int256[],int256[],address,string)": "881eeaa5",
			"currentContract()": "721d7d8e",
			"decimals()": "313ce567",
			"decodeTokenId(uint256)": "7efd9112",
			"description()": "7284e416",
			"encodeTokenId(int256,int256)": "6fb7e588",
			"estateRegistry()": "e387d31a",
			"exists(int256,int256)": "a8d88127",
			"exists(uint256)": "4f558e79",
			"forbidDeploy(address)": "fd7a1b00",
			"getApproved(uint256)": "081812fc",
			"getApprovedAddress(uint256)": "eca4742a",
			"initialize(bytes)": "439fab91",
			"isApprovedForAll(address,address)": "e985e9c5",
			"isAuthorized(address,uint256)": "2972b0f0",
			"isUpdateAuthorized(address,uint256)": "65937ab9",
			"landBalance()": "84b80004",
			"landData(int256,int256)": "4c4bf936",
			"landOf(address)": "885363eb",
			"latestPing(address)": "1e375901",
			"name()": "06fdde03",
			"owner()": "8da5cb5b",
			"ownerOf(uint256)": "6352211e",
			"ownerOfLand(int256,int256)": "1080f251",
			"ownerOfLandMany(int256[],int256[])": "1d4b11e4",
			"ping()": "5c36b186",
			"proxyOwner()": "025313a2",
			"registerBalance()": "c2cf1cdc",
			"registeredBalance(address)": "6087de1b",
			"safeTransferFrom(address,address,uint256)": "42842e0e",
			"safeTransferFrom(address,address,uint256,bytes)": "b88d4fde",
			"setApprovalForAll(address,bool)": "a22cb465",
			"setEstateRegistry(address)": "8de74aa1",
			"setLandBalanceToken(address)": "61a822f9",
			"setLatestToNow(address)": "133cbe3a",
			"setManyUpdateOperator(uint256[],address)": "72554ff5",
			"setUpdateManager(address,address,bool)": "ef1db762",
			"setUpdateOperator(uint256,address)": "b0b02c60",
			"supportsInterface(bytes4)": "01ffc9a7",
			"symbol()": "95d89b41",
			"tokenMetadata(uint256)": "6914db60",
			"tokenOfOwnerByIndex(address,uint256)": "2f745c59",
			"tokensOf(address)": "5a3f2672",
			"totalSupply()": "18160ddd",
			"transferFrom(address,address,uint256)": "23b872dd",
			"transferLand(int256,int256,address)": "35e64aaa",
			"transferLandToEstate(int256,int256,uint256)": "f9cbec43",
			"transferManyLand(int256[],int256[],address)": "4dad9003",
			"transferManyLandToEstate(int256[],int256[],uint256)": "f5f83a61",
			"transferOwnership(address)": "f2fde38b",
			"unregisterBalance()": "1c07cac5",
			"updateLandData(int256,int256,string)": "d4dd1594",
			"updateManager(address,address)": "07ecec3e",
			"updateManyLandData(int256[],int256[],string)": "1e4c7736",
			"updateOperator(uint256)": "9d40b850"
		}
	},
	"abi": [
		{
			"constant": true,
			"inputs": [
				{
					"name": "_interfaceID",
					"type": "bytes4"
				}
			],
			"name": "supportsInterface",
			"outputs": [
				{
					"name": "",
					"type": "bool"
				}
			],
			"payable": false,
			"stateMutability": "view",
			"type": "function"
		},
		{
			"constant": true,
			"inputs": [],
			"name": "proxyOwner",
			"outputs": [
				{
					"name": "",
					"type": "address"
				}
			],
			"payable": false,
			"stateMutability": "view",
			"type": "function"
		},
		{
			"constant": true,
			"inputs": [],
			"name": "name",
			"outputs": [
				{
					"name": "",
					"type": "string"
				}
			],
			"payable": false,
			"stateMutability": "view",
			"type": "function"
		},
		{
			"constant": true,
			"inputs": [
				{
					"name": "",
					"type": "address"
				},
				{
					"name": "",
					"type": "address"
				}
			],
			"name": "updateManager",
			"outputs": [
				{
					"name": "",
					"type": "bool"
				}
			],
			"payable": false,
			"stateMutability": "view",
			"type": "function"
		},
		{
			"constant": true,
			"inputs": [
				{
					"name": "assetId",
					"type": "uint256"
				}
			],
			"name": "getApproved",
			"outputs": [
				{
					"name": "",
					"type": "address"
				}
			],
			"payable": false,
			"stateMutability": "view",
			"type": "function"
		},
		{
			"constant": false,
			"inputs": [
				{
					"name": "operator",
					"type": "address"
				},
				{
					"name": "assetId",
					"type": "uint256"
				}
			],
			"name": "approve",
			"outputs": [],
			"payable": false,
			"stateMutability": "nonpayable",
			"type": "function"
		},
		{
			"constant": true,
			"inputs": [
				{
					"name": "x",
					"type": "int256"
				},
				{
					"name": "y",
					"type": "int256"
				}
			],
			"name": "ownerOfLand",
			"outputs": [
				{
					"name": "",
					"type": "address"
				}
			],
			"payable": false,
			"stateMutability": "view",
			"type": "function"
		},
		{
			"constant": false,
			"inputs": [
				{
					"name": "user",
					"type": "address"
				}
			],
			"name": "setLatestToNow",
			"outputs": [],
			"payable": false,
			"stateMutability": "nonpayable",
			"type": "function"
		},
		{
			"constant": true,
			"inputs": [],
			"name": "totalSupply",
			"outputs": [
				{
					"name": "",
					"type": "uint256"
				}
			],
			"payable": false,
			"stateMutability": "view",
			"type": "function"
		},
		{
			"constant": false,
			"inputs": [],
			"name": "unregisterBalance",
			"outputs": [],
			"payable": false,
			"stateMutability": "nonpayable",
			"type": "function"
		},
		{
			"constant": false,
			"inputs": [
				{
					"name": "x",
					"type": "int256"
				},
				{
					"name": "y",
					"type": "int256"
				},
				{
					"name": "beneficiary",
					"type": "address"
				}
			],
			"name": "assignNewParcel",
			"outputs": [],
			"payable": false,
			"stateMutability": "nonpayable",
			"type": "function"
		},
		{
			"constant": true,
			"inputs": [
				{
					"name": "x",
					"type": "int256[]"
				},
				{
					"name": "y",
					"type": "int256[]"
				}
			],
			"name": "ownerOfLandMany",
			"outputs": [
				{
					"name": "",
					"type": "address[]"
				}
			],
			"payable": false,
			"stateMutability": "view",
			"type": "function"
		},
		{
			"constant": true,
			"inputs": [
				{
					"name": "",
					"type": "address"
				}
			],
			"name": "latestPing",
			"outputs": [
				{
					"name": "",
					"type": "uint256"
				}
			],
			"payable": false,
			"stateMutability": "view",
			"type": "function"
		},
		{
			"constant": false,
			"inputs": [
				{
					"name": "x",
					"type": "int256[]"
				},
				{
					"name": "y",
					"type": "int256[]"
				},
				{
					"name": "data",
					"type": "string"
				}
			],
			"name": "updateManyLandData",
			"outputs": [],
			"payable": false,
			"stateMutability": "nonpayable",
			"type": "function"
		},
		{
			"constant": false,
			"inputs": [
				{
					"name": "from",
					"type": "address"
				},
				{
					"name": "to",
					"type": "address"
				},
				{
					"name": "assetId",
					"type": "uint256"
				}
			],
			"name": "transferFrom",
			"outputs": [],
			"payable": false,
			"stateMutability": "nonpayable",
			"type": "function"
		},
		{
			"constant": true,
			"inputs": [
				{
					"name": "operator",
					"type": "address"
				},
				{
					"name": "assetId",
					"type": "uint256"
				}
			],
			"name": "isAuthorized",
			"outputs": [
				{
					"name": "",
					"type": "bool"
				}
			],
			"payable": false,
			"stateMutability": "view",
			"type": "function"
		},
		{
			"constant": true,
			"inputs": [
				{
					"name": "",
					"type": "address"
				}
			],
			"name": "authorizedDeploy",
			"outputs": [
				{
					"name": "",
					"type": "bool"
				}
			],
			"payable": false,
			"stateMutability": "view",
			"type": "function"
		},
		{
			"constant": true,
			"inputs": [
				{
					"name": "owner",
					"type": "address"
				},
				{
					"name": "index",
					"type": "uint256"
				}
			],
			"name": "tokenOfOwnerByIndex",
			"outputs": [
				{
					"name": "assetId",
					"type": "uint256"
				}
			],
			"payable": false,
			"stateMutability": "view",
			"type": "function"
		},
		{
			"constant": true,
			"inputs": [],
			"name": "decimals",
			"outputs": [
				{
					"name": "",
					"type": "uint256"
				}
			],
			"payable": false,
			"stateMutability": "view",
			"type": "function"
		},
		{
			"constant": false,
			"inputs": [
				{
					"name": "beneficiary",
					"type": "address"
				}
			],
			"name": "authorizeDeploy",
			"outputs": [],
			"payable": false,
			"stateMutability": "nonpayable",
			"type": "function"
		},
		{
			"constant": false,
			"inputs": [
				{
					"name": "x",
					"type": "int256"
				},
				{
					"name": "y",
					"type": "int256"
				},
				{
					"name": "to",
					"type": "address"
				}
			],
			"name": "transferLand",
			"outputs": [],
			"payable": false,
			"stateMutability": "nonpayable",
			"type": "function"
		},
		{
			"constant": false,
			"inputs": [
				{
					"name": "from",
					"type": "address"
				},
				{
					"name": "to",
					"type": "address"
				},
				{
					"name": "assetId",
					"type": "uint256"
				}
			],
			"name": "safeTransferFrom",
			"outputs": [],
			"payable": false,
			"stateMutability": "nonpayable",
			"type": "function"
		},
		{
			"constant": false,
			"inputs": [
				{
					"name": "",
					"type": "bytes"
				}
			],
			"name": "initialize",
			"outputs": [],
			"payable": false,
			"stateMutability": "nonpayable",
			"type": "function"
		},
		{
			"constant": true,
			"inputs": [
				{
					"name": "x",
					"type": "int256"
				},
				{
					"name": "y",
					"type": "int256"
				}
			],
			"name": "landData",
			"outputs": [
				{
					"name": "",
					"type": "string"
				}
			],
			"payable": false,
			"stateMutability": "view",
			"type": "function"
		},
		{
			"constant": false,
			"inputs": [
				{
					"name": "x",
					"type": "int256[]"
				},
				{
					"name": "y",
					"type": "int256[]"
				},
				{
					"name": "to",
					"type": "address"
				}
			],
			"name": "transferManyLand",
			"outputs": [],
			"payable": false,
			"stateMutability": "nonpayable",
			"type": "function"
		},
		{
			"constant": true,
			"inputs": [
				{
					"name": "assetId",
					"type": "uint256"
				}
			],
			"name": "exists",
			"outputs": [
				{
					"name": "",
					"type": "bool"
				}
			],
			"payable": false,
			"stateMutability": "view",
			"type": "function"
		},
		{
			"constant": true,
			"inputs": [
				{
					"name": "owner",
					"type": "address"
				}
			],
			"name": "tokensOf",
			"outputs": [
				{
					"name": "",
					"type": "uint256[]"
				}
			],
			"payable": false,
			"stateMutability": "view",
			"type": "function"
		},
		{
			"constant": false,
			"inputs": [],
			"name": "ping",
			"outputs": [],
			"payable": false,
			"stateMutability": "nonpayable",
			"type": "function"
		},
		{
			"constant": true,
			"inputs": [
				{
					"name": "",
					"type": "address"
				}
			],
			"name": "registeredBalance",
			"outputs": [
				{
					"name": "",
					"type": "bool"
				}
			],
			"payable": false,
			"stateMutability": "view",
			"type": "function"
		},
		{
			"constant": false,
			"inputs": [
				{
					"name": "_newLandBalance",
					"type": "address"
				}
			],
			"name": "setLandBalanceToken",
			"outputs": [],
			"payable": false,
			"stateMutability": "nonpayable",
			"type": "function"
		},
		{
			"constant": true,
			"inputs": [
				{
					"name": "assetId",
					"type": "uint256"
				}
			],
			"name": "ownerOf",
			"outputs": [
				{
					"name": "",
					"type": "address"
				}
			],
			"payable": false,
			"stateMutability": "view",
			"type": "function"
		},
		{
			"constant": true,
			"inputs": [],
			"name": "GET_METADATA",
			"outputs": [
				{
					"name": "",
					"type": "bytes4"
				}
			],
			"payable": false,
			"stateMutability": "view",
			"type": "function"
		},
		{
			"constant": true,
			"inputs": [
				{
					"name": "operator",
					"type": "address"
				},
				{
					"name": "assetId",
					"type": "uint256"
				}
			],
			"name": "isUpdateAuthorized",
			"outputs": [
				{
					"name": "",
					"type": "bool"
				}
			],
			"payable": false,
			"stateMutability": "view",
			"type": "function"
		},
		{
			"constant": true,
			"inputs": [
				{
					"name": "assetId",
					"type": "uint256"
				}
			],
			"name": "tokenMetadata",
			"outputs": [
				{
					"name": "",
					"type": "string"
				}
			],
			"payable": false,
			"stateMutability": "view",
			"type": "function"
		},
		{
			"constant": true,
			"inputs": [
				{
					"name": "x",
					"type": "int256"
				},
				{
					"name": "y",
					"type": "int256"
				}
			],
			"name": "encodeTokenId",
			"outputs": [
				{
					"name": "",
					"type": "uint256"
				}
			],
			"payable": false,
			"stateMutability": "view",
			"type": "function"
		},
		{
			"constant": true,
			"inputs": [
				{
					"name": "owner",
					"type": "address"
				}
			],
			"name": "balanceOf",
			"outputs": [
				{
					"name": "",
					"type": "uint256"
				}
			],
			"payable": false,
			"stateMutability": "view",
			"type": "function"
		},
		{
			"constant": true,
			"inputs": [],
			"name": "currentContract",
			"outputs": [
				{
					"name": "",
					"type": "address"
				}
			],
			"payable": false,
			"stateMutability": "view",
			"type": "function"
		},
		{
			"constant": false,
			"inputs": [
				{
					"name": "_assetIds",
					"type": "uint256[]"
				},
				{
					"name": "_operator",
					"type": "address"
				}
			],
			"name": "setManyUpdateOperator",
			"outputs": [],
			"payable": false,
			"stateMutability": "nonpayable",
			"type": "function"
		},
		{
			"constant": true,
			"inputs": [],
			"name": "description",
			"outputs": [
				{
					"name": "",
					"type": "string"
				}
			],
			"payable": false,
			"stateMutability": "view",
			"type": "function"
		},
		{
			"constant": true,
			"inputs": [
				{
					"name": "value",
					"type": "uint256"
				}
			],
			"name": "decodeTokenId",
			"outputs": [
				{
					"name": "",
					"type": "int256"
				},
				{
					"name": "",
					"type": "int256"
				}
			],
			"payable": false,
			"stateMutability": "view",
			"type": "function"
		},
		{
			"constant": true,
			"inputs": [],
			"name": "landBalance",
			"outputs": [
				{
					"name": "",
					"type": "address"
				}
			],
			"payable": false,
			"stateMutability": "view",
			"type": "function"
		},
		{
			"constant": false,
			"inputs": [
				{
					"name": "x",
					"type": "int256[]"
				},
				{
					"name": "y",
					"type": "int256[]"
				},
				{
					"name": "beneficiary",
					"type": "address"
				}
			],
			"name": "assignMultipleParcels",
			"outputs": [],
			"payable": false,
			"stateMutability": "nonpayable",
			"type": "function"
		},
		{
			"constant": false,
			"inputs": [
				{
					"name": "x",
					"type": "int256[]"
				},
				{
					"name": "y",
					"type": "int256[]"
				},
				{
					"name": "beneficiary",
					"type": "address"
				},
				{
					"name": "metadata",
					"type": "string"
				}
			],
			"name": "createEstateWithMetadata",
			"outputs": [
				{
					"name": "",
					"type": "uint256"
				}
			],
			"payable": false,
			"stateMutability": "nonpayable",
			"type": "function"
		},
		{
			"constant": true,
			"inputs": [
				{
					"name": "owner",
					"type": "address"
				}
			],
			"name": "landOf",
			"outputs": [
				{
					"name": "",
					"type": "int256[]"
				},
				{
					"name": "",
					"type": "int256[]"
				}
			],
			"payable": false,
			"stateMutability": "view",
			"type": "function"
		},
		{
			"constant": true,
			"inputs": [],
			"name": "owner",
			"outputs": [
				{
					"name": "",
					"type": "address"
				}
			],
			"payable": false,
			"stateMutability": "view",
			"type": "function"
		},
		{
			"constant": false,
			"inputs": [
				{
					"name": "registry",
					"type": "address"
				}
			],
			"name": "setEstateRegistry",
			"outputs": [],
			"payable": false,
			"stateMutability": "nonpayable",
			"type": "function"
		},
		{
			"constant": true,
			"inputs": [],
			"name": "symbol",
			"outputs": [
				{
					"name": "",
					"type": "string"
				}
			],
			"payable": false,
			"stateMutability": "view",
			"type": "function"
		},
		{
			"constant": true,
			"inputs": [
				{
					"name": "",
					"type": "uint256"
				}
			],
			"name": "updateOperator",
			"outputs": [
				{
					"name": "",
					"type": "address"
				}
			],
			"payable": false,
			"stateMutability": "view",
			"type": "function"
		},
		{
			"constant": false,
			"inputs": [
				{
					"name": "operator",
					"type": "address"
				},
				{
					"name": "authorized",
					"type": "bool"
				}
			],
			"name": "setApprovalForAll",
			"outputs": [],
			"payable": false,
			"stateMutability": "nonpayable",
			"type": "function"
		},
		{
			"constant": true,
			"inputs": [
				{
					"name": "x",
					"type": "int256"
				},
				{
					"name": "y",
					"type": "int256"
				}
			],
			"name": "exists",
			"outputs": [
				{
					"name": "",
					"type": "bool"
				}
			],
			"payable": false,
			"stateMutability": "view",
			"type": "function"
		},
		{
			"constant": false,
			"inputs": [
				{
					"name": "assetId",
					"type": "uint256"
				},
				{
					"name": "operator",
					"type": "address"
				}
			],
			"name": "setUpdateOperator",
			"outputs": [],
			"payable": false,
			"stateMutability": "nonpayable",
			"type": "function"
		},
		{
			"constant": false,
			"inputs": [
				{
					"name": "from",
					"type": "address"
				},
				{
					"name": "to",
					"type": "address"
				},
				{
					"name": "assetId",
					"type": "uint256"
				},
				{
					"name": "userData",
					"type": "bytes"
				}
			],
			"name": "safeTransferFrom",
			"outputs": [],
			"payable": false,
			"stateMutability": "nonpayable",
			"type": "function"
		},
		{
			"constant": false,
			"inputs": [],
			"name": "registerBalance",
			"outputs": [],
			"payable": false,
			"stateMutability": "nonpayable",
			"type": "function"
		},
		{
			"constant": false,
			"inputs": [
				{
					"name": "x",
					"type": "int256[]"
				},
				{
					"name": "y",
					"type": "int256[]"
				},
				{
					"name": "beneficiary",
					"type": "address"
				}
			],
			"name": "createEstate",
			"outputs": [
				{
					"name": "",
					"type": "uint256"
				}
			],
			"payable": false,
			"stateMutability": "nonpayable",
			"type": "function"
		},
		{
			"constant": false,
			"inputs": [
				{
					"name": "x",
					"type": "int256"
				},
				{
					"name": "y",
					"type": "int256"
				},
				{
					"name": "data",
					"type": "string"
				}
			],
			"name": "updateLandData",
			"outputs": [],
			"payable": false,
			"stateMutability": "nonpayable",
			"type": "function"
		},
		{
			"constant": true,
			"inputs": [],
			"name": "estateRegistry",
			"outputs": [
				{
					"name": "",
					"type": "address"
				}
			],
			"payable": false,
			"stateMutability": "view",
			"type": "function"
		},
		{
			"constant": true,
			"inputs": [
				{
					"name": "assetHolder",
					"type": "address"
				},
				{
					"name": "operator",
					"type": "address"
				}
			],
			"name": "isApprovedForAll",
			"outputs": [
				{
					"name": "",
					"type": "bool"
				}
			],
			"payable": false,
			"stateMutability": "view",
			"type": "function"
		},
		{
			"constant": true,
			"inputs": [
				{
					"name": "assetId",
					"type": "uint256"
				}
			],
			"name": "getApprovedAddress",
			"outputs": [
				{
					"name": "",
					"type": "address"
				}
			],
			"payable": false,
			"stateMutability": "view",
			"type": "function"
		},
		{
			"constant": false,
			"inputs": [
				{
					"name": "_owner",
					"type": "address"
				},
				{
					"name": "_operator",
					"type": "address"
				},
				{
					"name": "_approved",
					"type": "bool"
				}
			],
			"name": "setUpdateManager",
			"outputs": [],
			"payable": false,
			"stateMutability": "nonpayable",
			"type": "function"
		},
		{
			"constant": false,
			"inputs": [
				{
					"name": "_newOwner",
					"type": "address"
				}
			],
			"name": "transferOwnership",
			"outputs": [],
			"payable": false,
			"stateMutability": "nonpayable",
			"type": "function"
		},
		{
			"constant": false,
			"inputs": [
				{
					"name": "x",
					"type": "int256[]"
				},
				{
					"name": "y",
					"type": "int256[]"
				},
				{
					"name": "estateId",
					"type": "uint256"
				}
			],
			"name": "transferManyLandToEstate",
			"outputs": [],
			"payable": false,
			"stateMutability": "nonpayable",
			"type": "function"
		},
		{
			"constant": false,
			"inputs": [
				{
					"name": "x",
					"type": "int256"
				},
				{
					"name": "y",
					"type": "int256"
				},
				{
					"name": "estateId",
					"type": "uint256"
				}
			],
			"name": "transferLandToEstate",
			"outputs": [],
			"payable": false,
			"stateMutability": "nonpayable",
			"type": "function"
		},
		{
			"constant": false,
			"inputs": [
				{
					"name": "beneficiary",
					"type": "address"
				}
			],
			"name": "forbidDeploy",
			"outputs": [],
			"payable": false,
			"stateMutability": "nonpayable",
			"type": "function"
		},
		{
			"anonymous": false,
			"inputs": [
				{
					"indexed": true,
					"name": "registry",
					"type": "address"
				}
			],
			"name": "EstateRegistrySet",
			"type": "event"
		},
		{
			"anonymous": false,
			"inputs": [
				{
					"indexed": true,
					"name": "assetId",
					"type": "uint256"
				},
				{
					"indexed": true,
					"name": "holder",
					"type": "address"
				},
				{
					"indexed": true,
					"name": "operator",
					"type": "address"
				},
				{
					"indexed": false,
					"name": "data",
					"type": "string"
				}
			],
			"name": "Update",
			"type": "event"
		},
		{
			"anonymous": false,
			"inputs": [
				{
					"indexed": true,
					"name": "assetId",
					"type": "uint256"
				},
				{
					"indexed": true,
					"name": "operator",
					"type": "address"
				}
			],
			"name": "UpdateOperator",
			"type": "event"
		},
		{
			"anonymous": false,
			"inputs": [
				{
					"indexed": true,
					"name": "_owner",
					"type": "address"
				},
				{
					"indexed": true,
					"name": "_operator",
					"type": "address"
				},
				{
					"indexed": true,
					"name": "_caller",
					"type": "address"
				},
				{
					"indexed": false,
					"name": "_approved",
					"type": "bool"
				}
			],
			"name": "UpdateManager",
			"type": "event"
		},
		{
			"anonymous": false,
			"inputs": [
				{
					"indexed": true,
					"name": "_caller",
					"type": "address"
				},
				{
					"indexed": true,
					"name": "_deployer",
					"type": "address"
				}
			],
			"name": "DeployAuthorized",
			"type": "event"
		},
		{
			"anonymous": false,
			"inputs": [
				{
					"indexed": true,
					"name": "_caller",
					"type": "address"
				},
				{
					"indexed": true,
					"name": "_deployer",
					"type": "address"
				}
			],
			"name": "DeployForbidden",
			"type": "event"
		},
		{
			"anonymous": false,
			"inputs": [
				{
					"indexed": true,
					"name": "_previousLandBalance",
					"type": "address"
				},
				{
					"indexed": true,
					"name": "_newLandBalance",
					"type": "address"
				}
			],
			"name": "SetLandBalanceToken",
			"type": "event"
		},
		{
			"anonymous": false,
			"inputs": [
				{
					"indexed": true,
					"name": "from",
					"type": "address"
				},
				{
					"indexed": true,
					"name": "to",
					"type": "address"
				},
				{
					"indexed": true,
					"name": "assetId",
					"type": "uint256"
				},
				{
					"indexed": false,
					"name": "operator",
					"type": "address"
				},
				{
					"indexed": false,
					"name": "userData",
					"type": "bytes"
				},
				{
					"indexed": false,
					"name": "operatorData",
					"type": "bytes"
				}
			],
			"name": "Transfer",
			"type": "event"
		},
		{
			"anonymous": false,
			"inputs": [
				{
					"indexed": true,
					"name": "from",
					"type": "address"
				},
				{
					"indexed": true,
					"name": "to",
					"type": "address"
				},
				{
					"indexed": true,
					"name": "assetId",
					"type": "uint256"
				},
				{
					"indexed": false,
					"name": "operator",
					"type": "address"
				},
				{
					"indexed": false,
					"name": "userData",
					"type": "bytes"
				}
			],
			"name": "Transfer",
			"type": "event"
		},
		{
			"anonymous": false,
			"inputs": [
				{
					"indexed": true,
					"name": "from",
					"type": "address"
				},
				{
					"indexed": true,
					"name": "to",
					"type": "address"
				},
				{
					"indexed": true,
					"name": "assetId",
					"type": "uint256"
				}
			],
			"name": "Transfer",
			"type": "event"
		},
		{
			"anonymous": false,
			"inputs": [
				{
					"indexed": true,
					"name": "holder",
					"type": "address"
				},
				{
					"indexed": true,
					"name": "operator",
					"type": "address"
				},
				{
					"indexed": false,
					"name": "authorized",
					"type": "bool"
				}
			],
			"name": "ApprovalForAll",
			"type": "event"
		},
		{
			"anonymous": false,
			"inputs": [
				{
					"indexed": true,
					"name": "owner",
					"type": "address"
				},
				{
					"indexed": true,
					"name": "operator",
					"type": "address"
				},
				{
					"indexed": true,
					"name": "assetId",
					"type": "uint256"
				}
			],
			"name": "Approval",
			"type": "event"
		},
		{
			"anonymous": false,
			"inputs": [
				{
					"indexed": false,
					"name": "_prevOwner",
					"type": "address"
				},
				{
					"indexed": false,
					"name": "_newOwner",
					"type": "address"
				}
			],
			"name": "OwnerUpdate",
			"type": "event"
		}
	]
}