{
	"data": {
		"bytecode": {
			"linkReferences": {},
			"object": "608060405260028054600160a060020a03199081167386692d1b16c132026292c8f7df9bb15b549f2c89179182905560038054909116600160a060020a039290921691909117905534801561005357600080fd5b506040516107cd3803806107cd8339810160408181528251602080850151838601516060808801516080808a015160a0808c01516101208c018b52898c52888c018881528b8d01888152968d0186815293909d01938c01848152918c018190524260c08d0152600060e08d018190526101008d018190528181526004808b529b90208c5181559c5160018e0155945160028d0155905160038c0155518051979a959994989297919693959361010d93850192910190610155565b5060a0820151600582015560c0820151600682015560e08201516007820155610100909101516008909101805460ff1916911515919091179055600055506101f09350505050565b828054600181600116156101000203166002900490600052602060002090601f016020900481019282601f1061019657805160ff19168380011785556101c3565b828001600101855582156101c3579182015b828111156101c35782518255916020019190600101906101a8565b506101cf9291506101d3565b5090565b6101ed91905b808211156101cf57600081556001016101d9565b90565b6105ce806101ff6000396000f30060806040526004361061006c5763ffffffff7c0100000000000000000000000000000000000000000000000000000000600035041663013cf08b811461007157806317d70f7c1461013d57806360b0b0f014610164578063888f26b8146101a9578063aee14460146101be575b600080fd5b34801561007d57600080fd5b506100896004356101d6565b604051808a81526020018981526020018881526020018781526020018060200186815260200185815260200184815260200183151515158152602001828103825287818151815260200191508051906020019080838360005b838110156100fa5781810151838201526020016100e2565b50505050905090810190601f1680156101275780820380516001836020036101000a031916815260200191505b509a505050505050505050505060405180910390f35b34801561014957600080fd5b506101526102c0565b60408051918252519081900360200190f35b34801561017057600080fd5b5061019560043573ffffffffffffffffffffffffffffffffffffffff602435166102c6565b604080519115158252519081900360200190f35b3480156101b557600080fd5b50610152610496565b3480156101ca57600080fd5b5061015260043561049c565b6004602052806000526040600020600091509050806000015490806001015490806002015490806003015490806004018054600181600116156101000203166002900480601f01602080910402602001604051908101604052809291908181526020018280546001816001161561010002031660029004801561029a5780601f1061026f5761010080835404028352916020019161029a565b820191906000526020600020905b81548152906001019060200180831161027d57829003601f168201915b505050506005830154600684015460078501546008909501549394919390925060ff1689565b60005481565b600080548152600460205260408120600781015460029091015481900382818611156102f157600080fd5b82860160018181556000805481526004602090815260408083206007019490945581548252838220338352600901815290839020805460ff191683179055905482519182018990528183015260608082526024908201527f596f757220636f6e747269627574696f6e20686173206265656e20616363657060808201527f746564210000000000000000000000000000000000000000000000000000000060a082015290517f2d53c88922b643ddb30e233f98741b60b54bec53fcd7efbe90f46d39e59c03da9181900360c00190a160008054815260046020526040902060020154600154141561048d57506000805481526004602090815260408083206008908101805460ff19166001179055835484529281902090920154825160ff91909116801515928201929092528281526011818401527f46756e64696e6720636f6d706c657465210000000000000000000000000000006060820152915190917ff604f2e1be5e6adfd14f80e1623c0932fe59d8a4a25679b207bb305b40ffce9d919081900360800190a161048a856000546001546104b1565b93505b50505092915050565b60015481565b60009081526004602052604090206007015490565b6000805481526004602052604081206008015460ff1615156104d257600080fd5b60008054815260046020908152604080832033845260090190915290205460ff1615156104fe57600080fd5b600354604080517fae7b033300000000000000000000000000000000000000000000000000000000815273ffffffffffffffffffffffffffffffffffffffff878116600483015260248201879052604482018690529151919092169163ae7b033391606480830192600092919082900301818387803b15801561058057600080fd5b505af1158015610594573d6000803e3d6000fd5b5060019796505050505050505600a165627a7a72305820c2df986cf11100ad8aaa36144fafc429c7809250e8f006a22da3579d0181ddba0029",
			"opcodes": "PUSH1 0x80 PUSH1 0x40 MSTORE PUSH1 0x2 DUP1 SLOAD PUSH1 0x1 PUSH1 0xA0 PUSH1 0x2 EXP SUB NOT SWAP1 DUP2 AND PUSH20 0x86692D1B16C132026292C8F7DF9BB15B549F2C89 OR SWAP2 DUP3 SWAP1 SSTORE PUSH1 0x3 DUP1 SLOAD SWAP1 SWAP2 AND PUSH1 0x1 PUSH1 0xA0 PUSH1 0x2 EXP SUB SWAP3 SWAP1 SWAP3 AND SWAP2 SWAP1 SWAP2 OR SWAP1 SSTORE CALLVALUE DUP1 ISZERO PUSH2 0x53 JUMPI PUSH1 0x0 DUP1 REVERT JUMPDEST POP PUSH1 0x40 MLOAD PUSH2 0x7CD CODESIZE SUB DUP1 PUSH2 0x7CD DUP4 CODECOPY DUP2 ADD PUSH1 0x40 DUP2 DUP2 MSTORE DUP3 MLOAD PUSH1 0x20 DUP1 DUP6 ADD MLOAD DUP4 DUP7 ADD MLOAD PUSH1 0x60 DUP1 DUP9 ADD MLOAD PUSH1 0x80 DUP1 DUP11 ADD MLOAD PUSH1 0xA0 DUP1 DUP13 ADD MLOAD PUSH2 0x120 DUP13 ADD DUP12 MSTORE DUP10 DUP13 MSTORE DUP9 DUP13 ADD DUP9 DUP2 MSTORE DUP12 DUP14 ADD DUP9 DUP2 MSTORE SWAP7 DUP14 ADD DUP7 DUP2 MSTORE SWAP4 SWAP1 SWAP14 ADD SWAP4 DUP13 ADD DUP5 DUP2 MSTORE SWAP2 DUP13 ADD DUP2 SWAP1 MSTORE TIMESTAMP PUSH1 0xC0 DUP14 ADD MSTORE PUSH1 0x0 PUSH1 0xE0 DUP14 ADD DUP2 SWAP1 MSTORE PUSH2 0x100 DUP14 ADD DUP2 SWAP1 MSTORE DUP2 DUP2 MSTORE PUSH1 0x4 DUP1 DUP12 MSTORE SWAP12 SWAP1 KECCAK256 DUP13 MLOAD DUP2 SSTORE SWAP13 MLOAD PUSH1 0x1 DUP15 ADD SSTORE SWAP5 MLOAD PUSH1 0x2 DUP14 ADD SSTORE SWAP1 MLOAD PUSH1 0x3 DUP13 ADD SSTORE MLOAD DUP1 MLOAD SWAP8 SWAP11 SWAP6 SWAP10 SWAP5 SWAP9 SWAP3 SWAP8 SWAP2 SWAP7 SWAP4 SWAP6 SWAP4 PUSH2 0x10D SWAP4 DUP6 ADD SWAP3 SWAP2 ADD SWAP1 PUSH2 0x155 JUMP JUMPDEST POP PUSH1 0xA0 DUP3 ADD MLOAD PUSH1 0x5 DUP3 ADD SSTORE PUSH1 0xC0 DUP3 ADD MLOAD PUSH1 0x6 DUP3 ADD SSTORE PUSH1 0xE0 DUP3 ADD MLOAD PUSH1 0x7 DUP3 ADD SSTORE PUSH2 0x100 SWAP1 SWAP2 ADD MLOAD PUSH1 0x8 SWAP1 SWAP2 ADD DUP1 SLOAD PUSH1 0xFF NOT AND SWAP2 ISZERO ISZERO SWAP2 SWAP1 SWAP2 OR SWAP1 SSTORE PUSH1 0x0 SSTORE POP PUSH2 0x1F0 SWAP4 POP POP POP POP JUMP JUMPDEST DUP3 DUP1 SLOAD PUSH1 0x1 DUP2 PUSH1 0x1 AND ISZERO PUSH2 0x100 MUL SUB AND PUSH1 0x2 SWAP1 DIV SWAP1 PUSH1 0x0 MSTORE PUSH1 0x20 PUSH1 0x0 KECCAK256 SWAP1 PUSH1 0x1F ADD PUSH1 0x20 SWAP1 DIV DUP2 ADD SWAP3 DUP3 PUSH1 0x1F LT PUSH2 0x196 JUMPI DUP1 MLOAD PUSH1 0xFF NOT AND DUP4 DUP1 ADD OR DUP6 SSTORE PUSH2 0x1C3 JUMP JUMPDEST DUP3 DUP1 ADD PUSH1 0x1 ADD DUP6 SSTORE DUP3 ISZERO PUSH2 0x1C3 JUMPI SWAP2 DUP3 ADD JUMPDEST DUP3 DUP2 GT ISZERO PUSH2 0x1C3 JUMPI DUP3 MLOAD DUP3 SSTORE SWAP2 PUSH1 0x20 ADD SWAP2 SWAP1 PUSH1 0x1 ADD SWAP1 PUSH2 0x1A8 JUMP JUMPDEST POP PUSH2 0x1CF SWAP3 SWAP2 POP PUSH2 0x1D3 JUMP JUMPDEST POP SWAP1 JUMP JUMPDEST PUSH2 0x1ED SWAP2 SWAP1 JUMPDEST DUP1 DUP3 GT ISZERO PUSH2 0x1CF JUMPI PUSH1 0x0 DUP2 SSTORE PUSH1 0x1 ADD PUSH2 0x1D9 JUMP JUMPDEST SWAP1 JUMP JUMPDEST PUSH2 0x5CE DUP1 PUSH2 0x1FF PUSH1 0x0 CODECOPY PUSH1 0x0 RETURN STOP PUSH1 0x80 PUSH1 0x40 MSTORE PUSH1 0x4 CALLDATASIZE LT PUSH2 0x6C JUMPI PUSH4 0xFFFFFFFF PUSH29 0x100000000000000000000000000000000000000000000000000000000 PUSH1 0x0 CALLDATALOAD DIV AND PUSH4 0x13CF08B DUP2 EQ PUSH2 0x71 JUMPI DUP1 PUSH4 0x17D70F7C EQ PUSH2 0x13D JUMPI DUP1 PUSH4 0x60B0B0F0 EQ PUSH2 0x164 JUMPI DUP1 PUSH4 0x888F26B8 EQ PUSH2 0x1A9 JUMPI DUP1 PUSH4 0xAEE14460 EQ PUSH2 0x1BE JUMPI JUMPDEST PUSH1 0x0 DUP1 REVERT JUMPDEST CALLVALUE DUP1 ISZERO PUSH2 0x7D JUMPI PUSH1 0x0 DUP1 REVERT JUMPDEST POP PUSH2 0x89 PUSH1 0x4 CALLDATALOAD PUSH2 0x1D6 JUMP JUMPDEST PUSH1 0x40 MLOAD DUP1 DUP11 DUP2 MSTORE PUSH1 0x20 ADD DUP10 DUP2 MSTORE PUSH1 0x20 ADD DUP9 DUP2 MSTORE PUSH1 0x20 ADD DUP8 DUP2 MSTORE PUSH1 0x20 ADD DUP1 PUSH1 0x20 ADD DUP7 DUP2 MSTORE PUSH1 0x20 ADD DUP6 DUP2 MSTORE PUSH1 0x20 ADD DUP5 DUP2 MSTORE PUSH1 0x20 ADD DUP4 ISZERO ISZERO ISZERO ISZERO DUP2 MSTORE PUSH1 0x20 ADD DUP3 DUP2 SUB DUP3 MSTORE DUP8 DUP2 DUP2 MLOAD DUP2 MSTORE PUSH1 0x20 ADD SWAP2 POP DUP1 MLOAD SWAP1 PUSH1 0x20 ADD SWAP1 DUP1 DUP4 DUP4 PUSH1 0x0 JUMPDEST DUP4 DUP2 LT ISZERO PUSH2 0xFA JUMPI DUP2 DUP2 ADD MLOAD DUP4 DUP3 ADD MSTORE PUSH1 0x20 ADD PUSH2 0xE2 JUMP JUMPDEST POP POP POP POP SWAP1 POP SWAP1 DUP2 ADD SWAP1 PUSH1 0x1F AND DUP1 ISZERO PUSH2 0x127 JUMPI DUP1 DUP3 SUB DUP1 MLOAD PUSH1 0x1 DUP4 PUSH1 0x20 SUB PUSH2 0x100 EXP SUB NOT AND DUP2 MSTORE PUSH1 0x20 ADD SWAP2 POP JUMPDEST POP SWAP11 POP POP POP POP POP POP POP POP POP POP POP PUSH1 0x40 MLOAD DUP1 SWAP2 SUB SWAP1 RETURN JUMPDEST CALLVALUE DUP1 ISZERO PUSH2 0x149 JUMPI PUSH1 0x0 DUP1 REVERT JUMPDEST POP PUSH2 0x152 PUSH2 0x2C0 JUMP JUMPDEST PUSH1 0x40 DUP1 MLOAD SWAP2 DUP3 MSTORE MLOAD SWAP1 DUP2 SWAP1 SUB PUSH1 0x20 ADD SWAP1 RETURN JUMPDEST CALLVALUE DUP1 ISZERO PUSH2 0x170 JUMPI PUSH1 0x0 DUP1 REVERT JUMPDEST POP PUSH2 0x195 PUSH1 0x4 CALLDATALOAD PUSH20 0xFFFFFFFFFFFFFFFFFFFFFFFFFFFFFFFFFFFFFFFF PUSH1 0x24 CALLDATALOAD AND PUSH2 0x2C6 JUMP JUMPDEST PUSH1 0x40 DUP1 MLOAD SWAP2 ISZERO ISZERO DUP3 MSTORE MLOAD SWAP1 DUP2 SWAP1 SUB PUSH1 0x20 ADD SWAP1 RETURN JUMPDEST CALLVALUE DUP1 ISZERO PUSH2 0x1B5 JUMPI PUSH1 0x0 DUP1 REVERT JUMPDEST POP PUSH2 0x152 PUSH2 0x496 JUMP JUMPDEST CALLVALUE DUP1 ISZERO PUSH2 0x1CA JUMPI PUSH1 0x0 DUP1 REVERT JUMPDEST POP PUSH2 0x152 PUSH1 0x4 CALLDATALOAD PUSH2 0x49C JUMP JUMPDEST PUSH1 0x4 PUSH1 0x20 MSTORE DUP1 PUSH1 0x0 MSTORE PUSH1 0x40 PUSH1 0x0 KECCAK256 PUSH1 0x0 SWAP2 POP SWAP1 POP DUP1 PUSH1 0x0 ADD SLOAD SWAP1 DUP1 PUSH1 0x1 ADD SLOAD SWAP1 DUP1 PUSH1 0x2 ADD SLOAD SWAP1 DUP1 PUSH1 0x3 ADD SLOAD SWAP1 DUP1 PUSH1 0x4 ADD DUP1 SLOAD PUSH1 0x1 DUP2 PUSH1 0x1 AND ISZERO PUSH2 0x100 MUL SUB AND PUSH1 0x2 SWAP1 DIV DUP1 PUSH1 0x1F ADD PUSH1 0x20 DUP1 SWAP2 DIV MUL PUSH1 0x20 ADD PUSH1 0x40 MLOAD SWAP1 DUP2 ADD PUSH1 0x40 MSTORE DUP1 SWAP3 SWAP2 SWAP1 DUP2 DUP2 MSTORE PUSH1 0x20 ADD DUP3 DUP1 SLOAD PUSH1 0x1 DUP2 PUSH1 0x1 AND ISZERO PUSH2 0x100 MUL SUB AND PUSH1 0x2 SWAP1 DIV DUP1 ISZERO PUSH2 0x29A JUMPI DUP1 PUSH1 0x1F LT PUSH2 0x26F JUMPI PUSH2 0x100 DUP1 DUP4 SLOAD DIV MUL DUP4 MSTORE SWAP2 PUSH1 0x20 ADD SWAP2 PUSH2 0x29A JUMP JUMPDEST DUP3 ADD SWAP2 SWAP1 PUSH1 0x0 MSTORE PUSH1 0x20 PUSH1 0x0 KECCAK256 SWAP1 JUMPDEST DUP2 SLOAD DUP2 MSTORE SWAP1 PUSH1 0x1 ADD SWAP1 PUSH1 0x20 ADD DUP1 DUP4 GT PUSH2 0x27D JUMPI DUP3 SWAP1 SUB PUSH1 0x1F AND DUP3 ADD SWAP2 JUMPDEST POP POP POP POP PUSH1 0x5 DUP4 ADD SLOAD PUSH1 0x6 DUP5 ADD SLOAD PUSH1 0x7 DUP6 ADD SLOAD PUSH1 0x8 SWAP1 SWAP6 ADD SLOAD SWAP4 SWAP5 SWAP2 SWAP4 SWAP1 SWAP3 POP PUSH1 0xFF AND DUP10 JUMP JUMPDEST PUSH1 0x0 SLOAD DUP2 JUMP JUMPDEST PUSH1 0x0 DUP1 SLOAD DUP2 MSTORE PUSH1 0x4 PUSH1 0x20 MSTORE PUSH1 0x40 DUP2 KECCAK256 PUSH1 0x7 DUP2 ADD SLOAD PUSH1 0x2 SWAP1 SWAP2 ADD SLOAD DUP2 SWAP1 SUB DUP3 DUP2 DUP7 GT ISZERO PUSH2 0x2F1 JUMPI PUSH1 0x0 DUP1 REVERT JUMPDEST DUP3 DUP7 ADD PUSH1 0x1 DUP2 DUP2 SSTORE PUSH1 0x0 DUP1 SLOAD DUP2 MSTORE PUSH1 0x4 PUSH1 0x20 SWAP1 DUP2 MSTORE PUSH1 0x40 DUP1 DUP4 KECCAK256 PUSH1 0x7 ADD SWAP5 SWAP1 SWAP5 SSTORE DUP2 SLOAD DUP3 MSTORE DUP4 DUP3 KECCAK256 CALLER DUP4 MSTORE PUSH1 0x9 ADD DUP2 MSTORE SWAP1 DUP4 SWAP1 KECCAK256 DUP1 SLOAD PUSH1 0xFF NOT AND DUP4 OR SWAP1 SSTORE SWAP1 SLOAD DUP3 MLOAD SWAP2 DUP3 ADD DUP10 SWAP1 MSTORE DUP2 DUP4 ADD MSTORE PUSH1 0x60 DUP1 DUP3 MSTORE PUSH1 0x24 SWAP1 DUP3 ADD MSTORE PUSH32 0x596F757220636F6E747269627574696F6E20686173206265656E206163636570 PUSH1 0x80 DUP3 ADD MSTORE PUSH32 0x7465642100000000000000000000000000000000000000000000000000000000 PUSH1 0xA0 DUP3 ADD MSTORE SWAP1 MLOAD PUSH32 0x2D53C88922B643DDB30E233F98741B60B54BEC53FCD7EFBE90F46D39E59C03DA SWAP2 DUP2 SWAP1 SUB PUSH1 0xC0 ADD SWAP1 LOG1 PUSH1 0x0 DUP1 SLOAD DUP2 MSTORE PUSH1 0x4 PUSH1 0x20 MSTORE PUSH1 0x40 SWAP1 KECCAK256 PUSH1 0x2 ADD SLOAD PUSH1 0x1 SLOAD EQ ISZERO PUSH2 0x48D JUMPI POP PUSH1 0x0 DUP1 SLOAD DUP2 MSTORE PUSH1 0x4 PUSH1 0x20 SWAP1 DUP2 MSTORE PUSH1 0x40 DUP1 DUP4 KECCAK256 PUSH1 0x8 SWAP1 DUP2 ADD DUP1 SLOAD PUSH1 0xFF NOT AND PUSH1 0x1 OR SWAP1 SSTORE DUP4 SLOAD DUP5 MSTORE SWAP3 DUP2 SWAP1 KECCAK256 SWAP1 SWAP3 ADD SLOAD DUP3 MLOAD PUSH1 0xFF SWAP2 SWAP1 SWAP2 AND DUP1 ISZERO ISZERO SWAP3 DUP3 ADD SWAP3 SWAP1 SWAP3 MSTORE DUP3 DUP2 MSTORE PUSH1 0x11 DUP2 DUP5 ADD MSTORE PUSH32 0x46756E64696E6720636F6D706C65746521000000000000000000000000000000 PUSH1 0x60 DUP3 ADD MSTORE SWAP2 MLOAD SWAP1 SWAP2 PUSH32 0xF604F2E1BE5E6ADFD14F80E1623C0932FE59D8A4A25679B207BB305B40FFCE9D SWAP2 SWAP1 DUP2 SWAP1 SUB PUSH1 0x80 ADD SWAP1 LOG1 PUSH2 0x48A DUP6 PUSH1 0x0 SLOAD PUSH1 0x1 SLOAD PUSH2 0x4B1 JUMP JUMPDEST SWAP4 POP JUMPDEST POP POP POP SWAP3 SWAP2 POP POP JUMP JUMPDEST PUSH1 0x1 SLOAD DUP2 JUMP JUMPDEST PUSH1 0x0 SWAP1 DUP2 MSTORE PUSH1 0x4 PUSH1 0x20 MSTORE PUSH1 0x40 SWAP1 KECCAK256 PUSH1 0x7 ADD SLOAD SWAP1 JUMP JUMPDEST PUSH1 0x0 DUP1 SLOAD DUP2 MSTORE PUSH1 0x4 PUSH1 0x20 MSTORE PUSH1 0x40 DUP2 KECCAK256 PUSH1 0x8 ADD SLOAD PUSH1 0xFF AND ISZERO ISZERO PUSH2 0x4D2 JUMPI PUSH1 0x0 DUP1 REVERT JUMPDEST PUSH1 0x0 DUP1 SLOAD DUP2 MSTORE PUSH1 0x4 PUSH1 0x20 SWAP1 DUP2 MSTORE PUSH1 0x40 DUP1 DUP4 KECCAK256 CALLER DUP5 MSTORE PUSH1 0x9 ADD SWAP1 SWAP2 MSTORE SWAP1 KECCAK256 SLOAD PUSH1 0xFF AND ISZERO ISZERO PUSH2 0x4FE JUMPI PUSH1 0x0 DUP1 REVERT JUMPDEST PUSH1 0x3 SLOAD PUSH1 0x40 DUP1 MLOAD PUSH32 0xAE7B033300000000000000000000000000000000000000000000000000000000 DUP2 MSTORE PUSH20 0xFFFFFFFFFFFFFFFFFFFFFFFFFFFFFFFFFFFFFFFF DUP8 DUP2 AND PUSH1 0x4 DUP4 ADD MSTORE PUSH1 0x24 DUP3 ADD DUP8 SWAP1 MSTORE PUSH1 0x44 DUP3 ADD DUP7 SWAP1 MSTORE SWAP2 MLOAD SWAP2 SWAP1 SWAP3 AND SWAP2 PUSH4 0xAE7B0333 SWAP2 PUSH1 0x64 DUP1 DUP4 ADD SWAP3 PUSH1 0x0 SWAP3 SWAP2 SWAP1 DUP3 SWAP1 SUB ADD DUP2 DUP4 DUP8 DUP1 EXTCODESIZE ISZERO DUP1 ISZERO PUSH2 0x580 JUMPI PUSH1 0x0 DUP1 REVERT JUMPDEST POP GAS CALL ISZERO DUP1 ISZERO PUSH2 0x594 JUMPI RETURNDATASIZE PUSH1 0x0 DUP1 RETURNDATACOPY RETURNDATASIZE PUSH1 0x0 REVERT JUMPDEST POP PUSH1 0x1 SWAP8 SWAP7 POP POP POP POP POP POP POP JUMP STOP LOG1 PUSH6 0x627A7A723058 KECCAK256 0xc2 0xdf SWAP9 PUSH13 0xF11100AD8AAA36144FAFC429C7 DUP1 SWAP3 POP 0xe8 CREATE MOD LOG2 0x2d LOG3 JUMPI SWAP14 ADD DUP2 0xdd 0xba STOP 0x29 "
		},
		"gasEstimates": {
			"creation": {
				"codeDepositCost": "297200",
				"executionCost": "infinite",
				"totalCost": "infinite"
			},
			"external": {
				"contribute(uint256,address)": "infinite",
				"currentContractBalance()": "450",
				"getSummary(uint256)": "550",
				"proposals(uint256)": "infinite",
				"tokenId()": "406"
			},
			"internal": {
				"_purchaseAsset(address,uint256,uint256)": "infinite"
			}
		},
		"methodIdentifiers": {
			"contribute(uint256,address)": "60b0b0f0",
			"currentContractBalance()": "888f26b8",
			"getSummary(uint256)": "aee14460",
			"proposals(uint256)": "013cf08b",
			"tokenId()": "17d70f7c"
		}
	},
	"abi": [
		{
			"constant": true,
			"inputs": [
				{
					"name": "",
					"type": "uint256"
				}
			],
			"name": "proposals",
			"outputs": [
				{
					"name": "id",
					"type": "uint256"
				},
				{
					"name": "userId",
					"type": "uint256"
				},
				{
					"name": "listPrice",
					"type": "uint256"
				},
				{
					"name": "reSalePrice",
					"type": "uint256"
				},
				{
					"name": "text",
					"type": "string"
				},
				{
					"name": "tokenId",
					"type": "uint256"
				},
				{
					"name": "postedAt",
					"type": "uint256"
				},
				{
					"name": "balance",
					"type": "uint256"
				},
				{
					"name": "fundingComplete",
					"type": "bool"
				}
			],
			"payable": false,
			"stateMutability": "view",
			"type": "function"
		},
		{
			"constant": true,
			"inputs": [],
			"name": "tokenId",
			"outputs": [
				{
					"name": "",
					"type": "uint256"
				}
			],
			"payable": false,
			"stateMutability": "view",
			"type": "function"
		},
		{
			"constant": false,
			"inputs": [
				{
					"name": "_contribution",
					"type": "uint256"
				},
				{
					"name": "_nftAddress",
					"type": "address"
				}
			],
			"name": "contribute",
			"outputs": [
				{
					"name": "",
					"type": "bool"
				}
			],
			"payable": false,
			"stateMutability": "nonpayable",
			"type": "function"
		},
		{
			"constant": true,
			"inputs": [],
			"name": "currentContractBalance",
			"outputs": [
				{
					"name": "",
					"type": "uint256"
				}
			],
			"payable": false,
			"stateMutability": "view",
			"type": "function"
		},
		{
			"constant": true,
			"inputs": [
				{
					"name": "_tokenId",
					"type": "uint256"
				}
			],
			"name": "getSummary",
			"outputs": [
				{
					"name": "",
					"type": "uint256"
				}
			],
			"payable": false,
			"stateMutability": "view",
			"type": "function"
		},
		{
			"inputs": [
				{
					"name": "latestProposalId",
					"type": "uint256"
				},
				{
					"name": "_userId",
					"type": "uint256"
				},
				{
					"name": "_listPrice",
					"type": "uint256"
				},
				{
					"name": "_reSalePrice",
					"type": "uint256"
				},
				{
					"name": "_text",
					"type": "string"
				},
				{
					"name": "_tokenId",
					"type": "uint256"
				}
			],
			"payable": false,
			"stateMutability": "nonpayable",
			"type": "constructor"
		},
		{
			"anonymous": false,
			"inputs": [
				{
					"indexed": false,
					"name": "_message",
					"type": "string"
				},
				{
					"indexed": false,
					"name": "_contribution",
					"type": "uint256"
				},
				{
					"indexed": false,
					"name": "currentContractBalance",
					"type": "uint256"
				}
			],
			"name": "ContributionSuccess",
			"type": "event"
		},
		{
			"anonymous": false,
			"inputs": [
				{
					"indexed": false,
					"name": "_message",
					"type": "string"
				},
				{
					"indexed": false,
					"name": "fundComplete",
					"type": "bool"
				}
			],
			"name": "AssetFunded",
			"type": "event"
		}
	]
}