{
  "contractName": "UserController",
  "abi": [
    {
      "anonymous": false,
      "inputs": [
        {
          "indexed": true,
          "internalType": "address",
          "name": "previousOwner",
          "type": "address"
        },
        {
          "indexed": true,
          "internalType": "address",
          "name": "newOwner",
          "type": "address"
        }
      ],
      "name": "OwnershipTransferred",
      "type": "event"
    },
    {
      "constant": true,
      "inputs": [],
      "name": "isOwner",
      "outputs": [
        {
          "internalType": "bool",
          "name": "",
          "type": "bool"
        }
      ],
      "payable": false,
      "stateMutability": "view",
      "type": "function"
    },
    {
      "constant": true,
      "inputs": [],
      "name": "owner",
      "outputs": [
        {
          "internalType": "address",
          "name": "",
          "type": "address"
        }
      ],
      "payable": false,
      "stateMutability": "view",
      "type": "function"
    },
    {
      "constant": false,
      "inputs": [],
      "name": "renounceOwnership",
      "outputs": [],
      "payable": false,
      "stateMutability": "nonpayable",
      "type": "function"
    },
    {
      "constant": false,
      "inputs": [
        {
          "internalType": "address",
          "name": "_managerAddr",
          "type": "address"
        }
      ],
      "name": "setManagerAddr",
      "outputs": [],
      "payable": false,
      "stateMutability": "nonpayable",
      "type": "function"
    },
    {
      "constant": false,
      "inputs": [
        {
          "internalType": "address",
          "name": "newOwner",
          "type": "address"
        }
      ],
      "name": "transferOwnership",
      "outputs": [],
      "payable": false,
      "stateMutability": "nonpayable",
      "type": "function"
    },
    {
      "constant": false,
      "inputs": [
        {
          "internalType": "bytes32",
          "name": "_username",
          "type": "bytes32"
        }
      ],
      "name": "createUser",
      "outputs": [
        {
          "internalType": "uint256",
          "name": "",
          "type": "uint256"
        }
      ],
      "payable": false,
      "stateMutability": "nonpayable",
      "type": "function"
    }
  ],
  "bytecode": "0x608060405260006100176001600160e01b0361006616565b600080546001600160a01b0319166001600160a01b0383169081178255604051929350917f8be0079c531659141344cd1fd0a4f28419497f9722a3daafe3b4186f6b6457e0908290a35061006a565b3390565b610669806100796000396000f3fe608060405234801561001057600080fd5b50600436106100625760003560e01c8063715018a6146100675780637978b231146100715780638da5cb5b146100975780638f32d59b146100bb578063abf7bfd8146100d7578063f2fde38b14610106575b600080fd5b61006f61012c565b005b61006f6004803603602081101561008757600080fd5b50356001600160a01b03166101cf565b61009f61024a565b604080516001600160a01b039092168252519081900360200190f35b6100c3610259565b604080519115158252519081900360200190f35b6100f4600480360360208110156100ed57600080fd5b503561027d565b60408051918252519081900360200190f35b61006f6004803603602081101561011c57600080fd5b50356001600160a01b0316610505565b610134610259565b610185576040805162461bcd60e51b815260206004820181905260248201527f4f776e61626c653a2063616c6c6572206973206e6f7420746865206f776e6572604482015290519081900360640190fd5b600080546040516001600160a01b03909116907f8be0079c531659141344cd1fd0a4f28419497f9722a3daafe3b4186f6b6457e0908390a3600080546001600160a01b0319169055565b6101d7610259565b610228576040805162461bcd60e51b815260206004820181905260248201527f4f776e61626c653a2063616c6c6572206973206e6f7420746865206f776e6572604482015290519081900360640190fd5b600180546001600160a01b0319166001600160a01b0392909216919091179055565b6000546001600160a01b031690565b600080546001600160a01b031661026e61056a565b6001600160a01b031614905090565b6001546040805163bf40fac160e01b8152602060048201819052600b60248301526a5573657253746f7261676560a81b604483015291516000936001600160a01b0316928492849263bf40fac192606480840193919291829003018186803b1580156102e857600080fd5b505afa1580156102fc573d6000803e3d6000fd5b505050506040513d602081101561031257600080fd5b5051604080516320b4e25560e21b8152336004820152905191925082916001600160a01b038316916382d38954916024808301926020929190829003018186803b15801561035f57600080fd5b505afa158015610373573d6000803e3d6000fd5b505050506040513d602081101561038957600080fd5b5051156103ce576040805162461bcd60e51b815260206004820152600e60248201526d4164647265737320496e2055736560901b604482015290519081900360640190fd5b806001600160a01b031663ec4d88d7866040518263ffffffff1660e01b81526004018082815260200191505060206040518083038186803b15801561041257600080fd5b505afa158015610426573d6000803e3d6000fd5b505050506040513d602081101561043c57600080fd5b505115610482576040805162461bcd60e51b815260206004820152600f60248201526e557365724e616d6520496e2055736560881b604482015290519081900360640190fd5b6040805162507ee560e61b81523360048201526024810187905290516001600160a01b0383169163141fb9409160448083019260209291908290030181600087803b1580156104d057600080fd5b505af11580156104e4573d6000803e3d6000fd5b505050506040513d60208110156104fa57600080fd5b505195945050505050565b61050d610259565b61055e576040805162461bcd60e51b815260206004820181905260248201527f4f776e61626c653a2063616c6c6572206973206e6f7420746865206f776e6572604482015290519081900360640190fd5b6105678161056e565b50565b3390565b6001600160a01b0381166105b35760405162461bcd60e51b815260040180806020018281038252602681526020018061060f6026913960400191505060405180910390fd5b600080546040516001600160a01b03808516939216917f8be0079c531659141344cd1fd0a4f28419497f9722a3daafe3b4186f6b6457e091a3600080546001600160a01b0319166001600160a01b039290921691909117905556fe4f776e61626c653a206e6577206f776e657220697320746865207a65726f2061646472657373a265627a7a723158206ec9302004175a640a1e0ade45922fa846fdece9cb8f87fab59d832d7a12bff364736f6c63430005110032",
  "source": "pragma solidity ^0.5.17;\r\n\r\nimport '../helpers/BaseController.sol';\r\nimport '../ContractManager.sol';\r\nimport './UserStorage.sol';\r\n\r\ncontract UserController is BaseController {\r\n\r\n  function createUser(bytes32 _username) public returns(uint) {\r\n    ContractManager _manager = ContractManager(managerAddr);\r\n    address _userStorageAddr = _manager.getAddress(\"UserStorage\");\r\n    UserStorage _storage = UserStorage(_userStorageAddr);\r\n\r\n\r\n    require(!_storage.addresses(msg.sender),\r\n    \"Address In Use\");\r\n\r\n    require(_storage.usernames(_username) == 0,\r\n    \"UserName In Use\");\r\n\r\n    return _storage.createUser(\r\n      msg.sender,\r\n      _username\r\n    );\r\n  }\r\n\r\n}",
  "sourcePath": "C:/Users/Samsung/code/dnp/contracts/users/UserController.sol",
  "compiler": {
    "name": "solc",
    "version": "0.5.17+commit.d19bba13.Emscripten.clang"
  },
  "schemaVersion": "3.3.3",
  "updatedAt": "2021-05-31T16:54:51.489Z",
  "networkType": "ethereum",
  "devdoc": {
    "methods": {
      "isOwner()": {
        "details": "Returns true if the caller is the current owner."
      },
      "owner()": {
        "details": "Returns the address of the current owner."
      },
      "renounceOwnership()": {
        "details": "Leaves the contract without owner. It will not be possible to call `onlyOwner` functions anymore. Can only be called by the current owner.     * NOTE: Renouncing ownership will leave the contract without an owner, thereby removing any functionality that is only available to the owner."
      },
      "transferOwnership(address)": {
        "details": "Transfers ownership of the contract to a new account (`newOwner`). Can only be called by the current owner."
      }
    }
  },
  "userdoc": {
    "methods": {}
  }
}