{
  "contractName": "ProposalStorage",
  "abi": [
    {
      "inputs": [
        {
          "internalType": "bytes32",
          "name": "_orderId",
          "type": "bytes32"
        },
        {
          "internalType": "uint128",
          "name": "_userId",
          "type": "uint128"
        },
        {
          "internalType": "uint256",
          "name": "_expiresAt",
          "type": "uint256"
        },
        {
          "internalType": "uint256",
          "name": "_listPrice",
          "type": "uint256"
        },
        {
          "internalType": "uint256",
          "name": "_reSalePrice",
          "type": "uint256"
        },
        {
          "internalType": "uint256",
          "name": "_tokenId",
          "type": "uint256"
        },
        {
          "internalType": "address",
          "name": "_marketAddr",
          "type": "address"
        },
        {
          "internalType": "address",
          "name": "_tokenAddress",
          "type": "address"
        },
        {
          "internalType": "address",
          "name": "_nftaddress",
          "type": "address"
        }
      ],
      "payable": false,
      "stateMutability": "nonpayable",
      "type": "constructor"
    },
    {
      "anonymous": false,
      "inputs": [
        {
          "indexed": false,
          "internalType": "string",
          "name": "_message",
          "type": "string"
        },
        {
          "indexed": false,
          "internalType": "uint256",
          "name": "_contribution",
          "type": "uint256"
        },
        {
          "indexed": false,
          "internalType": "uint256",
          "name": "currentContractBalance",
          "type": "uint256"
        }
      ],
      "name": "ContributionSuccess",
      "type": "event"
    },
    {
      "anonymous": false,
      "inputs": [
        {
          "indexed": false,
          "internalType": "string",
          "name": "description",
          "type": "string"
        }
      ],
      "name": "LogNewProvableQuery",
      "type": "event"
    },
    {
      "anonymous": false,
      "inputs": [
        {
          "indexed": false,
          "internalType": "string",
          "name": "_message",
          "type": "string"
        }
      ],
      "name": "ProposalEvent",
      "type": "event"
    },
    {
      "anonymous": false,
      "inputs": [
        {
          "indexed": false,
          "internalType": "string",
          "name": "_message",
          "type": "string"
        }
      ],
      "name": "RandomFailure",
      "type": "event"
    },
    {
      "constant": true,
      "inputs": [],
      "name": "controller",
      "outputs": [
        {
          "internalType": "contract Controller",
          "name": "",
          "type": "address"
        }
      ],
      "payable": false,
      "stateMutability": "view",
      "type": "function"
    },
    {
      "constant": true,
      "inputs": [
        {
          "internalType": "uint256",
          "name": "",
          "type": "uint256"
        }
      ],
      "name": "depositersArray",
      "outputs": [
        {
          "internalType": "address",
          "name": "",
          "type": "address"
        }
      ],
      "payable": false,
      "stateMutability": "view",
      "type": "function"
    },
    {
      "constant": true,
      "inputs": [
        {
          "internalType": "address",
          "name": "",
          "type": "address"
        }
      ],
      "name": "deposits",
      "outputs": [
        {
          "internalType": "uint256",
          "name": "",
          "type": "uint256"
        }
      ],
      "payable": false,
      "stateMutability": "view",
      "type": "function"
    },
    {
      "constant": true,
      "inputs": [],
      "name": "marketAddr",
      "outputs": [
        {
          "internalType": "address",
          "name": "",
          "type": "address"
        }
      ],
      "payable": false,
      "stateMutability": "view",
      "type": "function"
    },
    {
      "constant": true,
      "inputs": [],
      "name": "nftAddress",
      "outputs": [
        {
          "internalType": "address",
          "name": "",
          "type": "address"
        }
      ],
      "payable": false,
      "stateMutability": "view",
      "type": "function"
    },
    {
      "constant": false,
      "inputs": [
        {
          "internalType": "address",
          "name": "",
          "type": "address"
        },
        {
          "internalType": "address",
          "name": "",
          "type": "address"
        },
        {
          "internalType": "uint256",
          "name": "",
          "type": "uint256"
        },
        {
          "internalType": "bytes",
          "name": "",
          "type": "bytes"
        }
      ],
      "name": "onERC721Received",
      "outputs": [
        {
          "internalType": "bytes4",
          "name": "",
          "type": "bytes4"
        }
      ],
      "payable": false,
      "stateMutability": "nonpayable",
      "type": "function"
    },
    {
      "constant": true,
      "inputs": [],
      "name": "owner",
      "outputs": [
        {
          "internalType": "address",
          "name": "",
          "type": "address"
        }
      ],
      "payable": false,
      "stateMutability": "view",
      "type": "function"
    },
    {
      "constant": true,
      "inputs": [
        {
          "internalType": "uint256",
          "name": "",
          "type": "uint256"
        }
      ],
      "name": "proposals",
      "outputs": [
        {
          "internalType": "bytes32",
          "name": "orderId",
          "type": "bytes32"
        },
        {
          "internalType": "uint128",
          "name": "userId",
          "type": "uint128"
        },
        {
          "internalType": "uint256",
          "name": "expiresAt",
          "type": "uint256"
        },
        {
          "internalType": "uint256",
          "name": "listPrice",
          "type": "uint256"
        },
        {
          "internalType": "uint256",
          "name": "reSalePrice",
          "type": "uint256"
        },
        {
          "internalType": "uint256",
          "name": "tokenId",
          "type": "uint256"
        },
        {
          "internalType": "uint256",
          "name": "postedAt",
          "type": "uint256"
        },
        {
          "internalType": "uint256",
          "name": "balance",
          "type": "uint256"
        },
        {
          "internalType": "uint256",
          "name": "remainder",
          "type": "uint256"
        },
        {
          "internalType": "bool",
          "name": "fundingComplete",
          "type": "bool"
        },
        {
          "internalType": "enum ProposalStorage.ProposalStatus",
          "name": "status",
          "type": "uint8"
        }
      ],
      "payable": false,
      "stateMutability": "view",
      "type": "function"
    },
    {
      "constant": true,
      "inputs": [],
      "name": "randomNumber",
      "outputs": [
        {
          "internalType": "uint256",
          "name": "",
          "type": "uint256"
        }
      ],
      "payable": false,
      "stateMutability": "view",
      "type": "function"
    },
    {
      "constant": true,
      "inputs": [],
      "name": "reSaleExpiresAt",
      "outputs": [
        {
          "internalType": "uint256",
          "name": "",
          "type": "uint256"
        }
      ],
      "payable": false,
      "stateMutability": "view",
      "type": "function"
    },
    {
      "constant": true,
      "inputs": [],
      "name": "tokenAddress",
      "outputs": [
        {
          "internalType": "address",
          "name": "",
          "type": "address"
        }
      ],
      "payable": false,
      "stateMutability": "view",
      "type": "function"
    },
    {
      "constant": true,
      "inputs": [],
      "name": "tokenId",
      "outputs": [
        {
          "internalType": "uint256",
          "name": "",
          "type": "uint256"
        }
      ],
      "payable": false,
      "stateMutability": "view",
      "type": "function"
    },
    {
      "constant": true,
      "inputs": [],
      "name": "winningContributor",
      "outputs": [
        {
          "internalType": "address",
          "name": "",
          "type": "address"
        }
      ],
      "payable": false,
      "stateMutability": "view",
      "type": "function"
    },
    {
      "constant": false,
      "inputs": [
        {
          "internalType": "uint256",
          "name": "_contribution",
          "type": "uint256"
        }
      ],
      "name": "deposit",
      "outputs": [
        {
          "internalType": "bool",
          "name": "",
          "type": "bool"
        }
      ],
      "payable": false,
      "stateMutability": "nonpayable",
      "type": "function"
    },
    {
      "constant": false,
      "inputs": [],
      "name": "completePurchase",
      "outputs": [],
      "payable": false,
      "stateMutability": "nonpayable",
      "type": "function"
    },
    {
      "constant": false,
      "inputs": [],
      "name": "sellAsset",
      "outputs": [],
      "payable": false,
      "stateMutability": "nonpayable",
      "type": "function"
    },
    {
      "constant": false,
      "inputs": [],
      "name": "payOut",
      "outputs": [],
      "payable": false,
      "stateMutability": "nonpayable",
      "type": "function"
    },
    {
      "constant": false,
      "inputs": [],
      "name": "withdraw",
      "outputs": [
        {
          "internalType": "bool",
          "name": "",
          "type": "bool"
        }
      ],
      "payable": false,
      "stateMutability": "nonpayable",
      "type": "function"
    },
    {
      "constant": false,
      "inputs": [
        {
          "internalType": "uint256",
          "name": "_newPrice",
          "type": "uint256"
        },
        {
          "internalType": "uint256",
          "name": "_expiresAt",
          "type": "uint256"
        },
        {
          "internalType": "bytes32",
          "name": "_orderId",
          "type": "bytes32"
        }
      ],
      "name": "updateContract",
      "outputs": [
        {
          "internalType": "bool",
          "name": "",
          "type": "bool"
        }
      ],
      "payable": false,
      "stateMutability": "nonpayable",
      "type": "function"
    },
    {
      "constant": false,
      "inputs": [],
      "name": "weightContributors",
      "outputs": [],
      "payable": false,
      "stateMutability": "nonpayable",
      "type": "function"
    },
    {
      "constant": false,
      "inputs": [],
      "name": "_randomModulo",
      "outputs": [],
      "payable": false,
      "stateMutability": "nonpayable",
      "type": "function"
    },
    {
      "constant": true,
      "inputs": [],
      "name": "weigDepositers",
      "outputs": [
        {
          "internalType": "address[]",
          "name": "",
          "type": "address[]"
        }
      ],
      "payable": false,
      "stateMutability": "view",
      "type": "function"
    },
    {
      "constant": false,
      "inputs": [],
      "name": "claimAsset",
      "outputs": [],
      "payable": false,
      "stateMutability": "nonpayable",
      "type": "function"
    },
    {
      "constant": true,
      "inputs": [
        {
          "internalType": "address",
          "name": "_depositer",
          "type": "address"
        }
      ],
      "name": "depositedAmount",
      "outputs": [
        {
          "internalType": "uint256",
          "name": "",
          "type": "uint256"
        }
      ],
      "payable": false,
      "stateMutability": "view",
      "type": "function"
    },
    {
      "constant": true,
      "inputs": [],
      "name": "countDepositers",
      "outputs": [
        {
          "internalType": "uint256",
          "name": "",
          "type": "uint256"
        }
      ],
      "payable": false,
      "stateMutability": "view",
      "type": "function"
    },
    {
      "constant": true,
      "inputs": [],
      "name": "balanceOf",
      "outputs": [
        {
          "internalType": "uint256",
          "name": "",
          "type": "uint256"
        }
      ],
      "payable": false,
      "stateMutability": "view",
      "type": "function"
    },
    {
      "constant": true,
      "inputs": [
        {
          "internalType": "uint256",
          "name": "_tokenId",
          "type": "uint256"
        }
      ],
      "name": "getSummary",
      "outputs": [
        {
          "internalType": "uint256",
          "name": "",
          "type": "uint256"
        }
      ],
      "payable": false,
      "stateMutability": "view",
      "type": "function"
    }
  ],
  "bytecode": "0x60806040526000601055620186a060115534801561001c57600080fd5b5060405161264b38038061264b833981810160405261012081101561004057600080fd5b81019080805190602001909291908051906020019092919080519060200190929190805190602001909291908051906020019092919080519060200190929190805190602001909291908051906020019092919080519060200190929190505050336000806101000a8154816001600160a01b0302191690836001600160a01b031602179055506040518061016001604052808a8152602001896001600160801b03168152602001888152602001878152602001868152602001858152602001428152602001600081526020018781526020016000151581526020016000600b81111561012957fe5b90526000858152600c602090815260409182902083518155908301516001820180546001600160801b0319166001600160801b03909216919091179055908201516002820155606082015160038201556080820151600482015560a0820151600582015560c0820151600682015560e0820151600782015561010080830151600883015561012083015160098301805460ff1916911515919091178082556101408501519261ff00199091169083600b8111156101e257fe5b021790555050600780546001600160a01b03199081163317909155600b9590955550600880546001600160a01b039283169086168117909155600a80549483169486168517905560098054939092169285168317909155600180548516909117905560028054841690911790556003805490921617905550505050506123de8061026d6000396000f3fe608060405234801561001057600080fd5b50600436106101a95760003560e01c806373203593116100f9578063b6b55f2511610097578063cefa74cc11610071578063cefa74cc146104c7578063e929a546146104cf578063f77c4791146104f8578063fc7e286d14610500576101a9565b8063b6b55f251461049a578063c2052403146104b7578063ccbac9f5146104bf576101a9565b806394adb6a2116100d357806394adb6a2146104655780639d76ea581461046d578063a42a3fb714610475578063aee144601461047d576101a9565b806373203593146103fd57806379366f67146104055780638da5cb5b1461045d576101a9565b8063482174ad1161016657806356197a9e1161014057806356197a9e146103dd5780635bf8633a146103e55780636c738c89146103ed578063722713f7146103f5576101a9565b8063482174ad146103765780634a4643f71461037e578063537464bf146103a4576101a9565b8063013cf08b146101ae578063095f39d21461024b5780631013cf6b14610255578063150b7a021461026f57806317d70f7c146103525780633ccfd60b1461035a575b600080fd5b6101cb600480360360208110156101c457600080fd5b5035610526565b604051808c81526020018b6001600160801b03166001600160801b031681526020018a81526020018981526020018881526020018781526020018681526020018581526020018481526020018315151515815260200182600b81111561022d57fe5b60ff1681526020019b50505050505050505050505060405180910390f35b61025361058d565b005b61025d6107ed565b60408051918252519081900360200190f35b6103356004803603608081101561028557600080fd5b6001600160a01b038235811692602081013590911691604082013591908101906080810160608201356401000000008111156102c057600080fd5b8201836020820111156102d257600080fd5b803590602001918460018302840111640100000000831117156102f457600080fd5b91908080601f0160208091040260200160405190810160405280939291908181526020018383808284376000920191909152509295506107f3945050505050565b604080516001600160e01b03199092168252519081900360200190f35b61025d610803565b610362610809565b604080519115158252519081900360200190f35b6102536109f1565b61025d6004803603602081101561039457600080fd5b50356001600160a01b0316610c4b565b6103c1600480360360208110156103ba57600080fd5b5035610c6a565b604080516001600160a01b039092168252519081900360200190f35b6103c1610c91565b6103c1610ca0565b610253610caf565b61025d6110a4565b610253611120565b61040d611243565b60408051602080825283518183015283519192839290830191858101910280838360005b83811015610449578181015183820152602001610431565b505050509050019250505060405180910390f35b6103c16112a5565b61025d6112b4565b6103c16112ba565b6102536112c9565b61025d6004803603602081101561049357600080fd5b5035611314565b610362600480360360208110156104b057600080fd5b5035611329565b61025361178d565b61025d611d42565b6103c1611d48565b610362600480360360608110156104e557600080fd5b5080359060208101359060400135611d57565b6103c1611ecc565b61025d6004803603602081101561051657600080fd5b50356001600160a01b0316611edb565b600c60205260009081526040902080546001820154600283015460038401546004850154600586015460068701546007880154600889015460099099015497986001600160801b039097169795969495939492939192909160ff808216916101009004168b565b610595611eed565b600b546000908152600c602052604090206006546103e8420290811180156105d45750600a6009830154610100900460ff16600b8111156105d257fe5b145b610625576040805162461bcd60e51b815260206004820152601960248201527f417373657420726573616c65206e6f7420657870697265642e00000000000000604482015290519081900360640190fd5b6000805483546040805163e23ffba960e01b8152306004820152600860248201526044810192909252516001600160a01b039092169263e23ffba99260648084019382900301818387803b15801561067c57600080fd5b505af1158015610690573d6000803e3d6000fd5b506000925050505b600f5461ffff821610156107e0576000600f8261ffff16815481106106b957fe5b60009182526020808320909101546001600160a01b0316808352600e8252604080842054815163554d048960e11b8152600481018290526001602482015268056bc75e2d6310000060448201529151929550939273__Div___________________________________9263aa9a0912926064808201939291829003018186803b15801561074557600080fd5b505af4158015610759573d6000803e3d6000fd5b505050506040513d602081101561076f57600080fd5b5051905060005b818110156107d057600d8054600180820183556000929092527fd7b6990105719101dabeb77144f2a3385c8033acd3af97e9423a695e81ad1eb50180546001600160a01b0319166001600160a01b03871617905501610776565b5050600190920191506106989050565b506107e96112c9565b5050565b600f5490565b630a85bd0160e11b949350505050565b600b5481565b6000610813611eed565b61081b611f6b565b600b546000908152600c60205260408120906103e84202906009830154610100900460ff16600b81111561084b57fe5b148061085a5750816002015481115b6108a0576040805162461bcd60e51b81526020600482015260126024820152712bb4ba34323930bbb0b6103330b4b632b21760711b604482015290519081900360640190fd5b60098201805461ff001916610200179055336000818152600e60209081526040808320805490849055600a87018352818420805460ff19169055600787018054829003908190556003880154036008880155600254825163a9059cbb60e01b8152600481019690965260248601829052915190946001600160a01b039092169363a9059cbb93604480850194919392918390030190829087803b15801561094657600080fd5b505af115801561095a573d6000803e3d6000fd5b505050506040513d602081101561097057600080fd5b5050604080516020808252601490820152735769746864726177616c20636f6d706c6574652160601b8183015290516000805160206122f28339815191529181900360600190a182600201548211156109d95760098301805461ff0019166108001790556109e7565b60098301805461ff00191690555b6001935050505090565b6109f9611eed565b610a01611f6b565b610a09611fe9565b600b546000908152600c60209081526040808320600254600a546003830154845163095ea7b360e01b81526001600160a01b03928316600482015260248101919091529351929591169363095ea7b3936044808201949293918390030190829087803b158015610a7857600080fd5b505af1158015610a8c573d6000803e3d6000fd5b505050506040513d6020811015610aa257600080fd5b5051610aed576040805162461bcd60e51b8152602060048201526015602482015274151bdad95b88185c1c1c9bdd985b0819985a5b1959605a1b604482015290519081900360640190fd5b60038054600854600b54928401546040805163ae7b033360e01b81526001600160a01b039384166004820152602481019590955260448501919091525191169163ae7b033391606480830192600092919082900301818387803b158015610b5357600080fd5b505af1158015610b67573d6000803e3d6000fd5b5050505060098101805461ff001916610300179055600060078201819055805482546040805163e23ffba960e01b8152306004820152600360248201526044810192909252516001600160a01b039092169263e23ffba99260648084019382900301818387803b158015610bda57600080fd5b505af1158015610bee573d6000803e3d6000fd5b50505050610bfa610caf565b6040805160208082526018908201527f417373657420507572636861736520636f6d706c6574652100000000000000008183015290516000805160206122f28339815191529181900360600190a150565b6001600160a01b0381166000908152600e60205260409020545b919050565b600f8181548110610c7757fe5b6000918252602090912001546001600160a01b0316905081565b6004546001600160a01b031681565b6008546001600160a01b031681565b610cb7611eed565b600b546000908152600c602052604090206103e8420260036009830154610100900460ff16600b811115610ce757fe5b14610d39576040805162461bcd60e51b815260206004820152601c60248201527f417373657420686173206e6f74206265656e2070757263686173656400000000604482015290519081900360640190fd5b60046009830154610100900460ff16600b811115610d5357fe5b1415610ebb57426301e13380016103e8810260068190556003848101549054600854600b54604080516337b2970d60e11b81526001600160a01b039384166004820152602481019290925260448201859052606482019590955293519293911691636f652e1a9160848082019260009290919082900301818387803b158015610ddb57600080fd5b505af1158015610def573d6000803e3d6000fd5b50506000805487546040805163e23ffba960e01b8152306004820152600a60248201526044810192909252516001600160a01b03909216945063e23ffba99350606480820193929182900301818387803b158015610e4c57600080fd5b505af1158015610e60573d6000803e3d6000fd5b505050600985018054600a925061ff0019166101008302179055506000805160206122f28339815191526040518080602001828103825260248152602001806123556024913960400191505060405180910390a150506107e9565b600154600a54600b546040805163095ea7b360e01b81526001600160a01b039384166004820152602481019290925251919092169163095ea7b391604480830192600092919082900301818387803b158015610f1657600080fd5b505af1158015610f2a573d6000803e3d6000fd5b50505050600482810154426301e13380016103e881026006819055600354600854600b54604080516337b2970d60e11b81526001600160a01b03938416988101989098526024880191909152604487018690526064870193909352915193949293911691636f652e1a91608480830192600092919082900301818387803b158015610fb457600080fd5b505af1158015610fc8573d6000803e3d6000fd5b50506000805487546040805163e23ffba960e01b81523060048281019190915260248201526044810192909252516001600160a01b03909216945063e23ffba99350606480820193929182900301818387803b15801561102757600080fd5b505af115801561103b573d6000803e3d6000fd5b5050505060098401805461ff001916610400179055604080516020808252601e908201527f417373657420686173206265656e20706c61636564206f6e2073616c652100008183015290516000805160206122f28339815191529181900360600190a150505050565b600254604080516370a0823160e01b815230600482015290516000926001600160a01b0316916370a08231916024808301926020929190829003018186803b1580156110ef57600080fd5b505afa158015611103573d6000803e3d6000fd5b505050506040513d602081101561111957600080fd5b5051905090565b6004546001600160a01b03163314611177576040805162461bcd60e51b815260206004820152601560248201527427b7363c902bb4b73732b91031b0b71031b0b6361760591b604482015290519081900360640190fd5b60015460048054600b54604080516323b872dd60e01b815230948101949094526001600160a01b0392831660248501526044840191909152519216916323b872dd9160648082019260009290919082900301818387803b1580156111da57600080fd5b505af11580156111ee573d6000803e3d6000fd5b50506040805160208082526017908201527f596f7520726563696576656420746865204173736574210000000000000000008183015290516000805160206122f28339815191529350908190036060019150a1565b6060600d80548060200260200160405190810160405280929190818152602001828054801561129b57602002820191906000526020600020905b81546001600160a01b0316815260019091019060200180831161127d575b5050505050905090565b6007546001600160a01b031681565b60065481565b6009546001600160a01b031681565b600d5460408051426020808301919091524482840152825180830384018152606090920190925280519101206000199091019060009082908161130857fe5b0690506107e981612058565b6000908152600c602052604090206007015490565b6000611333611fe9565b600b546000908152600c602052604090206008810154831115611394576040805162461bcd60e51b815260206004820152601460248201527323b932b0ba32b9103a3430b7103732b2b232b21760611b604482015290519081900360640190fd5b600254604080516323b872dd60e01b81523360048201523060248201526044810186905290516001600160a01b03909216916323b872dd916064808201926020929091908290030181600087803b1580156113ee57600080fd5b505af1158015611402573d6000803e3d6000fd5b505050506040513d602081101561141857600080fd5b505161146b576040805162461bcd60e51b815260206004820152601960248201527f5472616e73666572206f6620746f6b656e73206661696c656400000000000000604482015290519081900360640190fd5b336000908152600e602052604081208054850190556007820180548501908190556003830154036008830155805b600f548110156114e257336001600160a01b0316600f82815481106114ba57fe5b6000918252602090912001546001600160a01b031614156114da57600191505b600101611499565b508061152b57600f80546001810182556000919091527f8d1108e10bcb7c27dddfc02ed9d693a074039d026cf4ea4240b40f7d581ac8020180546001600160a01b031916331790555b600254604080516370a0823160e01b815230600482015290516001600160a01b03909216916370a0823191602480820192602092909190829003018186803b15801561157657600080fd5b505afa15801561158a573d6000803e3d6000fd5b505050506040513d60208110156115a057600080fd5b50516007830154146115e35760405162461bcd60e51b81526004018080602001828103825260228152602001806123336022913960400191505060405180910390fd5b336000908152600a830160205260409020805460ff191660011790556007820154600383015414156117165760098201805460ff1916600190811761ff001916610100179091556000805484546040805163e23ffba960e01b815230600482015260248101959095526044850191909152516001600160a01b039091169263e23ffba992606480830193919282900301818387803b15801561168457600080fd5b505af1158015611698573d6000803e3d6000fd5b505050506116a46109f1565b600782015460408051602081018790528082019290925260608083526011908301527046756e64696e6720436f6d706c6574652160781b6080830152517f2d53c88922b643ddb30e233f98741b60b54bec53fcd7efbe90f46d39e59c03da9181900360a00190a1600192505050610c65565b6007820154604080516020810187905280820192909252606080835260169083015275436f6e747269627574696f6e2061636365707465642160501b6080830152517f2d53c88922b643ddb30e233f98741b60b54bec53fcd7efbe90f46d39e59c03da9181900360a00190a1600192505050610c65565b611795611eed565b600b546000908152600c602052604080822082548154835163e23ffba960e01b8152306004820152600560248201526044810191909152925191936001600160a01b039091169263e23ffba9926064808301939282900301818387803b1580156117fe57600080fd5b505af1158015611812573d6000803e3d6000fd5b5050505060098101805461ff00191661060017905560005b600f5461ffff82161015611cfa576000600f8261ffff168154811061184b57fe5b60009182526020808320909101546001600160a01b03908116808452600e835260408085205460025482516370a0823160e01b815230600482015292519397509095949316926370a0823192602480840193829003018186803b1580156118b157600080fd5b505afa1580156118c5573d6000803e3d6000fd5b505050506040513d60208110156118db57600080fd5b5051601154909150156119d357611910620f42406119046011548461210890919063ffffffff16565b9063ffffffff61216a16565b60108190556002546007546040805163a9059cbb60e01b81526001600160a01b03928316600482015260248101949094525191169163a9059cbb9160448083019260209291908290030181600087803b15801561196c57600080fd5b505af1158015611980573d6000803e3d6000fd5b505050506040513d602081101561199657600080fd5b50516119d35760405162461bcd60e51b81526004018080602001828103825260338152602001806122bf6033913960400191505060405180910390fd5b600060105482039050600073__Div___________________________________63aa9a09128560648a600301546040518463ffffffff1660e01b815260040180848152602001838152602001828152602001935050505060206040518083038186803b158015611a4257600080fd5b505af4158015611a56573d6000803e3d6000fd5b505050506040513d6020811015611a6c57600080fd5b50516040805163554d048960e11b81526004810183905260248101859052606460448201819052915192935060009273__Div___________________________________9263aa9a091292808201926020929091829003018186803b158015611ad457600080fd5b505af4158015611ae8573d6000803e3d6000fd5b505050506040513d6020811015611afe57600080fd5b50516002546040805163a9059cbb60e01b81526001600160a01b038a8116600483015260248201859052915193945091169163a9059cbb916044808201926020929091908290030181600087803b158015611b5857600080fd5b505af1158015611b6c573d6000803e3d6000fd5b505050506040513d6020811015611b8257600080fd5b5051611bbf5760405162461bcd60e51b81526004018080602001828103825260318152602001806123796031913960400191505060405180910390fd5b6001600160a01b038087166000908152600a8a016020908152604091829020805460ff1916905560025482516370a0823160e01b815230600482015292519316926370a08231926024808201939291829003018186803b158015611c2257600080fd5b505afa158015611c36573d6000803e3d6000fd5b505050506040513d6020811015611c4c57600080fd5b50516007808a01919091556001600160a01b038088166000908152600e602052604080822082905581548c54825163e23ffba960e01b815230600482015260248101969096526044860152905192169263e23ffba9926064808301939282900301818387803b158015611cbe57600080fd5b505af1158015611cd2573d6000803e3d6000fd5b5050505060098801805461ff001916610700179055505050600193909301925061182a915050565b50604080516020808252601390820152725061796f757420697320636f6d706c6574652160681b8183015290516000805160206122f28339815191529181900360600190a150565b60055481565b600a546001600160a01b031681565b6000611d616121ac565b600b546000908152600c60205260409020600381015485141580611d89575083816002015414155b80611d95575080548314155b15611e71578281556002810184905560038101859055600781015485036008820155600080546040805163e23ffba960e01b8152306004820152602481018490526044810187905290516001600160a01b039092169263e23ffba99260648084019382900301818387803b158015611e0c57600080fd5b505af1158015611e20573d6000803e3d6000fd5b50506040805160208082526011908201527021b7b73a3930b1ba103ab83230ba32b21760791b8183015290516000805160206122f28339815191529350908190036060019150a16001915050611ec5565b6040805160208082526018908201527f4572726f7221204e6f20757064617465206e65656465642e00000000000000008183015290516000805160206122f28339815191529181900360600190a160009150505b9392505050565b6000546001600160a01b031681565b600e6020526000908152604090205481565b600b546000908152600c60209081526040808320338452600a81019092529091205460ff161515600114611f68576040805162461bcd60e51b815260206004820152601a60248201527f4d75737420686176652066756e6473206465706f73697465642e000000000000604482015290519081900360640190fd5b50565b600b546000908152600c6020526040902060026009820154610100900460ff16600b811115611f9657fe5b1415611f68576040805162461bcd60e51b815260206004820152601a60248201527f5769746864726177616c2069732070726f6363657373696e672e000000000000604482015290519081900360640190fd5b600b546000908152600c6020526040902060028101546103e842029081106107e9576040805162461bcd60e51b815260206004820152601760248201527f41737365742073616c652068617320657870697265642e000000000000000000604482015290519081900360640190fd5b600b546000908152600c60205260409020600d80548390811061207757fe5b6000918252602082200154600480546001600160a01b0319166001600160a01b03928316178155825484546040805163e23ffba960e01b81523094810194909452600a602485015260448401919091525192169263e23ffba99260648084019382900301818387803b1580156120ec57600080fd5b505af1158015612100573d6000803e3d6000fd5b505050505050565b60008261211757506000612164565b8282028284828161212457fe5b04146121615760405162461bcd60e51b81526004018080602001828103825260218152602001806123126021913960400191505060405180910390fd5b90505b92915050565b600061216183836040518060400160405280601a81526020017f536166654d6174683a206469766973696f6e206279207a65726f00000000000081525061221c565b600b546000908152600c60205260408120906009820154610100900460ff16600b8111156121d657fe5b14611f68576040805162461bcd60e51b815260206004820152601160248201527020b9b9b2ba1034b990333ab73234b7339760791b604482015290519081900360640190fd5b600081836122a85760405162461bcd60e51b81526004018080602001828103825283818151815260200191508051906020019080838360005b8381101561226d578181015183820152602001612255565b50505050905090810190601f16801561229a5780820380516001836020036101000a031916815260200191505b509250505060405180910390fd5b5060008385816122b457fe5b049594505050505056fe5472616e73666572696e67207468652063757420746f20746865204d61726b6574706c616365206f776e6572206661696c65641d9289eb2c448ca3e80bc6a07bf5114e08b40711b86956dcf61ae1f9220f5f8d536166654d6174683a206d756c7469706c69636174696f6e206f766572666c6f7742616c616e6365206e6f7420657175616c20746f2045524332302062616c616e6365417373657420686173206265656e20706c61636564206f6e2073616c6520616761696e215472616e73666572696e67207468652073616c6520616d6f756e7420746f207468652073656c6c657273206661696c6564a265627a7a72315820de6e9a5a7ee24b39801b2c751c91830769fde73ff93a9c45d02ca7ef1fc693d264736f6c63430005110032",
  "source": "pragma solidity ^0.5.17;\r\n\r\nimport \"../../node_modules/@openzeppelin/contracts/token/ERC721/ERC721Holder.sol\";\r\nimport \"../../node_modules/@openzeppelin/contracts/math/SafeMath.sol\";\r\nimport \"../../Div.sol\";\r\n//import \"../helpers/provableAPI.sol\";\r\n\r\n\r\ninterface MarketPlaceInterface {\r\n    function executeOrder(address nftAddress, uint assetId, uint price) external;\r\n    function createOrder(address nftAddress, uint256 assetId, uint256 priceInWei, uint256 expiresAt) external;\r\n}\r\n\r\ninterface IERC721 {\r\n    function approve(address to, uint256 tokenId) external;\r\n    function transferFrom(address from, address to, uint256 tokenId) external;\r\n}\r\n\r\ninterface IERC20 {\r\n    function approve(address spender, uint256 value) external returns (bool);\r\n    function transfer(address to, uint256 value) external returns (bool);\r\n    function transferFrom(address from, address to, uint256 value) external returns (bool);\r\n    function balanceOf(address who) external view returns (uint256);\r\n}\r\n\r\ninterface Controller {\r\n    function updatePropData(address _propAddress,uint128 _propStatus, bytes32 _orderId) external;\r\n}\r\n\r\n//contract ProposalStorage is ERC721Holder, usingProvable {\r\ncontract ProposalStorage is ERC721Holder {\r\n   using SafeMath for uint256;\r\n   Controller public controller;\r\n    \r\n  enum ProposalStatus { FUNDING, FUNDED, WITHDRAWING, PURCHASED, FOR_SALE, SOLD, PAYINGOUT, PAIDOUT, EXPIRED, SALE_FAILED, SECOND_SALE, AWARDED }\r\n  ProposalStatus constant defaultChoice = ProposalStatus.FUNDING;  \r\n  uint256 constant NUM_RANDOM_BYTES_REQUESTED = 7;\r\n  \r\n  IERC721 nftContract;\r\n  IERC20 acceptedToken;\r\n  MarketPlaceInterface market;\r\n\r\n  address public winningContributor;  \r\n  uint256 public randomNumber;\r\n  uint256 public reSaleExpiresAt;\r\n  \r\n  address public owner;\r\n  address public nftAddress;\r\n  address public tokenAddress;\r\n  address public marketAddr;\r\n  uint256 public tokenId;\r\n\r\n\r\n  event ContributionSuccess(string _message, uint256 _contribution, uint256 currentContractBalance);  \r\n  event ProposalEvent(string _message);\r\n  event LogNewProvableQuery(string description);\r\n  event RandomFailure(string _message);\r\n\r\n  mapping (uint256 => Proposal) public proposals;\r\n\r\n  struct Proposal {\r\n      bytes32 orderId;\r\n      uint128 userId;\r\n      uint256 expiresAt;\r\n      uint256 listPrice;\r\n      uint256 reSalePrice;\r\n      uint256 tokenId;\r\n      uint256 postedAt;\r\n      uint256 balance;\r\n      uint256 remainder;\r\n      bool fundingComplete;\r\n      ProposalStatus status;\r\n      mapping(address => bool) contributors;\r\n  } \r\n\r\n  address[] weightedDepositers;\r\n  \r\n  mapping(address => uint256) public deposits;\r\n\r\n  address[] public depositersArray;\r\n\r\n  constructor(bytes32 _orderId, uint128 _userId, uint256 _expiresAt, uint256 _listPrice, uint256 _reSalePrice, uint256 _tokenId, address  _marketAddr, address _tokenAddress, address _nftaddress) public {\r\n    //provable_setProof(proofType_Ledger);\r\n\r\n   controller = Controller(msg.sender); \r\n   proposals[_tokenId] = Proposal({\r\n      orderId: _orderId,\r\n      userId: _userId,\r\n      postedAt: now,\r\n      expiresAt: _expiresAt,\r\n      listPrice: _listPrice,\r\n      reSalePrice: _reSalePrice,\r\n      tokenId: _tokenId,\r\n      balance: 0,\r\n      remainder: _listPrice,\r\n      fundingComplete: false,\r\n      status: ProposalStatus.FUNDING\r\n    }); \r\n      owner = msg.sender;\r\n      tokenId = _tokenId;   \r\n      nftAddress = _nftaddress;\r\n      marketAddr = _marketAddr;\r\n      tokenAddress = _tokenAddress; \r\n      nftContract = IERC721(_nftaddress);\r\n      acceptedToken =  IERC20(_tokenAddress);\r\n      market = MarketPlaceInterface(_marketAddr);\r\n  }\r\n\r\n\r\nmodifier onlyBuyer()  {\r\n  _onlyDepositer();\r\n  _;\r\n}\r\n\r\nfunction _onlyDepositer() internal view {\r\n  Proposal storage proposal = proposals[tokenId];\r\n  require(\r\n     proposal.contributors[msg.sender] == true, \"Must have funds deposited.\");\r\n}\r\n\r\nmodifier notWithdrawing()  {\r\n _notWithDrawing();\r\n  _;\r\n}\r\n\r\nfunction _notWithDrawing() internal view {\r\n  Proposal storage proposal = proposals[tokenId];\r\n  require(proposal.status != ProposalStatus.WITHDRAWING, \"Withdrawal is proccessing.\");\r\n}\r\n\r\nmodifier funding()  {\r\n _propFunding();\r\n  _;\r\n}\r\n\r\nfunction _propFunding() internal view {\r\n  Proposal storage proposal = proposals[tokenId];\r\n  require(proposal.status == ProposalStatus.FUNDING, \"Asset is funding.\");\r\n}\r\n\r\nmodifier notExpired()  {\r\n  _propNotExpired();\r\n  _;\r\n}\r\n\r\n\r\nuint256 saleShareAmount = 0;\r\nuint256 ownerCutPerMillion = 100000;\r\n\r\nfunction _propNotExpired() internal view {\r\n  Proposal storage proposal = proposals[tokenId];\r\n  uint256 timeMilli = block.timestamp * 1000;\r\n  require (proposal.expiresAt > timeMilli,\r\n  \"Asset sale has expired.\");\r\n}\r\n\r\nfunction deposit(uint _contribution) public notExpired returns(bool) {\r\n    Proposal storage proposal = proposals[tokenId];\r\n    require(_contribution <= proposal.remainder,\r\n    \"Greater than needed.\");\r\n    require(acceptedToken.transferFrom(msg.sender,address(this), _contribution),\r\n    \"Transfer of tokens failed\");\r\n    deposits[msg.sender] += _contribution;\r\n    proposal.balance += _contribution;\r\n    proposal.remainder = proposal.listPrice - proposal.balance;\r\n    bool alreadyAdded = false;\r\n    for(uint i = 0; i < depositersArray.length; i++) {\r\n      if(depositersArray[i] == msg.sender) {\r\n        alreadyAdded = true;\r\n      }\r\n    }\r\n    if(alreadyAdded == false) {\r\n      depositersArray.push(msg.sender);\r\n    }\r\n    require(proposal.balance == acceptedToken.balanceOf(address(this)),\r\n    \"Balance not equal to ERC20 balance\");\r\n    proposal.contributors[msg.sender] = true;\r\n    if(proposal.listPrice == proposal.balance){\r\n       proposal.fundingComplete = true;\r\n       proposal.status = ProposalStatus.FUNDED;\r\n       controller.updatePropData(address(this), 1, proposal.orderId);\r\n       completePurchase();\r\n       emit ContributionSuccess(\"Funding Complete!\", _contribution,  proposal.balance);\r\n       return true;\r\n    }\r\n    else {\r\n      emit ContributionSuccess(\"Contribution accepted!\", _contribution,  proposal.balance);\r\n      return true;\r\n    }\r\n}\r\n    \r\nfunction completePurchase() public onlyBuyer notWithdrawing notExpired {\r\n  Proposal storage proposal = proposals[tokenId];\r\n  require(acceptedToken.approve(marketAddr, proposal.listPrice),\r\n  \"Token approval failed\");\r\n  market.executeOrder(nftAddress, tokenId, proposal.listPrice);\r\n  proposal.status = ProposalStatus.PURCHASED;\r\n  proposal.balance = 0;\r\n  controller.updatePropData(address(this), 3, proposal.orderId);\r\n  sellAsset();\r\n  emit ProposalEvent(\"Asset Purchase complete!\");\r\n}\r\n\r\nfunction sellAsset() public onlyBuyer {\r\n  Proposal storage proposal = proposals[tokenId];\r\n  uint256 timeMilli = block.timestamp * 1000;\r\n  require(proposal.status == ProposalStatus.PURCHASED,\r\n  \"Asset has not been purchased\");\r\n  //Second Sale Attempt\r\n  if(proposal.status == ProposalStatus.FOR_SALE){\r\n    uint256 expireYear = now + (365 * 1 days); \r\n    reSaleExpiresAt = expireYear * 1000;\r\n    uint256 newPrice = proposal.listPrice;\r\n    market.createOrder(nftAddress, tokenId, newPrice, reSaleExpiresAt);\r\n    controller.updatePropData(address(this), 10, proposal.orderId);\r\n    proposal.status = ProposalStatus.SECOND_SALE;\r\n    emit ProposalEvent(\"Asset has been placed on sale again!\");\r\n  }\r\n  else{\r\n    nftContract.approve(marketAddr,tokenId);\r\n    uint256 newPrice = proposal.reSalePrice;\r\n    uint256 expireYear = now + (365 * 1 days); \r\n    reSaleExpiresAt = expireYear * 1000;\r\n    market.createOrder(nftAddress, tokenId, newPrice, reSaleExpiresAt);\r\n    controller.updatePropData(address(this), 4, proposal.orderId);\r\n    proposal.status = ProposalStatus.FOR_SALE;\r\n    emit ProposalEvent(\"Asset has been placed on sale!\");\r\n  }\r\n }\r\n \r\nfunction payOut() external onlyBuyer {\r\n  Proposal storage proposal = proposals[tokenId];\r\n  controller.updatePropData(address(this), 5, proposal.orderId);\r\n  proposal.status = ProposalStatus.PAYINGOUT;\r\n  for(uint16 i = 0; i < depositersArray.length; i++) {\r\n    address _depositer = depositersArray[i];\r\n    uint256 depositedAmount = deposits[_depositer];\r\n    uint256 totalAmount = acceptedToken.balanceOf(address(this));\r\n    if (ownerCutPerMillion > 0) {\r\n      // Calculate sale share\r\n      saleShareAmount = totalAmount.mul(ownerCutPerMillion).div(1000000);\r\n      // Transfer share amount for marketplace Owner\r\n      require(\r\n        acceptedToken.transfer(owner, saleShareAmount),\r\n        \"Transfering the cut to the Marketplace owner failed\"\r\n      );\r\n    }\r\n    uint256 payOutTotal = totalAmount - saleShareAmount;\r\n    uint256 percentage = Div.mulDiv(depositedAmount,100, proposal.listPrice);\r\n    uint256 userSaleShare = Div.mulDiv(percentage,payOutTotal,100);\r\n    require (\r\n      acceptedToken.transfer(_depositer, userSaleShare),\r\n      \"Transfering the sale amount to the sellers failed\"\r\n    );\r\n    proposal.contributors[_depositer] = false;\r\n    proposal.balance = acceptedToken.balanceOf(address(this));\r\n    deposits[_depositer] = 0;\r\n    controller.updatePropData(address(this), 7, proposal.orderId);\r\n    proposal.status = ProposalStatus.PAIDOUT;\r\n  }\r\n   emit ProposalEvent(\"Payout is complete!\");\r\n}\r\n\r\nfunction withdraw() external onlyBuyer notWithdrawing returns(bool){\r\n  Proposal storage proposal = proposals[tokenId];\r\n  uint256 timeMilli = block.timestamp * 1000;\r\n  require(proposal.status == ProposalStatus.FUNDING || timeMilli > proposal.expiresAt, \"Withdrawal failed.\");\r\n  proposal.status = ProposalStatus.WITHDRAWING;\r\n  uint256 depositedAmount = deposits[msg.sender];\r\n  deposits[msg.sender] = 0;\r\n  proposal.contributors[msg.sender] = false;\r\n  proposal.balance -= depositedAmount;\r\n  proposal.remainder = proposal.listPrice - proposal.balance;\r\n  acceptedToken.transfer(msg.sender, depositedAmount);\r\n  emit ProposalEvent(\"Withdrawal complete!\");\r\n  if(timeMilli > proposal.expiresAt) {\r\n    proposal.status = ProposalStatus.EXPIRED;\r\n  }\r\n  else{\r\n    proposal.status = ProposalStatus.FUNDING;\r\n  }\r\n  return true;\r\n}   \r\n\r\nfunction updateContract(uint256 _newPrice, uint256 _expiresAt, bytes32 _orderId) external funding returns(bool){\r\n    Proposal storage proposal = proposals[tokenId];\r\n    if(proposal.listPrice != _newPrice || proposal.expiresAt != _expiresAt || proposal.orderId != _orderId){\r\n      proposal.orderId = _orderId;\r\n      proposal.expiresAt = _expiresAt;\r\n      proposal.listPrice = _newPrice;\r\n      proposal.remainder = proposal.listPrice - proposal.balance;\r\n      controller.updatePropData(address(this), 0, _orderId);\r\n      emit ProposalEvent(\"Contract updated.\");\r\n      return true;\r\n    }\r\n    else{\r\n       emit ProposalEvent(\"Error! No update needed.\");\r\n        return false;\r\n    }\r\n}\r\n\r\nfunction weightContributors() onlyBuyer public {\r\n      Proposal storage proposal = proposals[tokenId];\r\n      uint256 timeMilli = block.timestamp * 1000;\r\n      require(timeMilli > reSaleExpiresAt && proposal.status == ProposalStatus.SECOND_SALE,\r\n      \"Asset resale not expired.\");\r\n      controller.updatePropData(address(this), 8, proposal.orderId);\r\n      for(uint16 i = 0; i < depositersArray.length; i++) {\r\n        address _depositer = depositersArray[i];\r\n        uint256 depositedAmount = deposits[_depositer];\r\n        uint256 reducedAmount = Div.mulDiv(depositedAmount, 1, 100000000000000000000);\r\n        for(uint256 j = 0; j < reducedAmount; j++) {\r\n          weightedDepositers.push(_depositer);\r\n      }\r\n    }\r\n    //generateRandom();\r\n    _randomModulo();\r\n}\r\n\r\n function _randomModulo() public {\r\n       uint256 modulo = weightedDepositers.length - 1;\r\n       uint256 _randomNumber = uint256(keccak256(abi.encodePacked(block.timestamp, block.difficulty))) % modulo;\r\n       _selectWinner(_randomNumber);\r\n    }\r\n\r\nfunction weigDepositers() public view returns (address[] memory) {\r\n  return weightedDepositers;\r\n}\r\n\r\nfunction _selectWinner(uint _randomNumber) internal {\r\n    Proposal storage proposal = proposals[tokenId];\r\n    winningContributor = weightedDepositers[_randomNumber];\r\n    controller.updatePropData(address(this), 10, proposal.orderId);\r\n}\r\n\r\n// function generateRandom() payable public  {\r\n//     uint8 QUERY_EXECUTION_DELAY = 0; \r\n//     uint32 GAS_FOR_CALLBACK = 200000;\r\n//     provable_newRandomDSQuery(\r\n//         QUERY_EXECUTION_DELAY,\r\n//         NUM_RANDOM_BYTES_REQUESTED,\r\n//         GAS_FOR_CALLBACK\r\n//     );\r\n//     emit LogNewProvableQuery(\"Query sent, standing by...\");\r\n// }\r\n\r\n// function __callback(bytes32 _queryId, string memory _result, bytes memory _proof) public {\r\n//     require(msg.sender == provable_cbAddress());\r\n//     if (provable_randomDS_proofVerify__returnCode(_queryId, _result, _proof) != 0) {    \r\n//         emit RandomFailure(\"Random generation failed\");\r\n//     } else {\r\n//         uint256 maxNumber = weightedDepositers.length - 1;\r\n//         randomNumber = uint256(keccak256(abi.encodePacked(_result))) % maxNumber;\r\n//         _selectWinner(randomNumber);\r\n//     }\r\n// }\r\n\r\nfunction claimAsset() external {\r\n  require(msg.sender == winningContributor, \"Only Winner can call.\");    \r\n  nftContract.transferFrom(address(this), winningContributor, tokenId);\r\n  emit ProposalEvent(\"You recieved the Asset!\");\r\n}\r\n\r\nfunction depositedAmount(address _depositer) public view returns(uint256) {\r\n  uint256 depositAmount = deposits[_depositer];\r\n  return depositAmount;\r\n}\r\n\r\nfunction countDepositers() view public returns (uint) {\r\n      return depositersArray.length;\r\n  }\r\n    \r\nfunction balanceOf() view public returns(uint) {\r\n  return acceptedToken.balanceOf(address(this));\r\n}\r\n\r\nfunction getSummary(uint _tokenId) public view returns(uint) {\r\n  uint contractBalance = proposals[_tokenId].balance;\r\n  return contractBalance;\r\n}\r\n\r\n}\r\n\r\n",
  "sourcePath": "C:\\Users\\Dev_Account\\dnp\\contracts\\proposals\\ProposalStorage.sol",
  "compiler": {
    "name": "solc",
    "version": "0.5.17+commit.d19bba13.Emscripten.clang"
  },
  "schemaVersion": "3.4.7",
  "updatedAt": "2022-05-22T00:01:06.400Z",
  "devdoc": {
    "methods": {}
  },
  "userdoc": {
    "methods": {}
  }
}