{
  "contractName": "UserStorage",
  "abi": [
    {
      "anonymous": false,
      "inputs": [
        {
          "indexed": true,
          "internalType": "address",
          "name": "previousOwner",
          "type": "address"
        },
        {
          "indexed": true,
          "internalType": "address",
          "name": "newOwner",
          "type": "address"
        }
      ],
      "name": "OwnershipTransferred",
      "type": "event"
    },
    {
      "anonymous": false,
      "inputs": [
        {
          "indexed": false,
          "internalType": "string",
          "name": "_message",
          "type": "string"
        }
      ],
      "name": "UserCreated",
      "type": "event"
    },
    {
      "constant": true,
      "inputs": [
        {
          "internalType": "address",
          "name": "",
          "type": "address"
        }
      ],
      "name": "addresses",
      "outputs": [
        {
          "internalType": "bool",
          "name": "",
          "type": "bool"
        }
      ],
      "payable": false,
      "stateMutability": "view",
      "type": "function"
    },
    {
      "constant": true,
      "inputs": [],
      "name": "controllerAddr",
      "outputs": [
        {
          "internalType": "address",
          "name": "",
          "type": "address"
        }
      ],
      "payable": false,
      "stateMutability": "view",
      "type": "function"
    },
    {
      "constant": true,
      "inputs": [],
      "name": "isOwner",
      "outputs": [
        {
          "internalType": "bool",
          "name": "",
          "type": "bool"
        }
      ],
      "payable": false,
      "stateMutability": "view",
      "type": "function"
    },
    {
      "constant": true,
      "inputs": [],
      "name": "owner",
      "outputs": [
        {
          "internalType": "address",
          "name": "",
          "type": "address"
        }
      ],
      "payable": false,
      "stateMutability": "view",
      "type": "function"
    },
    {
      "constant": true,
      "inputs": [
        {
          "internalType": "address",
          "name": "",
          "type": "address"
        }
      ],
      "name": "profiles",
      "outputs": [
        {
          "internalType": "uint256",
          "name": "userId",
          "type": "uint256"
        },
        {
          "internalType": "bytes32",
          "name": "username",
          "type": "bytes32"
        }
      ],
      "payable": false,
      "stateMutability": "view",
      "type": "function"
    },
    {
      "constant": false,
      "inputs": [],
      "name": "renounceOwnership",
      "outputs": [],
      "payable": false,
      "stateMutability": "nonpayable",
      "type": "function"
    },
    {
      "constant": false,
      "inputs": [
        {
          "internalType": "address",
          "name": "_controllerAddr",
          "type": "address"
        }
      ],
      "name": "setControllerAddr",
      "outputs": [],
      "payable": false,
      "stateMutability": "nonpayable",
      "type": "function"
    },
    {
      "constant": false,
      "inputs": [
        {
          "internalType": "address",
          "name": "newOwner",
          "type": "address"
        }
      ],
      "name": "transferOwnership",
      "outputs": [],
      "payable": false,
      "stateMutability": "nonpayable",
      "type": "function"
    },
    {
      "constant": true,
      "inputs": [
        {
          "internalType": "bytes32",
          "name": "",
          "type": "bytes32"
        }
      ],
      "name": "usernameBool",
      "outputs": [
        {
          "internalType": "bool",
          "name": "",
          "type": "bool"
        }
      ],
      "payable": false,
      "stateMutability": "view",
      "type": "function"
    },
    {
      "constant": true,
      "inputs": [
        {
          "internalType": "bytes32",
          "name": "",
          "type": "bytes32"
        }
      ],
      "name": "usernames",
      "outputs": [
        {
          "internalType": "uint256",
          "name": "",
          "type": "uint256"
        }
      ],
      "payable": false,
      "stateMutability": "view",
      "type": "function"
    },
    {
      "constant": false,
      "inputs": [
        {
          "internalType": "address",
          "name": "_address",
          "type": "address"
        },
        {
          "internalType": "bytes32",
          "name": "_username",
          "type": "bytes32"
        }
      ],
      "name": "createUser",
      "outputs": [
        {
          "internalType": "uint256",
          "name": "",
          "type": "uint256"
        }
      ],
      "payable": false,
      "stateMutability": "nonpayable",
      "type": "function"
    }
  ],
  "bytecode": "0x60806040526000600681905561001c6001600160e01b0361006b16565b600080546001600160a01b0319166001600160a01b0383169081178255604051929350917f8be0079c531659141344cd1fd0a4f28419497f9722a3daafe3b4186f6b6457e0908290a35061006f565b3390565b6106828061007e6000396000f3fe608060405234801561001057600080fd5b50600436106100a95760003560e01c80638da5cb5b116100715780638da5cb5b146101735780638f32d59b14610197578063bbe156271461019f578063ec4d88d7146101de578063ee255c57146101fb578063f2fde38b14610203576100a9565b80630e6dbb2c146100ae578063141fb940146100df5780636981fa7d1461011d578063715018a61461014557806382d389541461014d575b600080fd5b6100cb600480360360208110156100c457600080fd5b5035610229565b604080519115158252519081900360200190f35b61010b600480360360408110156100f557600080fd5b506001600160a01b03813516906020013561023e565b60408051918252519081900360200190f35b6101436004803603602081101561013357600080fd5b50356001600160a01b031661035d565b005b6101436103d8565b6100cb6004803603602081101561016357600080fd5b50356001600160a01b031661047b565b61017b610490565b604080516001600160a01b039092168252519081900360200190f35b6100cb61049f565b6101c5600480360360208110156101b557600080fd5b50356001600160a01b03166104c3565b6040805192835260208301919091528051918290030190f35b61010b600480360360208110156101f457600080fd5b50356104dc565b61017b6104ee565b6101436004803603602081101561021957600080fd5b50356001600160a01b03166104fd565b60056020526000908152604090205460ff1681565b6001546000906001600160a01b0316331461028a5760405162461bcd60e51b815260040180806020018281038252602181526020018061062d6021913960400191505060405180910390fd5b60068054600190810180835560408051808201825291825260208083018781526001600160a01b0389166000908152600283528381209451855590519385019390935560038152818320805460ff199081168617909155878452600582528284208054909116909417909355925460048352908390205581518181526010918101919091526f1058d8d95cdcc810dbdb999a5c9b595960821b8183015290517f56b0a2dda7952cd07f438433182565929ba3aba4c3404a7d29a0840ac6284da49181900360600190a15060065492915050565b61036561049f565b6103b6576040805162461bcd60e51b815260206004820181905260248201527f4f776e61626c653a2063616c6c6572206973206e6f7420746865206f776e6572604482015290519081900360640190fd5b600180546001600160a01b0319166001600160a01b0392909216919091179055565b6103e061049f565b610431576040805162461bcd60e51b815260206004820181905260248201527f4f776e61626c653a2063616c6c6572206973206e6f7420746865206f776e6572604482015290519081900360640190fd5b600080546040516001600160a01b03909116907f8be0079c531659141344cd1fd0a4f28419497f9722a3daafe3b4186f6b6457e0908390a3600080546001600160a01b0319169055565b60036020526000908152604090205460ff1681565b6000546001600160a01b031690565b600080546001600160a01b03166104b4610562565b6001600160a01b031614905090565b6002602052600090815260409020805460019091015482565b60046020526000908152604090205481565b6001546001600160a01b031681565b61050561049f565b610556576040805162461bcd60e51b815260206004820181905260248201527f4f776e61626c653a2063616c6c6572206973206e6f7420746865206f776e6572604482015290519081900360640190fd5b61055f81610566565b50565b3390565b6001600160a01b0381166105ab5760405162461bcd60e51b81526004018080602001828103825260268152602001806106076026913960400191505060405180910390fd5b600080546040516001600160a01b03808516939216917f8be0079c531659141344cd1fd0a4f28419497f9722a3daafe3b4186f6b6457e091a3600080546001600160a01b0319166001600160a01b039290921691909117905556fe4f776e61626c653a206e6577206f776e657220697320746865207a65726f20616464726573734f6e6c7920436f6e74726f6c6c65722043616e2043726561746520412055736572a265627a7a723158200922b0103fb55948080862ab2abd80f115bd5b21d840f932fe2a0fe24564677364736f6c63430005110032",
  "source": "pragma solidity ^0.5.17;\r\n\r\nimport '../helpers/BaseStorage.sol';\r\n\r\ncontract UserStorage is BaseStorage {\r\n\r\n    event UserCreated(string _message);\r\n\r\n    struct Profile {\r\n        uint userId;\r\n        bytes32 username;\r\n      }\r\n\r\n    mapping(address => Profile) public profiles;\r\n    mapping(address => bool) public addresses;\r\n    mapping (bytes32 => uint) public usernames;\r\n    mapping(bytes32 => bool) public usernameBool;\r\n\r\n    uint latestUserId = 0;\r\n\r\n    function createUser(\r\n        address _address,\r\n        bytes32 _username\r\n        ) public onlyControllerAddr returns(uint) {\r\n\r\n        latestUserId++;\r\n\r\n        profiles[_address] = Profile(\r\n        latestUserId,\r\n        _username\r\n        );\r\n\r\n        addresses[_address] = true;\r\n        usernameBool[_username] = true;\r\n        usernames[_username] = latestUserId;\r\n\r\n        emit UserCreated(\"Access Confirmed\");\r\n        return latestUserId;\r\n    }\r\n\r\n}",
  "sourcePath": "C:\\Users\\Dev_Account\\dnp\\contracts\\users\\UserStorage.sol",
  "compiler": {
    "name": "solc",
    "version": "0.5.17+commit.d19bba13.Emscripten.clang"
  },
  "schemaVersion": "3.4.7",
  "updatedAt": "2022-05-22T00:01:09.312Z",
  "networkType": "ethereum",
  "devdoc": {
    "methods": {
      "isOwner()": {
        "details": "Returns true if the caller is the current owner."
      },
      "owner()": {
        "details": "Returns the address of the current owner."
      },
      "renounceOwnership()": {
        "details": "Leaves the contract without owner. It will not be possible to call `onlyOwner` functions anymore. Can only be called by the current owner.     * NOTE: Renouncing ownership will leave the contract without an owner, thereby removing any functionality that is only available to the owner."
      },
      "transferOwnership(address)": {
        "details": "Transfers ownership of the contract to a new account (`newOwner`). Can only be called by the current owner."
      }
    }
  },
  "userdoc": {
    "methods": {}
  }
}